{
  "contractName": "HelloWorld",
  "abi": [
    {
      "inputs": [],
      "name": "name",
      "outputs": [
        {
          "internalType": "string",
          "name": "",
          "type": "string"
        }
      ],
      "stateMutability": "view",
      "type": "function",
      "constant": true
    },
    {
      "inputs": [
        {
          "internalType": "string",
          "name": "_name",
          "type": "string"
        }
      ],
      "name": "inputUser",
      "outputs": [],
      "stateMutability": "nonpayable",
      "type": "function"
    },
    {
      "inputs": [],
      "name": "dispUser",
      "outputs": [
        {
          "internalType": "string",
          "name": "",
          "type": "string"
        }
      ],
      "stateMutability": "view",
      "type": "function",
      "constant": true
    },
    {
      "inputs": [
        {
          "internalType": "string",
          "name": "newMessage",
          "type": "string"
        }
      ],
      "name": "update",
      "outputs": [],
      "stateMutability": "nonpayable",
      "type": "function"
    }
  ],
  "bytecode": "0x608060405234801561001057600080fd5b5061069a806100206000396000f3fe608060405234801561001057600080fd5b506004361061004c5760003560e01c806306fdde03146100515780630ebb38b11461006f5780633d7403a31461008b578063f9a0a18f146100a7575b600080fd5b6100596100c5565b60405161006691906102eb565b60405180910390f35b61008960048036038101906100849190610456565b610153565b005b6100a560048036038101906100a09190610456565b61016d565b005b6100af610187565b6040516100bc91906102eb565b60405180910390f35b600080546100d2906104ce565b80601f01602080910402602001604051908101604052809291908181526020018280546100fe906104ce565b801561014b5780601f106101205761010080835404028352916020019161014b565b820191906000526020600020905b81548152906001019060200180831161012e57829003601f168201915b505050505081565b80600090805190602001906101699291906101af565b5050565b80600090805190602001906101839291906101af565b5050565b6060600060405160200161019b9190610637565b604051602081830303815290604052905090565b8280546101bb906104ce565b90600052602060002090601f0160209004810192826101dd5760008555610224565b82601f106101f657805160ff1916838001178555610224565b82800160010185558215610224579182015b82811115610223578251825591602001919060010190610208565b5b5090506102319190610235565b5090565b5b8082111561024e576000816000905550600101610236565b5090565b600081519050919050565b600082825260208201905092915050565b60005b8381101561028c578082015181840152602081019050610271565b8381111561029b576000848401525b50505050565b6000601f19601f8301169050919050565b60006102bd82610252565b6102c7818561025d565b93506102d781856020860161026e565b6102e0816102a1565b840191505092915050565b6000602082019050818103600083015261030581846102b2565b905092915050565b6000604051905090565b600080fd5b600080fd5b600080fd5b600080fd5b7f4e487b7100000000000000000000000000000000000000000000000000000000600052604160045260246000fd5b610363826102a1565b810181811067ffffffffffffffff821117156103825761038161032b565b5b80604052505050565b600061039561030d565b90506103a1828261035a565b919050565b600067ffffffffffffffff8211156103c1576103c061032b565b5b6103ca826102a1565b9050602081019050919050565b82818337600083830152505050565b60006103f96103f4846103a6565b61038b565b90508281526020810184848401111561041557610414610326565b5b6104208482856103d7565b509392505050565b600082601f83011261043d5761043c610321565b5b813561044d8482602086016103e6565b91505092915050565b60006020828403121561046c5761046b610317565b5b600082013567ffffffffffffffff81111561048a5761048961031c565b5b61049684828501610428565b91505092915050565b7f4e487b7100000000000000000000000000000000000000000000000000000000600052602260045260246000fd5b600060028204905060018216806104e657607f821691505b602082108114156104fa576104f961049f565b5b50919050565b600081905092915050565b7f48656c6c6f20776f726c6421204d79206e616d65206973200000000000000000600082015250565b6000610541601883610500565b915061054c8261050b565b601882019050919050565b7f2000000000000000000000000000000000000000000000000000000000000000600082015250565b600061058d600183610500565b915061059882610557565b600182019050919050565b60008190508160005260206000209050919050565b600081546105c5816104ce565b6105cf8186610500565b945060018216600081146105ea57600181146105fb5761062e565b60ff1983168652818601935061062e565b610604856105a3565b60005b8381101561062657815481890152600182019150602081019050610607565b838801955050505b50505092915050565b600061064282610534565b915061064d82610580565b915061065982846105b8565b91508190509291505056fea2646970667358221220d5f0d945ddeff30b1586772732985bf3d2dbe43cbb8ea06827f6d0ccc4ff65dd64736f6c634300080c0033",
  "immutableReferences": {},
  "source": "// SPDX-License-Identifier: MIT\npragma solidity >=0.4.22 <0.9.0;\n\ncontract HelloWorld {\n    \n    // Define a string variable\n    string public name;\n    \n    // Modifies the value of string variable (name)\n    function inputUser(string memory _name) public {\n        name = _name;\n    }\n    \n    // Validated that the string variable (name) holds the updated value\n    function dispUser() public view returns(string memory){\n        return string(abi.encodePacked(\"Hello world! My name is \",' ',name));\n    }\n\n    // A public function that accepts a string argument\n    // and updates the `message` storage variable.\n    function update(string memory newMessage) public {\n        name = newMessage;\n    }\n}\n",
  "sourcePath": "/home/gio/temp/contracts/Helloworld.sol",
  "compiler": {
    "name": "solc",
    "version": "0.8.12+commit.f00d7308.Emscripten.clang"
  },
  "schemaVersion": "3.4.6",
  "updatedAt": "2022-03-23T11:13:04.614Z",
  "networkType": "ethereum",
  "devdoc": {
    "kind": "dev",
    "methods": {},
    "version": 1
  },
  "userdoc": {
    "kind": "user",
    "methods": {},
    "version": 1
  }
}