{
  "contractName": "Meteosc",
  "abi": [
    {
      "inputs": [],
      "stateMutability": "nonpayable",
      "type": "constructor"
    },
    {
      "inputs": [
        {
          "internalType": "string",
          "name": "",
          "type": "string"
        },
        {
          "internalType": "string",
          "name": "",
          "type": "string"
        },
        {
          "internalType": "uint256",
          "name": "",
          "type": "uint256"
        }
      ],
      "name": "file",
      "outputs": [
        {
          "internalType": "string",
          "name": "_fullName",
          "type": "string"
        },
        {
          "internalType": "string",
          "name": "_name",
          "type": "string"
        },
        {
          "internalType": "string",
          "name": "_firstMesure",
          "type": "string"
        },
        {
          "internalType": "string",
          "name": "_lastMesure",
          "type": "string"
        },
        {
          "internalType": "string",
          "name": "_data",
          "type": "string"
        }
      ],
      "stateMutability": "view",
      "type": "function",
      "constant": true
    },
    {
      "inputs": [
        {
          "internalType": "string",
          "name": "",
          "type": "string"
        },
        {
          "internalType": "uint256",
          "name": "",
          "type": "uint256"
        }
      ],
      "name": "info",
      "outputs": [
        {
          "internalType": "string",
          "name": "",
          "type": "string"
        }
      ],
      "stateMutability": "view",
      "type": "function",
      "constant": true
    },
    {
      "inputs": [
        {
          "internalType": "string",
          "name": "fullName",
          "type": "string"
        },
        {
          "internalType": "string",
          "name": "name",
          "type": "string"
        },
        {
          "internalType": "string",
          "name": "data",
          "type": "string"
        },
        {
          "internalType": "string",
          "name": "firstMesure",
          "type": "string"
        },
        {
          "internalType": "string",
          "name": "lastMesure",
          "type": "string"
        }
      ],
      "name": "addFile",
      "outputs": [],
      "stateMutability": "nonpayable",
      "type": "function"
    },
    {
      "inputs": [
        {
          "internalType": "string",
          "name": "name",
          "type": "string"
        },
        {
          "internalType": "string",
          "name": "fullName",
          "type": "string"
        }
      ],
      "name": "getFile",
      "outputs": [
        {
          "components": [
            {
              "internalType": "string",
              "name": "_fullName",
              "type": "string"
            },
            {
              "internalType": "string",
              "name": "_name",
              "type": "string"
            },
            {
              "internalType": "string",
              "name": "_firstMesure",
              "type": "string"
            },
            {
              "internalType": "string",
              "name": "_lastMesure",
              "type": "string"
            },
            {
              "internalType": "string",
              "name": "_data",
              "type": "string"
            }
          ],
          "internalType": "struct Meteosc.File",
          "name": "",
          "type": "tuple"
        }
      ],
      "stateMutability": "view",
      "type": "function",
      "constant": true
    },
    {
      "inputs": [
        {
          "internalType": "string",
          "name": "name",
          "type": "string"
        },
        {
          "internalType": "string",
          "name": "fullName",
          "type": "string"
        }
      ],
      "name": "getFileVertions",
      "outputs": [
        {
          "components": [
            {
              "internalType": "string",
              "name": "_fullName",
              "type": "string"
            },
            {
              "internalType": "string",
              "name": "_name",
              "type": "string"
            },
            {
              "internalType": "string",
              "name": "_firstMesure",
              "type": "string"
            },
            {
              "internalType": "string",
              "name": "_lastMesure",
              "type": "string"
            },
            {
              "internalType": "string",
              "name": "_data",
              "type": "string"
            }
          ],
          "internalType": "struct Meteosc.File[]",
          "name": "",
          "type": "tuple[]"
        }
      ],
      "stateMutability": "view",
      "type": "function",
      "constant": true
    },
    {
      "inputs": [
        {
          "internalType": "string",
          "name": "name",
          "type": "string"
        }
      ],
      "name": "getFileHistory",
      "outputs": [
        {
          "components": [
            {
              "components": [
                {
                  "internalType": "string",
                  "name": "_fullName",
                  "type": "string"
                },
                {
                  "internalType": "string",
                  "name": "_name",
                  "type": "string"
                },
                {
                  "internalType": "string",
                  "name": "_firstMesure",
                  "type": "string"
                },
                {
                  "internalType": "string",
                  "name": "_lastMesure",
                  "type": "string"
                },
                {
                  "internalType": "string",
                  "name": "_data",
                  "type": "string"
                }
              ],
              "internalType": "struct Meteosc.File[]",
              "name": "period",
              "type": "tuple[]"
            }
          ],
          "internalType": "struct Meteosc.Station[]",
          "name": "",
          "type": "tuple[]"
        }
      ],
      "stateMutability": "view",
      "type": "function",
      "constant": true
    }
  ],
  "bytecode": "0x60806040523480156200001157600080fd5b50620001306040518060400160405280600581526020017f4153495f310000000000000000000000000000000000000000000000000000008152506040518060400160405280600381526020017f41534900000000000000000000000000000000000000000000000000000000008152506040518060400160405280600a81526020017f323032322f31312f3130000000000000000000000000000000000000000000008152506040518060400160405280600a81526020017f323032322f31322f3130000000000000000000000000000000000000000000008152506040518060400160405280600a81526020017f66697372745f6461746100000000000000000000000000000000000000000000815250620010da60201b60201c565b6200024e6040518060400160405280600581526020017f4153495f310000000000000000000000000000000000000000000000000000008152506040518060400160405280600381526020017f41534900000000000000000000000000000000000000000000000000000000008152506040518060400160405280600a81526020017f323032322f31312f3130000000000000000000000000000000000000000000008152506040518060400160405280600a81526020017f323032322f31322f3130000000000000000000000000000000000000000000008152506040518060400160405280600b81526020017f7365636f6e645f64617461000000000000000000000000000000000000000000815250620010da60201b60201c565b6200036c6040518060400160405280600581526020017f4153495f310000000000000000000000000000000000000000000000000000008152506040518060400160405280600381526020017f41534900000000000000000000000000000000000000000000000000000000008152506040518060400160405280600a81526020017f323032322f31312f3130000000000000000000000000000000000000000000008152506040518060400160405280600a81526020017f323032322f31322f3130000000000000000000000000000000000000000000008152506040518060400160405280600a81526020017f74686972645f6461746100000000000000000000000000000000000000000000815250620010da60201b60201c565b6200048a6040518060400160405280600581526020017f4153495f320000000000000000000000000000000000000000000000000000008152506040518060400160405280600381526020017f41534900000000000000000000000000000000000000000000000000000000008152506040518060400160405280600a81526020017f323032322f32302f3131000000000000000000000000000000000000000000008152506040518060400160405280600a81526020017f323032322f32352f3131000000000000000000000000000000000000000000008152506040518060400160405280600a81526020017f66697273745f6461746100000000000000000000000000000000000000000000815250620010da60201b60201c565b620005a86040518060400160405280600581526020017f4153495f320000000000000000000000000000000000000000000000000000008152506040518060400160405280600381526020017f41534900000000000000000000000000000000000000000000000000000000008152506040518060400160405280600a81526020017f323032322f32302f3131000000000000000000000000000000000000000000008152506040518060400160405280600a81526020017f323032322f32352f3131000000000000000000000000000000000000000000008152506040518060400160405280600b81526020017f7365636f6e645f64617461000000000000000000000000000000000000000000815250620010da60201b60201c565b620006c66040518060400160405280600581526020017f4153495f330000000000000000000000000000000000000000000000000000008152506040518060400160405280600381526020017f41534900000000000000000000000000000000000000000000000000000000008152506040518060400160405280600a81526020017f323032322f32352f3131000000000000000000000000000000000000000000008152506040518060400160405280600a81526020017f323032322f30352f3132000000000000000000000000000000000000000000008152506040518060400160405280600a81526020017f66697273745f6461746100000000000000000000000000000000000000000000815250620010da60201b60201c565b620007e46040518060400160405280600581526020017f4153495f340000000000000000000000000000000000000000000000000000008152506040518060400160405280600381526020017f41534900000000000000000000000000000000000000000000000000000000008152506040518060400160405280600a81526020017f323032322f30352f3132000000000000000000000000000000000000000000008152506040518060400160405280600a81526020017f323032322f31352f3132000000000000000000000000000000000000000000008152506040518060400160405280600a81526020017f66697273745f6461746100000000000000000000000000000000000000000000815250620010da60201b60201c565b620009026040518060400160405280600581526020017f4153495f350000000000000000000000000000000000000000000000000000008152506040518060400160405280600381526020017f41534900000000000000000000000000000000000000000000000000000000008152506040518060400160405280600a81526020017f323032322f31352f3132000000000000000000000000000000000000000000008152506040518060400160405280600a81526020017f323032332f31302f3031000000000000000000000000000000000000000000008152506040518060400160405280600a81526020017f66697273745f6461746100000000000000000000000000000000000000000000815250620010da60201b60201c565b62000a206040518060400160405280600581526020017f4d454e5f310000000000000000000000000000000000000000000000000000008152506040518060400160405280600381526020017f4d454e00000000000000000000000000000000000000000000000000000000008152506040518060400160405280600a81526020017f323032312f31312f3130000000000000000000000000000000000000000000008152506040518060400160405280600a81526020017f323032312f31322f3130000000000000000000000000000000000000000000008152506040518060400160405280600a81526020017f66697372745f6461746100000000000000000000000000000000000000000000815250620010da60201b60201c565b62000b3e6040518060400160405280600581526020017f4d454e5f320000000000000000000000000000000000000000000000000000008152506040518060400160405280600381526020017f4d454e00000000000000000000000000000000000000000000000000000000008152506040518060400160405280600a81526020017f323032312f31322f3130000000000000000000000000000000000000000000008152506040518060400160405280600a81526020017f323032312f31342f3130000000000000000000000000000000000000000000008152506040518060400160405280600a81526020017f66697273745f6461746100000000000000000000000000000000000000000000815250620010da60201b60201c565b62000c5c6040518060400160405280600581526020017f4158415f310000000000000000000000000000000000000000000000000000008152506040518060400160405280600381526020017f41584100000000000000000000000000000000000000000000000000000000008152506040518060400160405280600a81526020017f323032312f31322f3130000000000000000000000000000000000000000000008152506040518060400160405280600a81526020017f323032312f31342f3130000000000000000000000000000000000000000000008152506040518060400160405280600a81526020017f66697273745f6461746100000000000000000000000000000000000000000000815250620010da60201b60201c565b62000d7a6040518060400160405280600581526020017f4158415f310000000000000000000000000000000000000000000000000000008152506040518060400160405280600381526020017f41584100000000000000000000000000000000000000000000000000000000008152506040518060400160405280600a81526020017f323032312f31322f3130000000000000000000000000000000000000000000008152506040518060400160405280600a81526020017f323032312f31342f3130000000000000000000000000000000000000000000008152506040518060400160405280600b81526020017f7365636f6e645f64617461000000000000000000000000000000000000000000815250620010da60201b60201c565b62000e986040518060400160405280600581526020017f4158415f320000000000000000000000000000000000000000000000000000008152506040518060400160405280600381526020017f41584100000000000000000000000000000000000000000000000000000000008152506040518060400160405280600a81526020017f323032312f31342f3130000000000000000000000000000000000000000000008152506040518060400160405280600a81526020017f323032322f31342f3031000000000000000000000000000000000000000000008152506040518060400160405280600a81526020017f66697273745f6461746100000000000000000000000000000000000000000000815250620010da60201b60201c565b62000fb66040518060400160405280600581526020017f4158415f320000000000000000000000000000000000000000000000000000008152506040518060400160405280600381526020017f41584100000000000000000000000000000000000000000000000000000000008152506040518060400160405280600a81526020017f323032312f31342f3130000000000000000000000000000000000000000000008152506040518060400160405280600a81526020017f323032322f31342f3031000000000000000000000000000000000000000000008152506040518060400160405280600b81526020017f7365636f6e645f64617461000000000000000000000000000000000000000000815250620010da60201b60201c565b620010d46040518060400160405280600581526020017f4158415f320000000000000000000000000000000000000000000000000000008152506040518060400160405280600381526020017f41584100000000000000000000000000000000000000000000000000000000008152506040518060400160405280600a81526020017f323032312f31342f3130000000000000000000000000000000000000000000008152506040518060400160405280600a81526020017f323032322f31342f3031000000000000000000000000000000000000000000008152506040518060400160405280600a81526020017f74686972645f6461746100000000000000000000000000000000000000000000815250620010da60201b60201c565b620014a5565b620010e4620012c5565b8581600001819052508481602001819052508281604001819052508181606001819052508381608001819052506000808660405162001124919062001427565b90815260200160405180910390208760405162001142919062001427565b9081526020016040518091039020805490501415620011b8576001856040516200116d919062001427565b908152602001604051809103902086908060018154018082558091505060019003906000526020600020016000909190919091509080519060200190620011b6929190620012f4565b505b600085604051620011ca919062001427565b908152602001604051809103902086604051620011e8919062001427565b908152602001604051809103902081908060018154018082558091505060019003906000526020600020906005020160009091909190915060008201518160000190805190602001906200123e929190620012f4565b5060208201518160010190805190602001906200125d929190620012f4565b5060408201518160020190805190602001906200127c929190620012f4565b5060608201518160030190805190602001906200129b929190620012f4565b506080820151816004019080519060200190620012ba929190620012f4565b505050505050505050565b6040518060a0016040528060608152602001606081526020016060815260200160608152602001606081525090565b82805462001302906200146f565b90600052602060002090601f01602090048101928262001326576000855562001372565b82601f106200134157805160ff191683800117855562001372565b8280016001018555821562001372579182015b828111156200137157825182559160200191906001019062001354565b5b50905062001381919062001385565b5090565b5b80821115620013a057600081600090555060010162001386565b5090565b600081519050919050565b600081905092915050565b60005b83811015620013da578082015181840152602081019050620013bd565b83811115620013ea576000848401525b50505050565b6000620013fd82620013a4565b620014098185620013af565b93506200141b818560208601620013ba565b80840191505092915050565b6000620014358284620013f0565b915081905092915050565b7f4e487b7100000000000000000000000000000000000000000000000000000000600052602260045260246000fd5b600060028204905060018216806200148857607f821691505b602082108114156200149f576200149e62001440565b5b50919050565b611c0680620014b56000396000f3fe608060405234801561001057600080fd5b50600436106100625760003560e01c80630a7fac44146100675780633cb37b4814610083578063473e8106146100b357806391548ace146100e3578063dfcc443d14610113578063ee9125bc14610147575b600080fd5b610081600480360381019061007c9190611234565b610177565b005b61009d6004803603810190610098919061133b565b610349565b6040516100aa919061158f565b60405180910390f35b6100cd60048036038101906100c891906115e7565b6106bd565b6040516100da919061168d565b60405180910390f35b6100fd60048036038101906100f8919061133b565b61078c565b60405161010a9190611741565b60405180910390f35b61012d60048036038101906101289190611763565b610b24565b60405161013e9594939291906117ee565b60405180910390f35b610161600480360381019061015c9190611864565b610e58565b60405161016e9190611a1f565b60405180910390f35b61017f610ff5565b858160000181905250848160200181905250828160400181905250818160600181905250838160800181905250600080866040516101bd9190611a7d565b9081526020016040518091039020876040516101d99190611a7d565b908152602001604051809103902080549050141561024a576001856040516102019190611a7d565b908152602001604051809103902086908060018154018082558091505060019003906000526020600020016000909190919091509080519060200190610248929190611024565b505b60008560405161025a9190611a7d565b9081526020016040518091039020866040516102769190611a7d565b908152602001604051809103902081908060018154018082558091505060019003906000526020600020906005020160009091909190915060008201518160000190805190602001906102ca929190611024565b5060208201518160010190805190602001906102e7929190611024565b506040820151816002019080519060200190610304929190611024565b506060820151816003019080519060200190610321929190611024565b50608082015181600401908051906020019061033e929190611024565b505050505050505050565b606060008360405161035b9190611a7d565b9081526020016040518091039020826040516103779190611a7d565b9081526020016040518091039020805480602002602001604051908101604052809291908181526020016000905b828210156106b157838290600052602060002090600502016040518060a00160405290816000820180546103d890611ac3565b80601f016020809104026020016040519081016040528092919081815260200182805461040490611ac3565b80156104515780601f1061042657610100808354040283529160200191610451565b820191906000526020600020905b81548152906001019060200180831161043457829003601f168201915b5050505050815260200160018201805461046a90611ac3565b80601f016020809104026020016040519081016040528092919081815260200182805461049690611ac3565b80156104e35780601f106104b8576101008083540402835291602001916104e3565b820191906000526020600020905b8154815290600101906020018083116104c657829003601f168201915b505050505081526020016002820180546104fc90611ac3565b80601f016020809104026020016040519081016040528092919081815260200182805461052890611ac3565b80156105755780601f1061054a57610100808354040283529160200191610575565b820191906000526020600020905b81548152906001019060200180831161055857829003601f168201915b5050505050815260200160038201805461058e90611ac3565b80601f01602080910402602001604051908101604052809291908181526020018280546105ba90611ac3565b80156106075780601f106105dc57610100808354040283529160200191610607565b820191906000526020600020905b8154815290600101906020018083116105ea57829003601f168201915b5050505050815260200160048201805461062090611ac3565b80601f016020809104026020016040519081016040528092919081815260200182805461064c90611ac3565b80156106995780601f1061066e57610100808354040283529160200191610699565b820191906000526020600020905b81548152906001019060200180831161067c57829003601f168201915b505050505081525050815260200190600101906103a5565b50505050905092915050565b60018280516020810182018051848252602083016020850120818352809550505050505081815481106106ef57600080fd5b9060005260206000200160009150915050805461070b90611ac3565b80601f016020809104026020016040519081016040528092919081815260200182805461073790611ac3565b80156107845780601f1061075957610100808354040283529160200191610784565b820191906000526020600020905b81548152906001019060200180831161076757829003601f168201915b505050505081565b610794610ff5565b6000836040516107a49190611a7d565b9081526020016040518091039020826040516107c09190611a7d565b908152602001604051809103902060016000856040516107e09190611a7d565b9081526020016040518091039020846040516107fc9190611a7d565b9081526020016040518091039020805490506108189190611b24565b8154811061082957610828611b58565b5b90600052602060002090600502016040518060a001604052908160008201805461085290611ac3565b80601f016020809104026020016040519081016040528092919081815260200182805461087e90611ac3565b80156108cb5780601f106108a0576101008083540402835291602001916108cb565b820191906000526020600020905b8154815290600101906020018083116108ae57829003601f168201915b505050505081526020016001820180546108e490611ac3565b80601f016020809104026020016040519081016040528092919081815260200182805461091090611ac3565b801561095d5780601f106109325761010080835404028352916020019161095d565b820191906000526020600020905b81548152906001019060200180831161094057829003601f168201915b5050505050815260200160028201805461097690611ac3565b80601f01602080910402602001604051908101604052809291908181526020018280546109a290611ac3565b80156109ef5780601f106109c4576101008083540402835291602001916109ef565b820191906000526020600020905b8154815290600101906020018083116109d257829003601f168201915b50505050508152602001600382018054610a0890611ac3565b80601f0160208091040260200160405190810160405280929190818152602001828054610a3490611ac3565b8015610a815780601f10610a5657610100808354040283529160200191610a81565b820191906000526020600020905b815481529060010190602001808311610a6457829003601f168201915b50505050508152602001600482018054610a9a90611ac3565b80601f0160208091040260200160405190810160405280929190818152602001828054610ac690611ac3565b8015610b135780601f10610ae857610100808354040283529160200191610b13565b820191906000526020600020905b815481529060010190602001808311610af657829003601f168201915b505050505081525050905092915050565b600083805160208101820180518482526020830160208501208183528095505050505050828051602081018201805184825260208301602085012081835280955050505050508181548110610b7857600080fd5b90600052602060002090600502016000925092505050806000018054610b9d90611ac3565b80601f0160208091040260200160405190810160405280929190818152602001828054610bc990611ac3565b8015610c165780601f10610beb57610100808354040283529160200191610c16565b820191906000526020600020905b815481529060010190602001808311610bf957829003601f168201915b505050505090806001018054610c2b90611ac3565b80601f0160208091040260200160405190810160405280929190818152602001828054610c5790611ac3565b8015610ca45780601f10610c7957610100808354040283529160200191610ca4565b820191906000526020600020905b815481529060010190602001808311610c8757829003601f168201915b505050505090806002018054610cb990611ac3565b80601f0160208091040260200160405190810160405280929190818152602001828054610ce590611ac3565b8015610d325780601f10610d0757610100808354040283529160200191610d32565b820191906000526020600020905b815481529060010190602001808311610d1557829003601f168201915b505050505090806003018054610d4790611ac3565b80601f0160208091040260200160405190810160405280929190818152602001828054610d7390611ac3565b8015610dc05780601f10610d9557610100808354040283529160200191610dc0565b820191906000526020600020905b815481529060010190602001808311610da357829003601f168201915b505050505090806004018054610dd590611ac3565b80601f0160208091040260200160405190810160405280929190818152602001828054610e0190611ac3565b8015610e4e5780601f10610e2357610100808354040283529160200191610e4e565b820191906000526020600020905b815481529060010190602001808311610e3157829003601f168201915b5050505050905085565b60606000600183604051610e6c9190611a7d565b908152602001604051809103902080549050905060008167ffffffffffffffff811115610e9c57610e9b611109565b5b604051908082528060200260200182016040528015610ed557816020015b610ec26110aa565b815260200190600190039081610eba5790505b50905060005b82811015610fea576000610fb186600188604051610ef99190611a7d565b90815260200160405180910390208481548110610f1957610f18611b58565b5b906000526020600020018054610f2e90611ac3565b80601f0160208091040260200160405190810160405280929190818152602001828054610f5a90611ac3565b8015610fa75780601f10610f7c57610100808354040283529160200191610fa7565b820191906000526020600020905b815481529060010190602001808311610f8a57829003601f168201915b5050505050610349565b905080838381518110610fc757610fc6611b58565b5b602002602001015160000181905250508080610fe290611b87565b915050610edb565b508092505050919050565b6040518060a0016040528060608152602001606081526020016060815260200160608152602001606081525090565b82805461103090611ac3565b90600052602060002090601f0160209004810192826110525760008555611099565b82601f1061106b57805160ff1916838001178555611099565b82800160010185558215611099579182015b8281111561109857825182559160200191906001019061107d565b5b5090506110a691906110bd565b5090565b6040518060200160405280606081525090565b5b808211156110d65760008160009055506001016110be565b5090565b6000604051905090565b600080fd5b600080fd5b600080fd5b600080fd5b6000601f19601f8301169050919050565b7f4e487b7100000000000000000000000000000000000000000000000000000000600052604160045260246000fd5b611141826110f8565b810181811067ffffffffffffffff821117156111605761115f611109565b5b80604052505050565b60006111736110da565b905061117f8282611138565b919050565b600067ffffffffffffffff82111561119f5761119e611109565b5b6111a8826110f8565b9050602081019050919050565b82818337600083830152505050565b60006111d76111d284611184565b611169565b9050828152602081018484840111156111f3576111f26110f3565b5b6111fe8482856111b5565b509392505050565b600082601f83011261121b5761121a6110ee565b5b813561122b8482602086016111c4565b91505092915050565b600080600080600060a086880312156112505761124f6110e4565b5b600086013567ffffffffffffffff81111561126e5761126d6110e9565b5b61127a88828901611206565b955050602086013567ffffffffffffffff81111561129b5761129a6110e9565b5b6112a788828901611206565b945050604086013567ffffffffffffffff8111156112c8576112c76110e9565b5b6112d488828901611206565b935050606086013567ffffffffffffffff8111156112f5576112f46110e9565b5b61130188828901611206565b925050608086013567ffffffffffffffff811115611322576113216110e9565b5b61132e88828901611206565b9150509295509295909350565b60008060408385031215611352576113516110e4565b5b600083013567ffffffffffffffff8111156113705761136f6110e9565b5b61137c85828601611206565b925050602083013567ffffffffffffffff81111561139d5761139c6110e9565b5b6113a985828601611206565b9150509250929050565b600081519050919050565b600082825260208201905092915050565b6000819050602082019050919050565b600081519050919050565b600082825260208201905092915050565b60005b838110156114195780820151818401526020810190506113fe565b83811115611428576000848401525b50505050565b6000611439826113df565b61144381856113ea565b93506114538185602086016113fb565b61145c816110f8565b840191505092915050565b600060a0830160008301518482036000860152611484828261142e565b9150506020830151848203602086015261149e828261142e565b915050604083015184820360408601526114b8828261142e565b915050606083015184820360608601526114d2828261142e565b915050608083015184820360808601526114ec828261142e565b9150508091505092915050565b60006115058383611467565b905092915050565b6000602082019050919050565b6000611525826113b3565b61152f81856113be565b935083602082028501611541856113cf565b8060005b8581101561157d578484038952815161155e85826114f9565b94506115698361150d565b925060208a01995050600181019050611545565b50829750879550505050505092915050565b600060208201905081810360008301526115a9818461151a565b905092915050565b6000819050919050565b6115c4816115b1565b81146115cf57600080fd5b50565b6000813590506115e1816115bb565b92915050565b600080604083850312156115fe576115fd6110e4565b5b600083013567ffffffffffffffff81111561161c5761161b6110e9565b5b61162885828601611206565b9250506020611639858286016115d2565b9150509250929050565b600082825260208201905092915050565b600061165f826113df565b6116698185611643565b93506116798185602086016113fb565b611682816110f8565b840191505092915050565b600060208201905081810360008301526116a78184611654565b905092915050565b600060a08301600083015184820360008601526116cc828261142e565b915050602083015184820360208601526116e6828261142e565b91505060408301518482036040860152611700828261142e565b9150506060830151848203606086015261171a828261142e565b91505060808301518482036080860152611734828261142e565b9150508091505092915050565b6000602082019050818103600083015261175b81846116af565b905092915050565b60008060006060848603121561177c5761177b6110e4565b5b600084013567ffffffffffffffff81111561179a576117996110e9565b5b6117a686828701611206565b935050602084013567ffffffffffffffff8111156117c7576117c66110e9565b5b6117d386828701611206565b92505060406117e4868287016115d2565b9150509250925092565b600060a08201905081810360008301526118088188611654565b9050818103602083015261181c8187611654565b905081810360408301526118308186611654565b905081810360608301526118448185611654565b905081810360808301526118588184611654565b90509695505050505050565b60006020828403121561187a576118796110e4565b5b600082013567ffffffffffffffff811115611898576118976110e9565b5b6118a484828501611206565b91505092915050565b600081519050919050565b600082825260208201905092915050565b6000819050602082019050919050565b600082825260208201905092915050565b60006118f5826113b3565b6118ff81856118d9565b935083602082028501611911856113cf565b8060005b8581101561194d578484038952815161192e85826114f9565b94506119398361150d565b925060208a01995050600181019050611915565b50829750879550505050505092915050565b6000602083016000830151848203600086015261197c82826118ea565b9150508091505092915050565b6000611995838361195f565b905092915050565b6000602082019050919050565b60006119b5826118ad565b6119bf81856118b8565b9350836020820285016119d1856118c9565b8060005b85811015611a0d57848403895281516119ee8582611989565b94506119f98361199d565b925060208a019950506001810190506119d5565b50829750879550505050505092915050565b60006020820190508181036000830152611a3981846119aa565b905092915050565b600081905092915050565b6000611a57826113df565b611a618185611a41565b9350611a718185602086016113fb565b80840191505092915050565b6000611a898284611a4c565b915081905092915050565b7f4e487b7100000000000000000000000000000000000000000000000000000000600052602260045260246000fd5b60006002820490506001821680611adb57607f821691505b60208210811415611aef57611aee611a94565b5b50919050565b7f4e487b7100000000000000000000000000000000000000000000000000000000600052601160045260246000fd5b6000611b2f826115b1565b9150611b3a836115b1565b925082821015611b4d57611b4c611af5565b5b828203905092915050565b7f4e487b7100000000000000000000000000000000000000000000000000000000600052603260045260246000fd5b6000611b92826115b1565b91507fffffffffffffffffffffffffffffffffffffffffffffffffffffffffffffffff821415611bc557611bc4611af5565b5b60018201905091905056fea264697066735822122077d06427aeb34ea7850830598169f11cf0245fa95bddbdd097e71e19f6af79a664736f6c634300080c0033",
  "immutableReferences": {},
  "source": "// SPDX-License-Identifier: MIT\npragma solidity >=0.4.22 <0.9.0;\n\ncontract Meteosc {\n\n    struct File {\n        string _fullName;\n        string _name;\n        string _firstMesure;\n        string _lastMesure;\n        string _data;\n    }\n\n    struct Station {\n        File[] period;\n    }\n\n    //kathe name ASIGONIA_20221010 antistixoi se allo struct file\n    mapping(string => mapping(string => File[])) public file;\n    mapping(string => string[]) public info;\n\n    constructor () {\n        addFile(\"ASI_1\", \"ASI\", \"2022/11/10\", \"2022/12/10\", \"fisrt_data\");\n        addFile(\"ASI_1\", \"ASI\", \"2022/11/10\", \"2022/12/10\", \"second_data\");\n        addFile(\"ASI_1\", \"ASI\", \"2022/11/10\", \"2022/12/10\", \"third_data\");\n        addFile(\"ASI_2\", \"ASI\", \"2022/20/11\", \"2022/25/11\", \"first_data\");\n        addFile(\"ASI_2\", \"ASI\", \"2022/20/11\", \"2022/25/11\", \"second_data\");\n        addFile(\"ASI_3\", \"ASI\", \"2022/25/11\", \"2022/05/12\", \"first_data\");\n        addFile(\"ASI_4\", \"ASI\", \"2022/05/12\", \"2022/15/12\", \"first_data\");\n        addFile(\"ASI_5\", \"ASI\", \"2022/15/12\", \"2023/10/01\", \"first_data\");\n        addFile(\"MEN_1\", \"MEN\", \"2021/11/10\", \"2021/12/10\", \"fisrt_data\");\n        addFile(\"MEN_2\", \"MEN\", \"2021/12/10\", \"2021/14/10\", \"first_data\");\n        addFile(\"AXA_1\", \"AXA\", \"2021/12/10\", \"2021/14/10\", \"first_data\");\n        addFile(\"AXA_1\", \"AXA\", \"2021/12/10\", \"2021/14/10\", \"second_data\");\n        addFile(\"AXA_2\", \"AXA\", \"2021/14/10\", \"2022/14/01\", \"first_data\");\n        addFile(\"AXA_2\", \"AXA\", \"2021/14/10\", \"2022/14/01\", \"second_data\");\n        addFile(\"AXA_2\", \"AXA\", \"2021/14/10\", \"2022/14/01\", \"third_data\");\n    }\n\n    function addFile(\n        string memory fullName, \n        string memory name, \n        string memory data, \n        string memory firstMesure, \n        string memory lastMesure\n    )public {\n        File memory curfile;\n\n        curfile._fullName = fullName;\n        curfile._name = name;\n        curfile._firstMesure = firstMesure;\n        curfile._lastMesure = lastMesure;\n        curfile._data = data;\n\n        if (file[name][fullName].length == 0) {\n            info[name].push(fullName);\n        }\n\n        file[name][fullName].push(curfile);\n    }\n\n    function getFile(\n        string memory name,\n        string memory fullName\n    )public view returns (File memory) {\n        return file[name][fullName][file[name][fullName].length - 1];\n    }\n\n    function getFileVertions(\n        string memory name,\n        string memory fullName\n    )public view returns (File[] memory) {\n        return file[name][fullName];\n    }\n\n    function getFileHistory(\n        string memory name\n    )public view returns (Station[] memory) {\n        uint len = info[name].length;\n        Station[] memory cur = new Station[](len);\n        for (uint i=0; i<len; i++) {\n            File[] memory curFile = getFileVertions(name, info[name][i]);\n\n            cur[i].period = curFile;\n        }\n        return cur;\n    }\n\n}\n",
  "sourcePath": "/home/gio/blockchain/firstdapp/contracts/Meteosc.sol",
  "compiler": {
    "name": "solc",
    "version": "0.8.12+commit.f00d7308.Emscripten.clang"
  },
  "schemaVersion": "3.4.6",
  "updatedAt": "2022-04-09T19:07:26.196Z",
  "networkType": "ethereum",
  "devdoc": {
    "kind": "dev",
    "methods": {},
    "version": 1
  },
  "userdoc": {
    "kind": "user",
    "methods": {},
    "version": 1
  }
}