{
  "contractName": "Meteosc",
  "abi": [
    {
      "inputs": [],
      "stateMutability": "nonpayable",
      "type": "constructor"
    },
    {
      "inputs": [
        {
          "internalType": "string",
          "name": "",
          "type": "string"
        },
        {
          "internalType": "string",
          "name": "",
          "type": "string"
        },
        {
          "internalType": "uint256",
          "name": "",
          "type": "uint256"
        }
      ],
      "name": "file",
      "outputs": [
        {
          "internalType": "string",
          "name": "_fullName",
          "type": "string"
        },
        {
          "internalType": "string",
          "name": "_name",
          "type": "string"
        },
        {
          "internalType": "string",
          "name": "_data",
          "type": "string"
        },
        {
          "internalType": "string",
          "name": "_firstMesure",
          "type": "string"
        },
        {
          "internalType": "string",
          "name": "_lastMesure",
          "type": "string"
        }
      ],
      "stateMutability": "view",
      "type": "function",
      "constant": true
    },
    {
      "inputs": [
        {
          "internalType": "string",
          "name": "",
          "type": "string"
        },
        {
          "internalType": "uint256",
          "name": "",
          "type": "uint256"
        }
      ],
      "name": "info",
      "outputs": [
        {
          "internalType": "string",
          "name": "",
          "type": "string"
        }
      ],
      "stateMutability": "view",
      "type": "function",
      "constant": true
    },
    {
      "inputs": [
        {
          "internalType": "uint256",
          "name": "",
          "type": "uint256"
        }
      ],
      "name": "stationNames",
      "outputs": [
        {
          "internalType": "string",
          "name": "",
          "type": "string"
        }
      ],
      "stateMutability": "view",
      "type": "function",
      "constant": true
    },
    {
      "inputs": [
        {
          "internalType": "string",
          "name": "fullName",
          "type": "string"
        },
        {
          "internalType": "string",
          "name": "name",
          "type": "string"
        },
        {
          "internalType": "string",
          "name": "data",
          "type": "string"
        },
        {
          "internalType": "string",
          "name": "firstMesure",
          "type": "string"
        },
        {
          "internalType": "string",
          "name": "lastMesure",
          "type": "string"
        }
      ],
      "name": "addFile",
      "outputs": [],
      "stateMutability": "nonpayable",
      "type": "function"
    },
    {
      "inputs": [
        {
          "internalType": "string",
          "name": "name",
          "type": "string"
        },
        {
          "internalType": "string",
          "name": "fullName",
          "type": "string"
        }
      ],
      "name": "getFile",
      "outputs": [
        {
          "components": [
            {
              "internalType": "string",
              "name": "_fullName",
              "type": "string"
            },
            {
              "internalType": "string",
              "name": "_name",
              "type": "string"
            },
            {
              "internalType": "string",
              "name": "_data",
              "type": "string"
            },
            {
              "internalType": "string",
              "name": "_firstMesure",
              "type": "string"
            },
            {
              "internalType": "string",
              "name": "_lastMesure",
              "type": "string"
            }
          ],
          "internalType": "struct Meteosc.File",
          "name": "",
          "type": "tuple"
        }
      ],
      "stateMutability": "view",
      "type": "function",
      "constant": true
    },
    {
      "inputs": [
        {
          "internalType": "string",
          "name": "name",
          "type": "string"
        },
        {
          "internalType": "string",
          "name": "fullName",
          "type": "string"
        }
      ],
      "name": "getFileVertions",
      "outputs": [
        {
          "components": [
            {
              "internalType": "string",
              "name": "_fullName",
              "type": "string"
            },
            {
              "internalType": "string",
              "name": "_name",
              "type": "string"
            },
            {
              "internalType": "string",
              "name": "_data",
              "type": "string"
            },
            {
              "internalType": "string",
              "name": "_firstMesure",
              "type": "string"
            },
            {
              "internalType": "string",
              "name": "_lastMesure",
              "type": "string"
            }
          ],
          "internalType": "struct Meteosc.File[]",
          "name": "",
          "type": "tuple[]"
        }
      ],
      "stateMutability": "view",
      "type": "function",
      "constant": true
    },
    {
      "inputs": [
        {
          "internalType": "string",
          "name": "name",
          "type": "string"
        }
      ],
      "name": "getFileHistory",
      "outputs": [
        {
          "components": [
            {
              "internalType": "string",
              "name": "_fullName",
              "type": "string"
            },
            {
              "components": [
                {
                  "internalType": "string",
                  "name": "_fullName",
                  "type": "string"
                },
                {
                  "internalType": "string",
                  "name": "_name",
                  "type": "string"
                },
                {
                  "internalType": "string",
                  "name": "_data",
                  "type": "string"
                },
                {
                  "internalType": "string",
                  "name": "_firstMesure",
                  "type": "string"
                },
                {
                  "internalType": "string",
                  "name": "_lastMesure",
                  "type": "string"
                }
              ],
              "internalType": "struct Meteosc.File[]",
              "name": "_days",
              "type": "tuple[]"
            }
          ],
          "internalType": "struct Meteosc.Days[]",
          "name": "",
          "type": "tuple[]"
        }
      ],
      "stateMutability": "view",
      "type": "function",
      "constant": true
    },
    {
      "inputs": [],
      "name": "getAllFiles",
      "outputs": [
        {
          "components": [
            {
              "internalType": "string",
              "name": "_name",
              "type": "string"
            },
            {
              "components": [
                {
                  "internalType": "string",
                  "name": "_fullName",
                  "type": "string"
                },
                {
                  "components": [
                    {
                      "internalType": "string",
                      "name": "_fullName",
                      "type": "string"
                    },
                    {
                      "internalType": "string",
                      "name": "_name",
                      "type": "string"
                    },
                    {
                      "internalType": "string",
                      "name": "_data",
                      "type": "string"
                    },
                    {
                      "internalType": "string",
                      "name": "_firstMesure",
                      "type": "string"
                    },
                    {
                      "internalType": "string",
                      "name": "_lastMesure",
                      "type": "string"
                    }
                  ],
                  "internalType": "struct Meteosc.File[]",
                  "name": "_days",
                  "type": "tuple[]"
                }
              ],
              "internalType": "struct Meteosc.Days[]",
              "name": "_stations",
              "type": "tuple[]"
            }
          ],
          "internalType": "struct Meteosc.Global[]",
          "name": "",
          "type": "tuple[]"
        }
      ],
      "stateMutability": "view",
      "type": "function",
      "constant": true
    },
    {
      "inputs": [
        {
          "internalType": "string",
          "name": "name",
          "type": "string"
        },
        {
          "internalType": "string",
          "name": "fullName",
          "type": "string"
        },
        {
          "internalType": "string",
          "name": "data",
          "type": "string"
        }
      ],
      "name": "verifyData",
      "outputs": [
        {
          "internalType": "bool",
          "name": "",
          "type": "bool"
        }
      ],
      "stateMutability": "view",
      "type": "function",
      "constant": true
    }
  ],
  "bytecode": "0x60806040523480156200001157600080fd5b50620001306040518060400160405280600581526020017f4153495f310000000000000000000000000000000000000000000000000000008152506040518060400160405280600381526020017f41534900000000000000000000000000000000000000000000000000000000008152506040518060400160405280600a81526020017f66697372745f64617461000000000000000000000000000000000000000000008152506040518060400160405280600a81526020017f323032322f31312f3130000000000000000000000000000000000000000000008152506040518060400160405280600a81526020017f323032322f31322f313000000000000000000000000000000000000000000000815250620010da60201b60201c565b6200024e6040518060400160405280600581526020017f4153495f310000000000000000000000000000000000000000000000000000008152506040518060400160405280600381526020017f41534900000000000000000000000000000000000000000000000000000000008152506040518060400160405280600b81526020017f7365636f6e645f646174610000000000000000000000000000000000000000008152506040518060400160405280600a81526020017f323032322f31312f3130000000000000000000000000000000000000000000008152506040518060400160405280600a81526020017f323032322f31322f313000000000000000000000000000000000000000000000815250620010da60201b60201c565b6200036c6040518060400160405280600581526020017f4153495f310000000000000000000000000000000000000000000000000000008152506040518060400160405280600381526020017f41534900000000000000000000000000000000000000000000000000000000008152506040518060400160405280600a81526020017f74686972645f64617461000000000000000000000000000000000000000000008152506040518060400160405280600a81526020017f323032322f31312f3130000000000000000000000000000000000000000000008152506040518060400160405280600a81526020017f323032322f31322f313000000000000000000000000000000000000000000000815250620010da60201b60201c565b6200048a6040518060400160405280600581526020017f4153495f320000000000000000000000000000000000000000000000000000008152506040518060400160405280600381526020017f41534900000000000000000000000000000000000000000000000000000000008152506040518060400160405280600a81526020017f66697372745f64617461000000000000000000000000000000000000000000008152506040518060400160405280600a81526020017f323032322f32302f3131000000000000000000000000000000000000000000008152506040518060400160405280600a81526020017f323032322f32352f313100000000000000000000000000000000000000000000815250620010da60201b60201c565b620005a86040518060400160405280600581526020017f4153495f320000000000000000000000000000000000000000000000000000008152506040518060400160405280600381526020017f41534900000000000000000000000000000000000000000000000000000000008152506040518060400160405280600b81526020017f7365636f6e645f646174610000000000000000000000000000000000000000008152506040518060400160405280600a81526020017f323032322f32302f3131000000000000000000000000000000000000000000008152506040518060400160405280600a81526020017f323032322f32352f313100000000000000000000000000000000000000000000815250620010da60201b60201c565b620006c66040518060400160405280600581526020017f4153495f330000000000000000000000000000000000000000000000000000008152506040518060400160405280600381526020017f41534900000000000000000000000000000000000000000000000000000000008152506040518060400160405280600a81526020017f66697372745f64617461000000000000000000000000000000000000000000008152506040518060400160405280600a81526020017f323032322f32352f3131000000000000000000000000000000000000000000008152506040518060400160405280600a81526020017f323032322f30352f313200000000000000000000000000000000000000000000815250620010da60201b60201c565b620007e46040518060400160405280600581526020017f4153495f340000000000000000000000000000000000000000000000000000008152506040518060400160405280600381526020017f41534900000000000000000000000000000000000000000000000000000000008152506040518060400160405280600a81526020017f66697372745f64617461000000000000000000000000000000000000000000008152506040518060400160405280600a81526020017f323032322f30352f3132000000000000000000000000000000000000000000008152506040518060400160405280600a81526020017f323032322f31352f313200000000000000000000000000000000000000000000815250620010da60201b60201c565b620009026040518060400160405280600581526020017f4153495f350000000000000000000000000000000000000000000000000000008152506040518060400160405280600381526020017f41534900000000000000000000000000000000000000000000000000000000008152506040518060400160405280600a81526020017f66697372745f64617461000000000000000000000000000000000000000000008152506040518060400160405280600a81526020017f323032322f31352f3132000000000000000000000000000000000000000000008152506040518060400160405280600a81526020017f323032332f31302f303100000000000000000000000000000000000000000000815250620010da60201b60201c565b62000a206040518060400160405280600581526020017f4d454e5f310000000000000000000000000000000000000000000000000000008152506040518060400160405280600381526020017f4d454e00000000000000000000000000000000000000000000000000000000008152506040518060400160405280600a81526020017f66697372745f64617461000000000000000000000000000000000000000000008152506040518060400160405280600a81526020017f323032312f31312f3130000000000000000000000000000000000000000000008152506040518060400160405280600a81526020017f323032312f31322f313000000000000000000000000000000000000000000000815250620010da60201b60201c565b62000b3e6040518060400160405280600581526020017f4d454e5f320000000000000000000000000000000000000000000000000000008152506040518060400160405280600381526020017f4d454e00000000000000000000000000000000000000000000000000000000008152506040518060400160405280600a81526020017f66697372745f64617461000000000000000000000000000000000000000000008152506040518060400160405280600a81526020017f323032312f31322f3130000000000000000000000000000000000000000000008152506040518060400160405280600a81526020017f323032312f31342f313000000000000000000000000000000000000000000000815250620010da60201b60201c565b62000c5c6040518060400160405280600581526020017f4158415f310000000000000000000000000000000000000000000000000000008152506040518060400160405280600381526020017f41584100000000000000000000000000000000000000000000000000000000008152506040518060400160405280600a81526020017f66697372745f64617461000000000000000000000000000000000000000000008152506040518060400160405280600a81526020017f323032312f31322f3130000000000000000000000000000000000000000000008152506040518060400160405280600a81526020017f323032312f31342f313000000000000000000000000000000000000000000000815250620010da60201b60201c565b62000d7a6040518060400160405280600581526020017f4158415f310000000000000000000000000000000000000000000000000000008152506040518060400160405280600381526020017f41584100000000000000000000000000000000000000000000000000000000008152506040518060400160405280600b81526020017f7365636f6e645f646174610000000000000000000000000000000000000000008152506040518060400160405280600a81526020017f323032312f31322f3130000000000000000000000000000000000000000000008152506040518060400160405280600a81526020017f323032312f31342f313000000000000000000000000000000000000000000000815250620010da60201b60201c565b62000e986040518060400160405280600581526020017f4158415f320000000000000000000000000000000000000000000000000000008152506040518060400160405280600381526020017f41584100000000000000000000000000000000000000000000000000000000008152506040518060400160405280600a81526020017f66697372745f64617461000000000000000000000000000000000000000000008152506040518060400160405280600a81526020017f323032312f31342f3130000000000000000000000000000000000000000000008152506040518060400160405280600a81526020017f323032322f31342f303100000000000000000000000000000000000000000000815250620010da60201b60201c565b62000fb66040518060400160405280600581526020017f4158415f320000000000000000000000000000000000000000000000000000008152506040518060400160405280600381526020017f41584100000000000000000000000000000000000000000000000000000000008152506040518060400160405280600b81526020017f7365636f6e645f646174610000000000000000000000000000000000000000008152506040518060400160405280600a81526020017f323032312f31342f3130000000000000000000000000000000000000000000008152506040518060400160405280600a81526020017f323032322f31342f303100000000000000000000000000000000000000000000815250620010da60201b60201c565b620010d46040518060400160405280600581526020017f4158415f320000000000000000000000000000000000000000000000000000008152506040518060400160405280600381526020017f41584100000000000000000000000000000000000000000000000000000000008152506040518060400160405280600a81526020017f74686972645f64617461000000000000000000000000000000000000000000008152506040518060400160405280600a81526020017f323032312f31342f3130000000000000000000000000000000000000000000008152506040518060400160405280600a81526020017f323032322f31342f303100000000000000000000000000000000000000000000815250620010da60201b60201c565b62001511565b620010e462001331565b858160000181905250848160200181905250828160600181905250818160800181905250838160400181905250600060018660405162001125919062001493565b90815260200160405180910390208054905014156200117d576002859080600181540180825580915050600190039060005260206000200160009091909190915090805190602001906200117b92919062001360565b505b6000808660405162001190919062001493565b908152602001604051809103902087604051620011ae919062001493565b90815260200160405180910390208054905014156200122457600185604051620011d9919062001493565b9081526020016040518091039020869080600181540180825580915050600190039060005260206000200160009091909190915090805190602001906200122292919062001360565b505b60008560405162001236919062001493565b90815260200160405180910390208660405162001254919062001493565b90815260200160405180910390208190806001815401808255809150506001900390600052602060002090600502016000909190919091506000820151816000019080519060200190620012aa92919062001360565b506020820151816001019080519060200190620012c992919062001360565b506040820151816002019080519060200190620012e892919062001360565b5060608201518160030190805190602001906200130792919062001360565b5060808201518160040190805190602001906200132692919062001360565b505050505050505050565b6040518060a0016040528060608152602001606081526020016060815260200160608152602001606081525090565b8280546200136e90620014db565b90600052602060002090601f016020900481019282620013925760008555620013de565b82601f10620013ad57805160ff1916838001178555620013de565b82800160010185558215620013de579182015b82811115620013dd578251825591602001919060010190620013c0565b5b509050620013ed9190620013f1565b5090565b5b808211156200140c576000816000905550600101620013f2565b5090565b600081519050919050565b600081905092915050565b60005b838110156200144657808201518184015260208101905062001429565b8381111562001456576000848401525b50505050565b6000620014698262001410565b6200147581856200141b565b93506200148781856020860162001426565b80840191505092915050565b6000620014a182846200145c565b915081905092915050565b7f4e487b7100000000000000000000000000000000000000000000000000000000600052602260045260246000fd5b60006002820490506001821680620014f457607f821691505b602082108114156200150b576200150a620014ac565b5b50919050565b61249380620015216000396000f3fe608060405234801561001057600080fd5b50600436106100935760003560e01c80638568385f116100665780638568385f1461014457806391548ace14610174578063dfcc443d146101a4578063ee9125bc146101d8578063ff24b5d51461020857610093565b80630a7fac44146100985780633cb37b48146100b4578063473e8106146100e4578063517ceb0614610114575b600080fd5b6100b260048036038101906100ad91906117ef565b610226565b005b6100ce60048036038101906100c991906118f6565b61045f565b6040516100db9190611b4a565b60405180910390f35b6100fe60048036038101906100f99190611ba2565b6107d3565b60405161010b9190611c48565b60405180910390f35b61012e60048036038101906101299190611c6a565b6108a2565b60405161013b9190611c48565b60405180910390f35b61015e60048036038101906101599190611c97565b61094e565b60405161016b9190611d59565b60405180910390f35b61018e600480360381019061018991906118f6565b6109cc565b60405161019b9190611e06565b60405180910390f35b6101be60048036038101906101b99190611e28565b610dae565b6040516101cf959493929190611eb3565b60405180910390f35b6101f260048036038101906101ed9190611f29565b6110e2565b6040516101ff91906120fe565b60405180910390f35b610210611364565b60405161021d91906122ac565b60405180910390f35b61022e61158f565b858160000181905250848160200181905250828160600181905250818160800181905250838160400181905250600060018660405161026d919061230a565b90815260200160405180910390208054905014156102c2576002859080600181540180825580915050600190039060005260206000200160009091909190915090805190602001906102c09291906115be565b505b600080866040516102d3919061230a565b9081526020016040518091039020876040516102ef919061230a565b908152602001604051809103902080549050141561036057600185604051610317919061230a565b90815260200160405180910390208690806001815401808255809150506001900390600052602060002001600090919091909150908051906020019061035e9291906115be565b505b600085604051610370919061230a565b90815260200160405180910390208660405161038c919061230a565b908152602001604051809103902081908060018154018082558091505060019003906000526020600020906005020160009091909190915060008201518160000190805190602001906103e09291906115be565b5060208201518160010190805190602001906103fd9291906115be565b50604082015181600201908051906020019061041a9291906115be565b5060608201518160030190805190602001906104379291906115be565b5060808201518160040190805190602001906104549291906115be565b505050505050505050565b6060600083604051610471919061230a565b90815260200160405180910390208260405161048d919061230a565b9081526020016040518091039020805480602002602001604051908101604052809291908181526020016000905b828210156107c757838290600052602060002090600502016040518060a00160405290816000820180546104ee90612350565b80601f016020809104026020016040519081016040528092919081815260200182805461051a90612350565b80156105675780601f1061053c57610100808354040283529160200191610567565b820191906000526020600020905b81548152906001019060200180831161054a57829003601f168201915b5050505050815260200160018201805461058090612350565b80601f01602080910402602001604051908101604052809291908181526020018280546105ac90612350565b80156105f95780601f106105ce576101008083540402835291602001916105f9565b820191906000526020600020905b8154815290600101906020018083116105dc57829003601f168201915b5050505050815260200160028201805461061290612350565b80601f016020809104026020016040519081016040528092919081815260200182805461063e90612350565b801561068b5780601f106106605761010080835404028352916020019161068b565b820191906000526020600020905b81548152906001019060200180831161066e57829003601f168201915b505050505081526020016003820180546106a490612350565b80601f01602080910402602001604051908101604052809291908181526020018280546106d090612350565b801561071d5780601f106106f25761010080835404028352916020019161071d565b820191906000526020600020905b81548152906001019060200180831161070057829003601f168201915b5050505050815260200160048201805461073690612350565b80601f016020809104026020016040519081016040528092919081815260200182805461076290612350565b80156107af5780601f10610784576101008083540402835291602001916107af565b820191906000526020600020905b81548152906001019060200180831161079257829003601f168201915b505050505081525050815260200190600101906104bb565b50505050905092915050565b600182805160208101820180518482526020830160208501208183528095505050505050818154811061080557600080fd5b9060005260206000200160009150915050805461082190612350565b80601f016020809104026020016040519081016040528092919081815260200182805461084d90612350565b801561089a5780601f1061086f5761010080835404028352916020019161089a565b820191906000526020600020905b81548152906001019060200180831161087d57829003601f168201915b505050505081565b600281815481106108b257600080fd5b9060005260206000200160009150905080546108cd90612350565b80601f01602080910402602001604051908101604052809291908181526020018280546108f990612350565b80156109465780601f1061091b57610100808354040283529160200191610946565b820191906000526020600020905b81548152906001019060200180831161092957829003601f168201915b505050505081565b60008061095b85856109cc565b90508260405160200161096e919061230a565b604051602081830303815290604052805190602001208160400151604051602001610999919061230a565b6040516020818303038152906040528051906020012014156109bf5760019150506109c5565b60009150505b9392505050565b6109d461158f565b600080846040516109e5919061230a565b908152602001604051809103902083604051610a01919061230a565b90815260200160405180910390208054905014610da757600083604051610a28919061230a565b908152602001604051809103902082604051610a44919061230a565b90815260200160405180910390206001600085604051610a64919061230a565b908152602001604051809103902084604051610a80919061230a565b908152602001604051809103902080549050610a9c91906123b1565b81548110610aad57610aac6123e5565b5b90600052602060002090600502016040518060a0016040529081600082018054610ad690612350565b80601f0160208091040260200160405190810160405280929190818152602001828054610b0290612350565b8015610b4f5780601f10610b2457610100808354040283529160200191610b4f565b820191906000526020600020905b815481529060010190602001808311610b3257829003601f168201915b50505050508152602001600182018054610b6890612350565b80601f0160208091040260200160405190810160405280929190818152602001828054610b9490612350565b8015610be15780601f10610bb657610100808354040283529160200191610be1565b820191906000526020600020905b815481529060010190602001808311610bc457829003601f168201915b50505050508152602001600282018054610bfa90612350565b80601f0160208091040260200160405190810160405280929190818152602001828054610c2690612350565b8015610c735780601f10610c4857610100808354040283529160200191610c73565b820191906000526020600020905b815481529060010190602001808311610c5657829003601f168201915b50505050508152602001600382018054610c8c90612350565b80601f0160208091040260200160405190810160405280929190818152602001828054610cb890612350565b8015610d055780601f10610cda57610100808354040283529160200191610d05565b820191906000526020600020905b815481529060010190602001808311610ce857829003601f168201915b50505050508152602001600482018054610d1e90612350565b80601f0160208091040260200160405190810160405280929190818152602001828054610d4a90612350565b8015610d975780601f10610d6c57610100808354040283529160200191610d97565b820191906000526020600020905b815481529060010190602001808311610d7a57829003601f168201915b5050505050815250509050610da8565b5b92915050565b600083805160208101820180518482526020830160208501208183528095505050505050828051602081018201805184825260208301602085012081835280955050505050508181548110610e0257600080fd5b90600052602060002090600502016000925092505050806000018054610e2790612350565b80601f0160208091040260200160405190810160405280929190818152602001828054610e5390612350565b8015610ea05780601f10610e7557610100808354040283529160200191610ea0565b820191906000526020600020905b815481529060010190602001808311610e8357829003601f168201915b505050505090806001018054610eb590612350565b80601f0160208091040260200160405190810160405280929190818152602001828054610ee190612350565b8015610f2e5780601f10610f0357610100808354040283529160200191610f2e565b820191906000526020600020905b815481529060010190602001808311610f1157829003601f168201915b505050505090806002018054610f4390612350565b80601f0160208091040260200160405190810160405280929190818152602001828054610f6f90612350565b8015610fbc5780601f10610f9157610100808354040283529160200191610fbc565b820191906000526020600020905b815481529060010190602001808311610f9f57829003601f168201915b505050505090806003018054610fd190612350565b80601f0160208091040260200160405190810160405280929190818152602001828054610ffd90612350565b801561104a5780601f1061101f5761010080835404028352916020019161104a565b820191906000526020600020905b81548152906001019060200180831161102d57829003601f168201915b50505050509080600401805461105f90612350565b80601f016020809104026020016040519081016040528092919081815260200182805461108b90612350565b80156110d85780601f106110ad576101008083540402835291602001916110d8565b820191906000526020600020905b8154815290600101906020018083116110bb57829003601f168201915b5050505050905085565b606060006001836040516110f6919061230a565b908152602001604051809103902080549050905060008167ffffffffffffffff811115611126576111256116c4565b5b60405190808252806020026020018201604052801561115f57816020015b61114c611644565b8152602001906001900390816111445790505b50905060005b8281101561135957600061123b86600188604051611183919061230a565b908152602001604051809103902084815481106111a3576111a26123e5565b5b9060005260206000200180546111b890612350565b80601f01602080910402602001604051908101604052809291908181526020018280546111e490612350565b80156112315780601f1061120657610100808354040283529160200191611231565b820191906000526020600020905b81548152906001019060200180831161121457829003601f168201915b505050505061045f565b905080838381518110611251576112506123e5565b5b602002602001015160200181905250600186604051611270919061230a565b908152602001604051809103902082815481106112905761128f6123e5565b5b9060005260206000200180546112a590612350565b80601f01602080910402602001604051908101604052809291908181526020018280546112d190612350565b801561131e5780601f106112f35761010080835404028352916020019161131e565b820191906000526020600020905b81548152906001019060200180831161130157829003601f168201915b5050505050838381518110611336576113356123e5565b5b60200260200101516000018190525050808061135190612414565b915050611165565b508092505050919050565b60606000600280549050905060008167ffffffffffffffff81111561138c5761138b6116c4565b5b6040519080825280602002602001820160405280156113c557816020015b6113b261165e565b8152602001906001900390816113aa5790505b50905060005b82811015611586576000611484600283815481106113ec576113eb6123e5565b5b90600052602060002001805461140190612350565b80601f016020809104026020016040519081016040528092919081815260200182805461142d90612350565b801561147a5780601f1061144f5761010080835404028352916020019161147a565b820191906000526020600020905b81548152906001019060200180831161145d57829003601f168201915b50505050506110e2565b90508083838151811061149a576114996123e5565b5b602002602001015160200181905250600282815481106114bd576114bc6123e5565b5b9060005260206000200180546114d290612350565b80601f01602080910402602001604051908101604052809291908181526020018280546114fe90612350565b801561154b5780601f106115205761010080835404028352916020019161154b565b820191906000526020600020905b81548152906001019060200180831161152e57829003601f168201915b5050505050838381518110611563576115626123e5565b5b60200260200101516000018190525050808061157e90612414565b9150506113cb565b50809250505090565b6040518060a0016040528060608152602001606081526020016060815260200160608152602001606081525090565b8280546115ca90612350565b90600052602060002090601f0160209004810192826115ec5760008555611633565b82601f1061160557805160ff1916838001178555611633565b82800160010185558215611633579182015b82811115611632578251825591602001919060010190611617565b5b5090506116409190611678565b5090565b604051806040016040528060608152602001606081525090565b604051806040016040528060608152602001606081525090565b5b80821115611691576000816000905550600101611679565b5090565b6000604051905090565b600080fd5b600080fd5b600080fd5b600080fd5b6000601f19601f8301169050919050565b7f4e487b7100000000000000000000000000000000000000000000000000000000600052604160045260246000fd5b6116fc826116b3565b810181811067ffffffffffffffff8211171561171b5761171a6116c4565b5b80604052505050565b600061172e611695565b905061173a82826116f3565b919050565b600067ffffffffffffffff82111561175a576117596116c4565b5b611763826116b3565b9050602081019050919050565b82818337600083830152505050565b600061179261178d8461173f565b611724565b9050828152602081018484840111156117ae576117ad6116ae565b5b6117b9848285611770565b509392505050565b600082601f8301126117d6576117d56116a9565b5b81356117e684826020860161177f565b91505092915050565b600080600080600060a0868803121561180b5761180a61169f565b5b600086013567ffffffffffffffff811115611829576118286116a4565b5b611835888289016117c1565b955050602086013567ffffffffffffffff811115611856576118556116a4565b5b611862888289016117c1565b945050604086013567ffffffffffffffff811115611883576118826116a4565b5b61188f888289016117c1565b935050606086013567ffffffffffffffff8111156118b0576118af6116a4565b5b6118bc888289016117c1565b925050608086013567ffffffffffffffff8111156118dd576118dc6116a4565b5b6118e9888289016117c1565b9150509295509295909350565b6000806040838503121561190d5761190c61169f565b5b600083013567ffffffffffffffff81111561192b5761192a6116a4565b5b611937858286016117c1565b925050602083013567ffffffffffffffff811115611958576119576116a4565b5b611964858286016117c1565b9150509250929050565b600081519050919050565b600082825260208201905092915050565b6000819050602082019050919050565b600081519050919050565b600082825260208201905092915050565b60005b838110156119d45780820151818401526020810190506119b9565b838111156119e3576000848401525b50505050565b60006119f48261199a565b6119fe81856119a5565b9350611a0e8185602086016119b6565b611a17816116b3565b840191505092915050565b600060a0830160008301518482036000860152611a3f82826119e9565b91505060208301518482036020860152611a5982826119e9565b91505060408301518482036040860152611a7382826119e9565b91505060608301518482036060860152611a8d82826119e9565b91505060808301518482036080860152611aa782826119e9565b9150508091505092915050565b6000611ac08383611a22565b905092915050565b6000602082019050919050565b6000611ae08261196e565b611aea8185611979565b935083602082028501611afc8561198a565b8060005b85811015611b385784840389528151611b198582611ab4565b9450611b2483611ac8565b925060208a01995050600181019050611b00565b50829750879550505050505092915050565b60006020820190508181036000830152611b648184611ad5565b905092915050565b6000819050919050565b611b7f81611b6c565b8114611b8a57600080fd5b50565b600081359050611b9c81611b76565b92915050565b60008060408385031215611bb957611bb861169f565b5b600083013567ffffffffffffffff811115611bd757611bd66116a4565b5b611be3858286016117c1565b9250506020611bf485828601611b8d565b9150509250929050565b600082825260208201905092915050565b6000611c1a8261199a565b611c248185611bfe565b9350611c348185602086016119b6565b611c3d816116b3565b840191505092915050565b60006020820190508181036000830152611c628184611c0f565b905092915050565b600060208284031215611c8057611c7f61169f565b5b6000611c8e84828501611b8d565b91505092915050565b600080600060608486031215611cb057611caf61169f565b5b600084013567ffffffffffffffff811115611cce57611ccd6116a4565b5b611cda868287016117c1565b935050602084013567ffffffffffffffff811115611cfb57611cfa6116a4565b5b611d07868287016117c1565b925050604084013567ffffffffffffffff811115611d2857611d276116a4565b5b611d34868287016117c1565b9150509250925092565b60008115159050919050565b611d5381611d3e565b82525050565b6000602082019050611d6e6000830184611d4a565b92915050565b600060a0830160008301518482036000860152611d9182826119e9565b91505060208301518482036020860152611dab82826119e9565b91505060408301518482036040860152611dc582826119e9565b91505060608301518482036060860152611ddf82826119e9565b91505060808301518482036080860152611df982826119e9565b9150508091505092915050565b60006020820190508181036000830152611e208184611d74565b905092915050565b600080600060608486031215611e4157611e4061169f565b5b600084013567ffffffffffffffff811115611e5f57611e5e6116a4565b5b611e6b868287016117c1565b935050602084013567ffffffffffffffff811115611e8c57611e8b6116a4565b5b611e98868287016117c1565b9250506040611ea986828701611b8d565b9150509250925092565b600060a0820190508181036000830152611ecd8188611c0f565b90508181036020830152611ee18187611c0f565b90508181036040830152611ef58186611c0f565b90508181036060830152611f098185611c0f565b90508181036080830152611f1d8184611c0f565b90509695505050505050565b600060208284031215611f3f57611f3e61169f565b5b600082013567ffffffffffffffff811115611f5d57611f5c6116a4565b5b611f69848285016117c1565b91505092915050565b600081519050919050565b600082825260208201905092915050565b6000819050602082019050919050565b600082825260208201905092915050565b6000611fba8261196e565b611fc48185611f9e565b935083602082028501611fd68561198a565b8060005b858110156120125784840389528151611ff38582611ab4565b9450611ffe83611ac8565b925060208a01995050600181019050611fda565b50829750879550505050505092915050565b6000604083016000830151848203600086015261204182826119e9565b9150506020830151848203602086015261205b8282611faf565b9150508091505092915050565b60006120748383612024565b905092915050565b6000602082019050919050565b600061209482611f72565b61209e8185611f7d565b9350836020820285016120b085611f8e565b8060005b858110156120ec57848403895281516120cd8582612068565b94506120d88361207c565b925060208a019950506001810190506120b4565b50829750879550505050505092915050565b600060208201905081810360008301526121188184612089565b905092915050565b600081519050919050565b600082825260208201905092915050565b6000819050602082019050919050565b600082825260208201905092915050565b600061216882611f72565b612172818561214c565b93508360208202850161218485611f8e565b8060005b858110156121c057848403895281516121a18582612068565b94506121ac8361207c565b925060208a01995050600181019050612188565b50829750879550505050505092915050565b600060408301600083015184820360008601526121ef82826119e9565b91505060208301518482036020860152612209828261215d565b9150508091505092915050565b600061222283836121d2565b905092915050565b6000602082019050919050565b600061224282612120565b61224c818561212b565b93508360208202850161225e8561213c565b8060005b8581101561229a578484038952815161227b8582612216565b94506122868361222a565b925060208a01995050600181019050612262565b50829750879550505050505092915050565b600060208201905081810360008301526122c68184612237565b905092915050565b600081905092915050565b60006122e48261199a565b6122ee81856122ce565b93506122fe8185602086016119b6565b80840191505092915050565b600061231682846122d9565b915081905092915050565b7f4e487b7100000000000000000000000000000000000000000000000000000000600052602260045260246000fd5b6000600282049050600182168061236857607f821691505b6020821081141561237c5761237b612321565b5b50919050565b7f4e487b7100000000000000000000000000000000000000000000000000000000600052601160045260246000fd5b60006123bc82611b6c565b91506123c783611b6c565b9250828210156123da576123d9612382565b5b828203905092915050565b7f4e487b7100000000000000000000000000000000000000000000000000000000600052603260045260246000fd5b600061241f82611b6c565b91507fffffffffffffffffffffffffffffffffffffffffffffffffffffffffffffffff82141561245257612451612382565b5b60018201905091905056fea2646970667358221220961dd8b7a70375866560273b289924b5e0b51be212f15c512d0c1c4cde0269f364736f6c634300080c0033",
  "immutableReferences": {},
  "source": "// SPDX-License-Identifier: MIT\npragma solidity >=0.4.22 <0.9.0;\n\ncontract Meteosc {\n\n    struct File {\n        string _fullName;\n        string _name;\n        string _data;\n        string _firstMesure;\n        string _lastMesure;\n    }\n\n    struct Days {\n        string _fullName;\n        File[] _days;\n    }\n\n    struct Global {\n        string _name;\n        Days[] _stations;\n    }\n\n    //kathe name ASIGONIA_20221010 antistixoi se allo struct file\n    mapping(string => mapping(string => File[])) public file;\n    mapping(string => string[]) public info;\n    string[] public stationNames;\n\n    constructor () {\n        addFile(\"ASI_1\", \"ASI\", \"fisrt_data\", \"2022/11/10\", \"2022/12/10\");\n        addFile(\"ASI_1\", \"ASI\", \"second_data\", \"2022/11/10\", \"2022/12/10\");\n        addFile(\"ASI_1\", \"ASI\", \"third_data\", \"2022/11/10\", \"2022/12/10\");\n        addFile(\"ASI_2\", \"ASI\", \"fisrt_data\", \"2022/20/11\", \"2022/25/11\");\n        addFile(\"ASI_2\", \"ASI\", \"second_data\", \"2022/20/11\", \"2022/25/11\");\n        addFile(\"ASI_3\", \"ASI\", \"fisrt_data\", \"2022/25/11\", \"2022/05/12\");\n        addFile(\"ASI_4\", \"ASI\", \"fisrt_data\", \"2022/05/12\", \"2022/15/12\");\n        addFile(\"ASI_5\", \"ASI\", \"fisrt_data\", \"2022/15/12\", \"2023/10/01\");\n        addFile(\"MEN_1\", \"MEN\", \"fisrt_data\", \"2021/11/10\", \"2021/12/10\");\n        addFile(\"MEN_2\", \"MEN\", \"fisrt_data\", \"2021/12/10\", \"2021/14/10\");\n        addFile(\"AXA_1\", \"AXA\", \"fisrt_data\", \"2021/12/10\", \"2021/14/10\");\n        addFile(\"AXA_1\", \"AXA\", \"second_data\", \"2021/12/10\", \"2021/14/10\");\n        addFile(\"AXA_2\", \"AXA\", \"fisrt_data\", \"2021/14/10\", \"2022/14/01\");\n        addFile(\"AXA_2\", \"AXA\", \"second_data\", \"2021/14/10\", \"2022/14/01\");\n        addFile(\"AXA_2\", \"AXA\", \"third_data\", \"2021/14/10\", \"2022/14/01\");\n    }\n\n    function addFile(\n        string memory fullName, \n        string memory name, \n        string memory data, \n        string memory firstMesure, \n        string memory lastMesure\n    )public {\n        File memory curfile;\n\n        curfile._fullName = fullName;\n        curfile._name = name;\n        curfile._firstMesure = firstMesure;\n        curfile._lastMesure = lastMesure;\n        curfile._data = data;\n\n        if (info[name].length == 0) {\n            stationNames.push(name);\n        }\n        \n        if (file[name][fullName].length == 0) {\n            info[name].push(fullName);\n        }\n\n        file[name][fullName].push(curfile);\n    }\n\n    function getFile(\n        string memory name,\n        string memory fullName\n    )public view returns (File memory) {\n        if (file[name][fullName].length != 0) \n            return file[name][fullName][file[name][fullName].length - 1];\n    }\n\n    function getFileVertions(\n        string memory name,\n        string memory fullName\n    )public view returns (File[] memory) {\n        return file[name][fullName];\n    }\n\n    function getFileHistory(\n        string memory name\n    )public view returns (Days[] memory) {\n        uint lenInfo = info[name].length;\n        Days[] memory curD = new Days[](lenInfo);\n        for (uint i=0; i<lenInfo; i++) {\n            File[] memory curFile = getFileVertions(name, info[name][i]);\n            curD[i]._days = curFile;\n            curD[i]._fullName = info[name][i];\n        }\n        return curD;\n    }\n\n    function getAllFiles(\n    )public view returns (Global[] memory) {\n        uint lenSt = stationNames.length;\n        Global[] memory curS = new Global[](lenSt);\n        for (uint i=0; i<lenSt; i++) {\n            Days[] memory curFile = getFileHistory(stationNames[i]);\n            curS[i]._stations = curFile;\n            curS[i]._name = stationNames[i];\n        }\n        return curS;\n    }\n\n    function verifyData(\n        string memory name,\n        string memory fullName,\n        string memory data\n    )public view returns (bool) {\n        File memory selectedFile = getFile(name, fullName);\n        if (keccak256(abi.encodePacked(selectedFile._data)) == keccak256(abi.encodePacked(data))) {\n            return true;\n        }else {\n            return false;\n        }\n    }\n\n}\n",
  "sourcePath": "/home/gio/blockchain/firstdapp/contracts/Meteosc.sol",
  "compiler": {
    "name": "solc",
    "version": "0.8.12+commit.f00d7308.Emscripten.clang"
  },
  "schemaVersion": "3.4.6",
  "updatedAt": "2022-04-18T10:20:38.274Z",
  "networkType": "ethereum",
  "devdoc": {
    "kind": "dev",
    "methods": {},
    "version": 1
  },
  "userdoc": {
    "kind": "user",
    "methods": {},
    "version": 1
  }
}