{
  "contractName": "Meteosc",
  "abi": [
    {
      "inputs": [],
      "stateMutability": "nonpayable",
      "type": "constructor"
    },
    {
      "inputs": [
        {
          "internalType": "string",
          "name": "",
          "type": "string"
        },
        {
          "internalType": "string",
          "name": "",
          "type": "string"
        },
        {
          "internalType": "uint256",
          "name": "",
          "type": "uint256"
        }
      ],
      "name": "file",
      "outputs": [
        {
          "internalType": "string",
          "name": "_name",
          "type": "string"
        },
        {
          "internalType": "string",
          "name": "_fullName",
          "type": "string"
        },
        {
          "internalType": "string",
          "name": "_firstMesure",
          "type": "string"
        },
        {
          "internalType": "string",
          "name": "_lastMesure",
          "type": "string"
        },
        {
          "internalType": "string",
          "name": "_data",
          "type": "string"
        }
      ],
      "stateMutability": "view",
      "type": "function",
      "constant": true
    },
    {
      "inputs": [
        {
          "internalType": "string",
          "name": "",
          "type": "string"
        },
        {
          "internalType": "uint256",
          "name": "",
          "type": "uint256"
        }
      ],
      "name": "info",
      "outputs": [
        {
          "internalType": "string",
          "name": "",
          "type": "string"
        }
      ],
      "stateMutability": "view",
      "type": "function",
      "constant": true
    },
    {
      "inputs": [
        {
          "internalType": "uint256",
          "name": "",
          "type": "uint256"
        }
      ],
      "name": "stationNames",
      "outputs": [
        {
          "internalType": "string",
          "name": "",
          "type": "string"
        }
      ],
      "stateMutability": "view",
      "type": "function",
      "constant": true
    },
    {
      "inputs": [
        {
          "internalType": "address",
          "name": "",
          "type": "address"
        }
      ],
      "name": "stations",
      "outputs": [
        {
          "internalType": "string",
          "name": "_stationName",
          "type": "string"
        }
      ],
      "stateMutability": "view",
      "type": "function",
      "constant": true
    },
    {
      "inputs": [
        {
          "internalType": "string",
          "name": "fullName",
          "type": "string"
        },
        {
          "internalType": "string",
          "name": "name",
          "type": "string"
        },
        {
          "internalType": "string",
          "name": "data",
          "type": "string"
        },
        {
          "internalType": "string",
          "name": "firstMesure",
          "type": "string"
        },
        {
          "internalType": "string",
          "name": "lastMesure",
          "type": "string"
        }
      ],
      "name": "addFile",
      "outputs": [],
      "stateMutability": "nonpayable",
      "type": "function"
    },
    {
      "inputs": [],
      "name": "getStationInfo",
      "outputs": [
        {
          "internalType": "string",
          "name": "",
          "type": "string"
        }
      ],
      "stateMutability": "view",
      "type": "function",
      "constant": true
    },
    {
      "inputs": [
        {
          "internalType": "string",
          "name": "name",
          "type": "string"
        },
        {
          "internalType": "string",
          "name": "fullName",
          "type": "string"
        }
      ],
      "name": "getFile",
      "outputs": [
        {
          "components": [
            {
              "internalType": "string",
              "name": "_name",
              "type": "string"
            },
            {
              "internalType": "string",
              "name": "_fullName",
              "type": "string"
            },
            {
              "internalType": "string",
              "name": "_firstMesure",
              "type": "string"
            },
            {
              "internalType": "string",
              "name": "_lastMesure",
              "type": "string"
            },
            {
              "internalType": "string",
              "name": "_data",
              "type": "string"
            }
          ],
          "internalType": "struct Meteosc.File",
          "name": "",
          "type": "tuple"
        }
      ],
      "stateMutability": "view",
      "type": "function",
      "constant": true
    },
    {
      "inputs": [
        {
          "internalType": "string",
          "name": "name",
          "type": "string"
        },
        {
          "internalType": "string",
          "name": "fullName",
          "type": "string"
        }
      ],
      "name": "getFileVertions",
      "outputs": [
        {
          "components": [
            {
              "internalType": "string",
              "name": "_name",
              "type": "string"
            },
            {
              "internalType": "string",
              "name": "_fullName",
              "type": "string"
            },
            {
              "internalType": "string",
              "name": "_firstMesure",
              "type": "string"
            },
            {
              "internalType": "string",
              "name": "_lastMesure",
              "type": "string"
            },
            {
              "internalType": "string",
              "name": "_data",
              "type": "string"
            }
          ],
          "internalType": "struct Meteosc.File[]",
          "name": "",
          "type": "tuple[]"
        }
      ],
      "stateMutability": "view",
      "type": "function",
      "constant": true
    },
    {
      "inputs": [
        {
          "internalType": "string",
          "name": "name",
          "type": "string"
        }
      ],
      "name": "getFileHistory",
      "outputs": [
        {
          "components": [
            {
              "internalType": "string",
              "name": "_fullName",
              "type": "string"
            },
            {
              "components": [
                {
                  "internalType": "string",
                  "name": "_name",
                  "type": "string"
                },
                {
                  "internalType": "string",
                  "name": "_fullName",
                  "type": "string"
                },
                {
                  "internalType": "string",
                  "name": "_firstMesure",
                  "type": "string"
                },
                {
                  "internalType": "string",
                  "name": "_lastMesure",
                  "type": "string"
                },
                {
                  "internalType": "string",
                  "name": "_data",
                  "type": "string"
                }
              ],
              "internalType": "struct Meteosc.File[]",
              "name": "_days",
              "type": "tuple[]"
            }
          ],
          "internalType": "struct Meteosc.Days[]",
          "name": "",
          "type": "tuple[]"
        }
      ],
      "stateMutability": "view",
      "type": "function",
      "constant": true
    },
    {
      "inputs": [],
      "name": "getAllFiles",
      "outputs": [
        {
          "components": [
            {
              "internalType": "string",
              "name": "_name",
              "type": "string"
            },
            {
              "components": [
                {
                  "internalType": "string",
                  "name": "_fullName",
                  "type": "string"
                },
                {
                  "components": [
                    {
                      "internalType": "string",
                      "name": "_name",
                      "type": "string"
                    },
                    {
                      "internalType": "string",
                      "name": "_fullName",
                      "type": "string"
                    },
                    {
                      "internalType": "string",
                      "name": "_firstMesure",
                      "type": "string"
                    },
                    {
                      "internalType": "string",
                      "name": "_lastMesure",
                      "type": "string"
                    },
                    {
                      "internalType": "string",
                      "name": "_data",
                      "type": "string"
                    }
                  ],
                  "internalType": "struct Meteosc.File[]",
                  "name": "_days",
                  "type": "tuple[]"
                }
              ],
              "internalType": "struct Meteosc.Days[]",
              "name": "_stations",
              "type": "tuple[]"
            }
          ],
          "internalType": "struct Meteosc.Global[]",
          "name": "",
          "type": "tuple[]"
        }
      ],
      "stateMutability": "view",
      "type": "function",
      "constant": true
    }
  ],
  "bytecode": "0x60806040523480156200001157600080fd5b50620001306040518060400160405280600581526020017f4153495f310000000000000000000000000000000000000000000000000000008152506040518060400160405280600381526020017f41534900000000000000000000000000000000000000000000000000000000008152506040518060400160405280600a81526020017f323032322f31312f3130000000000000000000000000000000000000000000008152506040518060400160405280600a81526020017f323032322f31322f3130000000000000000000000000000000000000000000008152506040518060400160405280600a81526020017f66697372745f6461746100000000000000000000000000000000000000000000815250620010da60201b60201c565b6200024e6040518060400160405280600581526020017f4153495f310000000000000000000000000000000000000000000000000000008152506040518060400160405280600381526020017f41534900000000000000000000000000000000000000000000000000000000008152506040518060400160405280600a81526020017f323032322f31312f3130000000000000000000000000000000000000000000008152506040518060400160405280600a81526020017f323032322f31322f3130000000000000000000000000000000000000000000008152506040518060400160405280600b81526020017f7365636f6e645f64617461000000000000000000000000000000000000000000815250620010da60201b60201c565b6200036c6040518060400160405280600581526020017f4153495f310000000000000000000000000000000000000000000000000000008152506040518060400160405280600381526020017f41534900000000000000000000000000000000000000000000000000000000008152506040518060400160405280600a81526020017f323032322f31312f3130000000000000000000000000000000000000000000008152506040518060400160405280600a81526020017f323032322f31322f3130000000000000000000000000000000000000000000008152506040518060400160405280600a81526020017f74686972645f6461746100000000000000000000000000000000000000000000815250620010da60201b60201c565b6200048a6040518060400160405280600581526020017f4153495f320000000000000000000000000000000000000000000000000000008152506040518060400160405280600381526020017f41534900000000000000000000000000000000000000000000000000000000008152506040518060400160405280600a81526020017f323032322f32302f3131000000000000000000000000000000000000000000008152506040518060400160405280600a81526020017f323032322f32352f3131000000000000000000000000000000000000000000008152506040518060400160405280600a81526020017f66697273745f6461746100000000000000000000000000000000000000000000815250620010da60201b60201c565b620005a86040518060400160405280600581526020017f4153495f320000000000000000000000000000000000000000000000000000008152506040518060400160405280600381526020017f41534900000000000000000000000000000000000000000000000000000000008152506040518060400160405280600a81526020017f323032322f32302f3131000000000000000000000000000000000000000000008152506040518060400160405280600a81526020017f323032322f32352f3131000000000000000000000000000000000000000000008152506040518060400160405280600b81526020017f7365636f6e645f64617461000000000000000000000000000000000000000000815250620010da60201b60201c565b620006c66040518060400160405280600581526020017f4153495f330000000000000000000000000000000000000000000000000000008152506040518060400160405280600381526020017f41534900000000000000000000000000000000000000000000000000000000008152506040518060400160405280600a81526020017f323032322f32352f3131000000000000000000000000000000000000000000008152506040518060400160405280600a81526020017f323032322f30352f3132000000000000000000000000000000000000000000008152506040518060400160405280600a81526020017f66697273745f6461746100000000000000000000000000000000000000000000815250620010da60201b60201c565b620007e46040518060400160405280600581526020017f4153495f340000000000000000000000000000000000000000000000000000008152506040518060400160405280600381526020017f41534900000000000000000000000000000000000000000000000000000000008152506040518060400160405280600a81526020017f323032322f30352f3132000000000000000000000000000000000000000000008152506040518060400160405280600a81526020017f323032322f31352f3132000000000000000000000000000000000000000000008152506040518060400160405280600a81526020017f66697273745f6461746100000000000000000000000000000000000000000000815250620010da60201b60201c565b620009026040518060400160405280600581526020017f4153495f350000000000000000000000000000000000000000000000000000008152506040518060400160405280600381526020017f41534900000000000000000000000000000000000000000000000000000000008152506040518060400160405280600a81526020017f323032322f31352f3132000000000000000000000000000000000000000000008152506040518060400160405280600a81526020017f323032332f31302f3031000000000000000000000000000000000000000000008152506040518060400160405280600a81526020017f66697273745f6461746100000000000000000000000000000000000000000000815250620010da60201b60201c565b62000a206040518060400160405280600581526020017f4d454e5f310000000000000000000000000000000000000000000000000000008152506040518060400160405280600381526020017f4d454e00000000000000000000000000000000000000000000000000000000008152506040518060400160405280600a81526020017f323032312f31312f3130000000000000000000000000000000000000000000008152506040518060400160405280600a81526020017f323032312f31322f3130000000000000000000000000000000000000000000008152506040518060400160405280600a81526020017f66697372745f6461746100000000000000000000000000000000000000000000815250620010da60201b60201c565b62000b3e6040518060400160405280600581526020017f4d454e5f320000000000000000000000000000000000000000000000000000008152506040518060400160405280600381526020017f4d454e00000000000000000000000000000000000000000000000000000000008152506040518060400160405280600a81526020017f323032312f31322f3130000000000000000000000000000000000000000000008152506040518060400160405280600a81526020017f323032312f31342f3130000000000000000000000000000000000000000000008152506040518060400160405280600a81526020017f66697273745f6461746100000000000000000000000000000000000000000000815250620010da60201b60201c565b62000c5c6040518060400160405280600581526020017f4158415f310000000000000000000000000000000000000000000000000000008152506040518060400160405280600381526020017f41584100000000000000000000000000000000000000000000000000000000008152506040518060400160405280600a81526020017f323032312f31322f3130000000000000000000000000000000000000000000008152506040518060400160405280600a81526020017f323032312f31342f3130000000000000000000000000000000000000000000008152506040518060400160405280600a81526020017f66697273745f6461746100000000000000000000000000000000000000000000815250620010da60201b60201c565b62000d7a6040518060400160405280600581526020017f4158415f310000000000000000000000000000000000000000000000000000008152506040518060400160405280600381526020017f41584100000000000000000000000000000000000000000000000000000000008152506040518060400160405280600a81526020017f323032312f31322f3130000000000000000000000000000000000000000000008152506040518060400160405280600a81526020017f323032312f31342f3130000000000000000000000000000000000000000000008152506040518060400160405280600b81526020017f7365636f6e645f64617461000000000000000000000000000000000000000000815250620010da60201b60201c565b62000e986040518060400160405280600581526020017f4158415f320000000000000000000000000000000000000000000000000000008152506040518060400160405280600381526020017f41584100000000000000000000000000000000000000000000000000000000008152506040518060400160405280600a81526020017f323032312f31342f3130000000000000000000000000000000000000000000008152506040518060400160405280600a81526020017f323032322f31342f3031000000000000000000000000000000000000000000008152506040518060400160405280600a81526020017f66697273745f6461746100000000000000000000000000000000000000000000815250620010da60201b60201c565b62000fb66040518060400160405280600581526020017f4158415f320000000000000000000000000000000000000000000000000000008152506040518060400160405280600381526020017f41584100000000000000000000000000000000000000000000000000000000008152506040518060400160405280600a81526020017f323032312f31342f3130000000000000000000000000000000000000000000008152506040518060400160405280600a81526020017f323032322f31342f3031000000000000000000000000000000000000000000008152506040518060400160405280600b81526020017f7365636f6e645f64617461000000000000000000000000000000000000000000815250620010da60201b60201c565b620010d46040518060400160405280600581526020017f4158415f320000000000000000000000000000000000000000000000000000008152506040518060400160405280600381526020017f41584100000000000000000000000000000000000000000000000000000000008152506040518060400160405280600a81526020017f323032312f31342f3130000000000000000000000000000000000000000000008152506040518060400160405280600a81526020017f323032322f31342f3031000000000000000000000000000000000000000000008152506040518060400160405280600a81526020017f74686972645f6461746100000000000000000000000000000000000000000000815250620010da60201b60201c565b6200156a565b620010e46200138a565b8581602001819052508481600001819052508281604001819052508181606001819052508381608001819052506000600186604051620011259190620014ec565b9081526020016040518091039020805490501415620011d6576003859080600181540180825580915050600190039060005260206000200160009091909190915090805190602001906200117b929190620013b9565b5084600260003373ffffffffffffffffffffffffffffffffffffffff1673ffffffffffffffffffffffffffffffffffffffff1681526020019081526020016000206000019080519060200190620011d4929190620013b9565b505b60008086604051620011e99190620014ec565b908152602001604051809103902087604051620012079190620014ec565b90815260200160405180910390208054905014156200127d57600185604051620012329190620014ec565b9081526020016040518091039020869080600181540180825580915050600190039060005260206000200160009091909190915090805190602001906200127b929190620013b9565b505b6000856040516200128f9190620014ec565b908152602001604051809103902086604051620012ad9190620014ec565b9081526020016040518091039020819080600181540180825580915050600190039060005260206000209060050201600090919091909150600082015181600001908051906020019062001303929190620013b9565b50602082015181600101908051906020019062001322929190620013b9565b50604082015181600201908051906020019062001341929190620013b9565b50606082015181600301908051906020019062001360929190620013b9565b5060808201518160040190805190602001906200137f929190620013b9565b505050505050505050565b6040518060a0016040528060608152602001606081526020016060815260200160608152602001606081525090565b828054620013c79062001534565b90600052602060002090601f016020900481019282620013eb576000855562001437565b82601f106200140657805160ff191683800117855562001437565b8280016001018555821562001437579182015b828111156200143657825182559160200191906001019062001419565b5b5090506200144691906200144a565b5090565b5b80821115620014655760008160009055506001016200144b565b5090565b600081519050919050565b600081905092915050565b60005b838110156200149f57808201518184015260208101905062001482565b83811115620014af576000848401525b50505050565b6000620014c28262001469565b620014ce818562001474565b9350620014e08185602086016200147f565b80840191505092915050565b6000620014fa8284620014b5565b915081905092915050565b7f4e487b7100000000000000000000000000000000000000000000000000000000600052602260045260246000fd5b600060028204905060018216806200154d57607f821691505b6020821081141562001564576200156362001505565b5b50919050565b612571806200157a6000396000f3fe608060405234801561001057600080fd5b506004361061009e5760003560e01c80639488060311610066578063948806031461017f578063c7fb4f121461019d578063dfcc443d146101cd578063ee9125bc14610201578063ff24b5d5146102315761009e565b80630a7fac44146100a35780633cb37b48146100bf578063473e8106146100ef578063517ceb061461011f57806391548ace1461014f575b600080fd5b6100bd60048036038101906100b8919061191f565b61024f565b005b6100d960048036038101906100d49190611a26565b6104df565b6040516100e69190611c7a565b60405180910390f35b61010960048036038101906101049190611cd2565b610853565b6040516101169190611d78565b60405180910390f35b61013960048036038101906101349190611d9a565b610922565b6040516101469190611d78565b60405180910390f35b61016960048036038101906101649190611a26565b6109ce565b6040516101769190611e59565b60405180910390f35b610187610d66565b6040516101949190611d78565b60405180910390f35b6101b760048036038101906101b29190611ed9565b610e38565b6040516101c49190611d78565b60405180910390f35b6101e760048036038101906101e29190611f06565b610ede565b6040516101f8959493929190611f91565b60405180910390f35b61021b60048036038101906102169190612007565b611212565b60405161022891906121dc565b60405180910390f35b610239611494565b604051610246919061238a565b60405180910390f35b6102576116bf565b858160200181905250848160000181905250828160400181905250818160600181905250838160800181905250600060018660405161029691906123e8565b9081526020016040518091039020805490501415610342576003859080600181540180825580915050600190039060005260206000200160009091909190915090805190602001906102e99291906116ee565b5084600260003373ffffffffffffffffffffffffffffffffffffffff1673ffffffffffffffffffffffffffffffffffffffff16815260200190815260200160002060000190805190602001906103409291906116ee565b505b6000808660405161035391906123e8565b90815260200160405180910390208760405161036f91906123e8565b90815260200160405180910390208054905014156103e05760018560405161039791906123e8565b9081526020016040518091039020869080600181540180825580915050600190039060005260206000200160009091909190915090805190602001906103de9291906116ee565b505b6000856040516103f091906123e8565b90815260200160405180910390208660405161040c91906123e8565b908152602001604051809103902081908060018154018082558091505060019003906000526020600020906005020160009091909190915060008201518160000190805190602001906104609291906116ee565b50602082015181600101908051906020019061047d9291906116ee565b50604082015181600201908051906020019061049a9291906116ee565b5060608201518160030190805190602001906104b79291906116ee565b5060808201518160040190805190602001906104d49291906116ee565b505050505050505050565b60606000836040516104f191906123e8565b90815260200160405180910390208260405161050d91906123e8565b9081526020016040518091039020805480602002602001604051908101604052809291908181526020016000905b8282101561084757838290600052602060002090600502016040518060a001604052908160008201805461056e9061242e565b80601f016020809104026020016040519081016040528092919081815260200182805461059a9061242e565b80156105e75780601f106105bc576101008083540402835291602001916105e7565b820191906000526020600020905b8154815290600101906020018083116105ca57829003601f168201915b505050505081526020016001820180546106009061242e565b80601f016020809104026020016040519081016040528092919081815260200182805461062c9061242e565b80156106795780601f1061064e57610100808354040283529160200191610679565b820191906000526020600020905b81548152906001019060200180831161065c57829003601f168201915b505050505081526020016002820180546106929061242e565b80601f01602080910402602001604051908101604052809291908181526020018280546106be9061242e565b801561070b5780601f106106e05761010080835404028352916020019161070b565b820191906000526020600020905b8154815290600101906020018083116106ee57829003601f168201915b505050505081526020016003820180546107249061242e565b80601f01602080910402602001604051908101604052809291908181526020018280546107509061242e565b801561079d5780601f106107725761010080835404028352916020019161079d565b820191906000526020600020905b81548152906001019060200180831161078057829003601f168201915b505050505081526020016004820180546107b69061242e565b80601f01602080910402602001604051908101604052809291908181526020018280546107e29061242e565b801561082f5780601f106108045761010080835404028352916020019161082f565b820191906000526020600020905b81548152906001019060200180831161081257829003601f168201915b5050505050815250508152602001906001019061053b565b50505050905092915050565b600182805160208101820180518482526020830160208501208183528095505050505050818154811061088557600080fd5b906000526020600020016000915091505080546108a19061242e565b80601f01602080910402602001604051908101604052809291908181526020018280546108cd9061242e565b801561091a5780601f106108ef5761010080835404028352916020019161091a565b820191906000526020600020905b8154815290600101906020018083116108fd57829003601f168201915b505050505081565b6003818154811061093257600080fd5b90600052602060002001600091509050805461094d9061242e565b80601f01602080910402602001604051908101604052809291908181526020018280546109799061242e565b80156109c65780601f1061099b576101008083540402835291602001916109c6565b820191906000526020600020905b8154815290600101906020018083116109a957829003601f168201915b505050505081565b6109d66116bf565b6000836040516109e691906123e8565b908152602001604051809103902082604051610a0291906123e8565b90815260200160405180910390206001600085604051610a2291906123e8565b908152602001604051809103902084604051610a3e91906123e8565b908152602001604051809103902080549050610a5a919061248f565b81548110610a6b57610a6a6124c3565b5b90600052602060002090600502016040518060a0016040529081600082018054610a949061242e565b80601f0160208091040260200160405190810160405280929190818152602001828054610ac09061242e565b8015610b0d5780601f10610ae257610100808354040283529160200191610b0d565b820191906000526020600020905b815481529060010190602001808311610af057829003601f168201915b50505050508152602001600182018054610b269061242e565b80601f0160208091040260200160405190810160405280929190818152602001828054610b529061242e565b8015610b9f5780601f10610b7457610100808354040283529160200191610b9f565b820191906000526020600020905b815481529060010190602001808311610b8257829003601f168201915b50505050508152602001600282018054610bb89061242e565b80601f0160208091040260200160405190810160405280929190818152602001828054610be49061242e565b8015610c315780601f10610c0657610100808354040283529160200191610c31565b820191906000526020600020905b815481529060010190602001808311610c1457829003601f168201915b50505050508152602001600382018054610c4a9061242e565b80601f0160208091040260200160405190810160405280929190818152602001828054610c769061242e565b8015610cc35780601f10610c9857610100808354040283529160200191610cc3565b820191906000526020600020905b815481529060010190602001808311610ca657829003601f168201915b50505050508152602001600482018054610cdc9061242e565b80601f0160208091040260200160405190810160405280929190818152602001828054610d089061242e565b8015610d555780601f10610d2a57610100808354040283529160200191610d55565b820191906000526020600020905b815481529060010190602001808311610d3857829003601f168201915b505050505081525050905092915050565b6060600260003373ffffffffffffffffffffffffffffffffffffffff1673ffffffffffffffffffffffffffffffffffffffff1681526020019081526020016000206000018054610db59061242e565b80601f0160208091040260200160405190810160405280929190818152602001828054610de19061242e565b8015610e2e5780601f10610e0357610100808354040283529160200191610e2e565b820191906000526020600020905b815481529060010190602001808311610e1157829003601f168201915b5050505050905090565b6002602052806000526040600020600091509050806000018054610e5b9061242e565b80601f0160208091040260200160405190810160405280929190818152602001828054610e879061242e565b8015610ed45780601f10610ea957610100808354040283529160200191610ed4565b820191906000526020600020905b815481529060010190602001808311610eb757829003601f168201915b5050505050905081565b600083805160208101820180518482526020830160208501208183528095505050505050828051602081018201805184825260208301602085012081835280955050505050508181548110610f3257600080fd5b90600052602060002090600502016000925092505050806000018054610f579061242e565b80601f0160208091040260200160405190810160405280929190818152602001828054610f839061242e565b8015610fd05780601f10610fa557610100808354040283529160200191610fd0565b820191906000526020600020905b815481529060010190602001808311610fb357829003601f168201915b505050505090806001018054610fe59061242e565b80601f01602080910402602001604051908101604052809291908181526020018280546110119061242e565b801561105e5780601f106110335761010080835404028352916020019161105e565b820191906000526020600020905b81548152906001019060200180831161104157829003601f168201915b5050505050908060020180546110739061242e565b80601f016020809104026020016040519081016040528092919081815260200182805461109f9061242e565b80156110ec5780601f106110c1576101008083540402835291602001916110ec565b820191906000526020600020905b8154815290600101906020018083116110cf57829003601f168201915b5050505050908060030180546111019061242e565b80601f016020809104026020016040519081016040528092919081815260200182805461112d9061242e565b801561117a5780601f1061114f5761010080835404028352916020019161117a565b820191906000526020600020905b81548152906001019060200180831161115d57829003601f168201915b50505050509080600401805461118f9061242e565b80601f01602080910402602001604051908101604052809291908181526020018280546111bb9061242e565b80156112085780601f106111dd57610100808354040283529160200191611208565b820191906000526020600020905b8154815290600101906020018083116111eb57829003601f168201915b5050505050905085565b6060600060018360405161122691906123e8565b908152602001604051809103902080549050905060008167ffffffffffffffff811115611256576112556117f4565b5b60405190808252806020026020018201604052801561128f57816020015b61127c611774565b8152602001906001900390816112745790505b50905060005b8281101561148957600061136b866001886040516112b391906123e8565b908152602001604051809103902084815481106112d3576112d26124c3565b5b9060005260206000200180546112e89061242e565b80601f01602080910402602001604051908101604052809291908181526020018280546113149061242e565b80156113615780601f1061133657610100808354040283529160200191611361565b820191906000526020600020905b81548152906001019060200180831161134457829003601f168201915b50505050506104df565b905080838381518110611381576113806124c3565b5b6020026020010151602001819052506001866040516113a091906123e8565b908152602001604051809103902082815481106113c0576113bf6124c3565b5b9060005260206000200180546113d59061242e565b80601f01602080910402602001604051908101604052809291908181526020018280546114019061242e565b801561144e5780601f106114235761010080835404028352916020019161144e565b820191906000526020600020905b81548152906001019060200180831161143157829003601f168201915b5050505050838381518110611466576114656124c3565b5b602002602001015160000181905250508080611481906124f2565b915050611295565b508092505050919050565b60606000600380549050905060008167ffffffffffffffff8111156114bc576114bb6117f4565b5b6040519080825280602002602001820160405280156114f557816020015b6114e261178e565b8152602001906001900390816114da5790505b50905060005b828110156116b65760006115b46003838154811061151c5761151b6124c3565b5b9060005260206000200180546115319061242e565b80601f016020809104026020016040519081016040528092919081815260200182805461155d9061242e565b80156115aa5780601f1061157f576101008083540402835291602001916115aa565b820191906000526020600020905b81548152906001019060200180831161158d57829003601f168201915b5050505050611212565b9050808383815181106115ca576115c96124c3565b5b602002602001015160200181905250600382815481106115ed576115ec6124c3565b5b9060005260206000200180546116029061242e565b80601f016020809104026020016040519081016040528092919081815260200182805461162e9061242e565b801561167b5780601f106116505761010080835404028352916020019161167b565b820191906000526020600020905b81548152906001019060200180831161165e57829003601f168201915b5050505050838381518110611693576116926124c3565b5b6020026020010151600001819052505080806116ae906124f2565b9150506114fb565b50809250505090565b6040518060a0016040528060608152602001606081526020016060815260200160608152602001606081525090565b8280546116fa9061242e565b90600052602060002090601f01602090048101928261171c5760008555611763565b82601f1061173557805160ff1916838001178555611763565b82800160010185558215611763579182015b82811115611762578251825591602001919060010190611747565b5b50905061177091906117a8565b5090565b604051806040016040528060608152602001606081525090565b604051806040016040528060608152602001606081525090565b5b808211156117c15760008160009055506001016117a9565b5090565b6000604051905090565b600080fd5b600080fd5b600080fd5b600080fd5b6000601f19601f8301169050919050565b7f4e487b7100000000000000000000000000000000000000000000000000000000600052604160045260246000fd5b61182c826117e3565b810181811067ffffffffffffffff8211171561184b5761184a6117f4565b5b80604052505050565b600061185e6117c5565b905061186a8282611823565b919050565b600067ffffffffffffffff82111561188a576118896117f4565b5b611893826117e3565b9050602081019050919050565b82818337600083830152505050565b60006118c26118bd8461186f565b611854565b9050828152602081018484840111156118de576118dd6117de565b5b6118e98482856118a0565b509392505050565b600082601f830112611906576119056117d9565b5b81356119168482602086016118af565b91505092915050565b600080600080600060a0868803121561193b5761193a6117cf565b5b600086013567ffffffffffffffff811115611959576119586117d4565b5b611965888289016118f1565b955050602086013567ffffffffffffffff811115611986576119856117d4565b5b611992888289016118f1565b945050604086013567ffffffffffffffff8111156119b3576119b26117d4565b5b6119bf888289016118f1565b935050606086013567ffffffffffffffff8111156119e0576119df6117d4565b5b6119ec888289016118f1565b925050608086013567ffffffffffffffff811115611a0d57611a0c6117d4565b5b611a19888289016118f1565b9150509295509295909350565b60008060408385031215611a3d57611a3c6117cf565b5b600083013567ffffffffffffffff811115611a5b57611a5a6117d4565b5b611a67858286016118f1565b925050602083013567ffffffffffffffff811115611a8857611a876117d4565b5b611a94858286016118f1565b9150509250929050565b600081519050919050565b600082825260208201905092915050565b6000819050602082019050919050565b600081519050919050565b600082825260208201905092915050565b60005b83811015611b04578082015181840152602081019050611ae9565b83811115611b13576000848401525b50505050565b6000611b2482611aca565b611b2e8185611ad5565b9350611b3e818560208601611ae6565b611b47816117e3565b840191505092915050565b600060a0830160008301518482036000860152611b6f8282611b19565b91505060208301518482036020860152611b898282611b19565b91505060408301518482036040860152611ba38282611b19565b91505060608301518482036060860152611bbd8282611b19565b91505060808301518482036080860152611bd78282611b19565b9150508091505092915050565b6000611bf08383611b52565b905092915050565b6000602082019050919050565b6000611c1082611a9e565b611c1a8185611aa9565b935083602082028501611c2c85611aba565b8060005b85811015611c685784840389528151611c498582611be4565b9450611c5483611bf8565b925060208a01995050600181019050611c30565b50829750879550505050505092915050565b60006020820190508181036000830152611c948184611c05565b905092915050565b6000819050919050565b611caf81611c9c565b8114611cba57600080fd5b50565b600081359050611ccc81611ca6565b92915050565b60008060408385031215611ce957611ce86117cf565b5b600083013567ffffffffffffffff811115611d0757611d066117d4565b5b611d13858286016118f1565b9250506020611d2485828601611cbd565b9150509250929050565b600082825260208201905092915050565b6000611d4a82611aca565b611d548185611d2e565b9350611d64818560208601611ae6565b611d6d816117e3565b840191505092915050565b60006020820190508181036000830152611d928184611d3f565b905092915050565b600060208284031215611db057611daf6117cf565b5b6000611dbe84828501611cbd565b91505092915050565b600060a0830160008301518482036000860152611de48282611b19565b91505060208301518482036020860152611dfe8282611b19565b91505060408301518482036040860152611e188282611b19565b91505060608301518482036060860152611e328282611b19565b91505060808301518482036080860152611e4c8282611b19565b9150508091505092915050565b60006020820190508181036000830152611e738184611dc7565b905092915050565b600073ffffffffffffffffffffffffffffffffffffffff82169050919050565b6000611ea682611e7b565b9050919050565b611eb681611e9b565b8114611ec157600080fd5b50565b600081359050611ed381611ead565b92915050565b600060208284031215611eef57611eee6117cf565b5b6000611efd84828501611ec4565b91505092915050565b600080600060608486031215611f1f57611f1e6117cf565b5b600084013567ffffffffffffffff811115611f3d57611f3c6117d4565b5b611f49868287016118f1565b935050602084013567ffffffffffffffff811115611f6a57611f696117d4565b5b611f76868287016118f1565b9250506040611f8786828701611cbd565b9150509250925092565b600060a0820190508181036000830152611fab8188611d3f565b90508181036020830152611fbf8187611d3f565b90508181036040830152611fd38186611d3f565b90508181036060830152611fe78185611d3f565b90508181036080830152611ffb8184611d3f565b90509695505050505050565b60006020828403121561201d5761201c6117cf565b5b600082013567ffffffffffffffff81111561203b5761203a6117d4565b5b612047848285016118f1565b91505092915050565b600081519050919050565b600082825260208201905092915050565b6000819050602082019050919050565b600082825260208201905092915050565b600061209882611a9e565b6120a2818561207c565b9350836020820285016120b485611aba565b8060005b858110156120f057848403895281516120d18582611be4565b94506120dc83611bf8565b925060208a019950506001810190506120b8565b50829750879550505050505092915050565b6000604083016000830151848203600086015261211f8282611b19565b91505060208301518482036020860152612139828261208d565b9150508091505092915050565b60006121528383612102565b905092915050565b6000602082019050919050565b600061217282612050565b61217c818561205b565b93508360208202850161218e8561206c565b8060005b858110156121ca57848403895281516121ab8582612146565b94506121b68361215a565b925060208a01995050600181019050612192565b50829750879550505050505092915050565b600060208201905081810360008301526121f68184612167565b905092915050565b600081519050919050565b600082825260208201905092915050565b6000819050602082019050919050565b600082825260208201905092915050565b600061224682612050565b612250818561222a565b9350836020820285016122628561206c565b8060005b8581101561229e578484038952815161227f8582612146565b945061228a8361215a565b925060208a01995050600181019050612266565b50829750879550505050505092915050565b600060408301600083015184820360008601526122cd8282611b19565b915050602083015184820360208601526122e7828261223b565b9150508091505092915050565b600061230083836122b0565b905092915050565b6000602082019050919050565b6000612320826121fe565b61232a8185612209565b93508360208202850161233c8561221a565b8060005b85811015612378578484038952815161235985826122f4565b945061236483612308565b925060208a01995050600181019050612340565b50829750879550505050505092915050565b600060208201905081810360008301526123a48184612315565b905092915050565b600081905092915050565b60006123c282611aca565b6123cc81856123ac565b93506123dc818560208601611ae6565b80840191505092915050565b60006123f482846123b7565b915081905092915050565b7f4e487b7100000000000000000000000000000000000000000000000000000000600052602260045260246000fd5b6000600282049050600182168061244657607f821691505b6020821081141561245a576124596123ff565b5b50919050565b7f4e487b7100000000000000000000000000000000000000000000000000000000600052601160045260246000fd5b600061249a82611c9c565b91506124a583611c9c565b9250828210156124b8576124b7612460565b5b828203905092915050565b7f4e487b7100000000000000000000000000000000000000000000000000000000600052603260045260246000fd5b60006124fd82611c9c565b91507fffffffffffffffffffffffffffffffffffffffffffffffffffffffffffffffff8214156125305761252f612460565b5b60018201905091905056fea26469706673582212204ed3a8df575c9003cb60d7cc8a2454addabade59d67d8c912c5e6c0887c3204c64736f6c634300080c0033",
  "immutableReferences": {},
  "source": "// SPDX-License-Identifier: MIT\npragma solidity >=0.4.22 <0.9.0;\n\ncontract Meteosc {\n\n    struct File {\n        string _name;\n        string _fullName;\n        string _firstMesure;\n        string _lastMesure;\n        string _data;\n    }\n\n    struct Days {\n        string _fullName;\n        File[] _days;\n    }\n\n    struct Global {\n        string _name;\n        Days[] _stations;\n    }\n\n    struct Stations {\n        string _stationName;\n    }\n\n    //kathe name ASIGONIA_20221010 antistixoi se allo struct file\n    mapping(string => mapping(string => File[])) public file;\n    mapping(string => string[]) public info;\n    mapping(address => Stations) public stations;\n    string[] public stationNames;\n\n    constructor () {\n        addFile(\"ASI_1\", \"ASI\", \"2022/11/10\", \"2022/12/10\", \"fisrt_data\");\n        addFile(\"ASI_1\", \"ASI\", \"2022/11/10\", \"2022/12/10\", \"second_data\");\n        addFile(\"ASI_1\", \"ASI\", \"2022/11/10\", \"2022/12/10\", \"third_data\");\n        addFile(\"ASI_2\", \"ASI\", \"2022/20/11\", \"2022/25/11\", \"first_data\");\n        addFile(\"ASI_2\", \"ASI\", \"2022/20/11\", \"2022/25/11\", \"second_data\");\n        addFile(\"ASI_3\", \"ASI\", \"2022/25/11\", \"2022/05/12\", \"first_data\");\n        addFile(\"ASI_4\", \"ASI\", \"2022/05/12\", \"2022/15/12\", \"first_data\");\n        addFile(\"ASI_5\", \"ASI\", \"2022/15/12\", \"2023/10/01\", \"first_data\");\n        addFile(\"MEN_1\", \"MEN\", \"2021/11/10\", \"2021/12/10\", \"fisrt_data\");\n        addFile(\"MEN_2\", \"MEN\", \"2021/12/10\", \"2021/14/10\", \"first_data\");\n        addFile(\"AXA_1\", \"AXA\", \"2021/12/10\", \"2021/14/10\", \"first_data\");\n        addFile(\"AXA_1\", \"AXA\", \"2021/12/10\", \"2021/14/10\", \"second_data\");\n        addFile(\"AXA_2\", \"AXA\", \"2021/14/10\", \"2022/14/01\", \"first_data\");\n        addFile(\"AXA_2\", \"AXA\", \"2021/14/10\", \"2022/14/01\", \"second_data\");\n        addFile(\"AXA_2\", \"AXA\", \"2021/14/10\", \"2022/14/01\", \"third_data\");\n    }\n\n    function addFile(\n        string memory fullName, \n        string memory name, \n        string memory data, \n        string memory firstMesure, \n        string memory lastMesure\n    )public {\n        File memory curfile;\n\n        curfile._fullName = fullName;\n        curfile._name = name;\n        curfile._firstMesure = firstMesure;\n        curfile._lastMesure = lastMesure;\n        curfile._data = data;\n\n        if (info[name].length == 0) {\n            stationNames.push(name);\n            stations[msg.sender]._stationName = name;\n        }\n        \n        if (file[name][fullName].length == 0) {\n            info[name].push(fullName);\n        }\n\n        file[name][fullName].push(curfile);\n    }\n\n    function getStationInfo(\n    )public view returns (string memory) {\n        return stations[msg.sender]._stationName;\n    }\n\n    function getFile(\n        string memory name,\n        string memory fullName\n    )public view returns (File memory) {\n        return file[name][fullName][file[name][fullName].length - 1];\n    }\n\n    function getFileVertions(\n        string memory name,\n        string memory fullName\n    )public view returns (File[] memory) {\n        return file[name][fullName];\n    }\n\n    function getFileHistory(\n        string memory name\n    )public view returns (Days[] memory) {\n        uint lenInfo = info[name].length;\n        Days[] memory curD = new Days[](lenInfo);\n        for (uint i=0; i<lenInfo; i++) {\n            File[] memory curFile = getFileVertions(name, info[name][i]);\n            curD[i]._days = curFile;\n            curD[i]._fullName = info[name][i];\n        }\n        return curD;\n    }\n\n    function getAllFiles(\n    )public view returns (Global[] memory) {\n        uint lenSt = stationNames.length;\n        Global[] memory curS = new Global[](lenSt);\n        for (uint i=0; i<lenSt; i++) {\n            Days[] memory curFile = getFileHistory(stationNames[i]);\n            curS[i]._stations = curFile;\n            curS[i]._name = stationNames[i];\n        }\n        return curS;\n    }\n\n}\n",
  "sourcePath": "/home/gio/blockchain/firstdapp/contracts/Meteosc.sol",
  "compiler": {
    "name": "solc",
    "version": "0.8.12+commit.f00d7308.Emscripten.clang"
  },
  "schemaVersion": "3.4.6",
  "updatedAt": "2022-04-11T14:01:38.440Z",
  "networkType": "ethereum",
  "devdoc": {
    "kind": "dev",
    "methods": {},
    "version": 1
  },
  "userdoc": {
    "kind": "user",
    "methods": {},
    "version": 1
  }
}