{
  "contractName": "Meteosc",
  "abi": [
    {
      "inputs": [
        {
          "internalType": "string",
          "name": "",
          "type": "string"
        },
        {
          "internalType": "string",
          "name": "",
          "type": "string"
        },
        {
          "internalType": "uint256",
          "name": "",
          "type": "uint256"
        }
      ],
      "name": "file",
      "outputs": [
        {
          "internalType": "string",
          "name": "_fullName",
          "type": "string"
        },
        {
          "internalType": "string",
          "name": "_name",
          "type": "string"
        },
        {
          "internalType": "string",
          "name": "_hash",
          "type": "string"
        },
        {
          "internalType": "string",
          "name": "_firstMesure",
          "type": "string"
        },
        {
          "internalType": "string",
          "name": "_lastMesure",
          "type": "string"
        },
        {
          "internalType": "address",
          "name": "_address",
          "type": "address"
        }
      ],
      "stateMutability": "view",
      "type": "function",
      "constant": true
    },
    {
      "inputs": [
        {
          "internalType": "string",
          "name": "",
          "type": "string"
        },
        {
          "internalType": "uint256",
          "name": "",
          "type": "uint256"
        }
      ],
      "name": "info",
      "outputs": [
        {
          "internalType": "string",
          "name": "",
          "type": "string"
        }
      ],
      "stateMutability": "view",
      "type": "function",
      "constant": true
    },
    {
      "inputs": [
        {
          "internalType": "uint256",
          "name": "",
          "type": "uint256"
        }
      ],
      "name": "stationNames",
      "outputs": [
        {
          "internalType": "string",
          "name": "",
          "type": "string"
        }
      ],
      "stateMutability": "view",
      "type": "function",
      "constant": true
    },
    {
      "inputs": [
        {
          "internalType": "string",
          "name": "",
          "type": "string"
        }
      ],
      "name": "station_address",
      "outputs": [
        {
          "internalType": "address",
          "name": "",
          "type": "address"
        }
      ],
      "stateMutability": "view",
      "type": "function",
      "constant": true
    },
    {
      "inputs": [
        {
          "internalType": "string",
          "name": "fullName",
          "type": "string"
        },
        {
          "internalType": "string",
          "name": "name",
          "type": "string"
        },
        {
          "internalType": "string",
          "name": "hashV",
          "type": "string"
        },
        {
          "internalType": "string",
          "name": "firstMesure",
          "type": "string"
        },
        {
          "internalType": "string",
          "name": "lastMesure",
          "type": "string"
        }
      ],
      "name": "addFile",
      "outputs": [],
      "stateMutability": "nonpayable",
      "type": "function"
    },
    {
      "inputs": [
        {
          "internalType": "string",
          "name": "name",
          "type": "string"
        },
        {
          "internalType": "string",
          "name": "fullName",
          "type": "string"
        }
      ],
      "name": "getFile",
      "outputs": [
        {
          "components": [
            {
              "internalType": "string",
              "name": "_fullName",
              "type": "string"
            },
            {
              "internalType": "string",
              "name": "_name",
              "type": "string"
            },
            {
              "internalType": "string",
              "name": "_hash",
              "type": "string"
            },
            {
              "internalType": "string",
              "name": "_firstMesure",
              "type": "string"
            },
            {
              "internalType": "string",
              "name": "_lastMesure",
              "type": "string"
            },
            {
              "internalType": "address",
              "name": "_address",
              "type": "address"
            }
          ],
          "internalType": "struct Meteosc.File",
          "name": "",
          "type": "tuple"
        }
      ],
      "stateMutability": "view",
      "type": "function",
      "constant": true
    },
    {
      "inputs": [
        {
          "internalType": "string",
          "name": "name",
          "type": "string"
        },
        {
          "internalType": "string",
          "name": "fullName",
          "type": "string"
        }
      ],
      "name": "getFileVertions",
      "outputs": [
        {
          "components": [
            {
              "internalType": "string",
              "name": "_fullName",
              "type": "string"
            },
            {
              "internalType": "string",
              "name": "_name",
              "type": "string"
            },
            {
              "internalType": "string",
              "name": "_hash",
              "type": "string"
            },
            {
              "internalType": "string",
              "name": "_firstMesure",
              "type": "string"
            },
            {
              "internalType": "string",
              "name": "_lastMesure",
              "type": "string"
            },
            {
              "internalType": "address",
              "name": "_address",
              "type": "address"
            }
          ],
          "internalType": "struct Meteosc.File[]",
          "name": "",
          "type": "tuple[]"
        }
      ],
      "stateMutability": "view",
      "type": "function",
      "constant": true
    },
    {
      "inputs": [
        {
          "internalType": "string",
          "name": "name",
          "type": "string"
        }
      ],
      "name": "getFileHistory",
      "outputs": [
        {
          "components": [
            {
              "internalType": "string",
              "name": "_fullName",
              "type": "string"
            },
            {
              "components": [
                {
                  "internalType": "string",
                  "name": "_fullName",
                  "type": "string"
                },
                {
                  "internalType": "string",
                  "name": "_name",
                  "type": "string"
                },
                {
                  "internalType": "string",
                  "name": "_hash",
                  "type": "string"
                },
                {
                  "internalType": "string",
                  "name": "_firstMesure",
                  "type": "string"
                },
                {
                  "internalType": "string",
                  "name": "_lastMesure",
                  "type": "string"
                },
                {
                  "internalType": "address",
                  "name": "_address",
                  "type": "address"
                }
              ],
              "internalType": "struct Meteosc.File[]",
              "name": "_days",
              "type": "tuple[]"
            }
          ],
          "internalType": "struct Meteosc.Days[]",
          "name": "",
          "type": "tuple[]"
        }
      ],
      "stateMutability": "view",
      "type": "function",
      "constant": true
    },
    {
      "inputs": [],
      "name": "getAllFiles",
      "outputs": [
        {
          "components": [
            {
              "internalType": "string",
              "name": "_name",
              "type": "string"
            },
            {
              "components": [
                {
                  "internalType": "string",
                  "name": "_fullName",
                  "type": "string"
                },
                {
                  "components": [
                    {
                      "internalType": "string",
                      "name": "_fullName",
                      "type": "string"
                    },
                    {
                      "internalType": "string",
                      "name": "_name",
                      "type": "string"
                    },
                    {
                      "internalType": "string",
                      "name": "_hash",
                      "type": "string"
                    },
                    {
                      "internalType": "string",
                      "name": "_firstMesure",
                      "type": "string"
                    },
                    {
                      "internalType": "string",
                      "name": "_lastMesure",
                      "type": "string"
                    },
                    {
                      "internalType": "address",
                      "name": "_address",
                      "type": "address"
                    }
                  ],
                  "internalType": "struct Meteosc.File[]",
                  "name": "_days",
                  "type": "tuple[]"
                }
              ],
              "internalType": "struct Meteosc.Days[]",
              "name": "_stations",
              "type": "tuple[]"
            }
          ],
          "internalType": "struct Meteosc.Global[]",
          "name": "",
          "type": "tuple[]"
        }
      ],
      "stateMutability": "view",
      "type": "function",
      "constant": true
    },
    {
      "inputs": [
        {
          "internalType": "string",
          "name": "name",
          "type": "string"
        },
        {
          "internalType": "string",
          "name": "fullName",
          "type": "string"
        },
        {
          "internalType": "string",
          "name": "hashV",
          "type": "string"
        }
      ],
      "name": "verifyHash",
      "outputs": [
        {
          "internalType": "bool",
          "name": "",
          "type": "bool"
        }
      ],
      "stateMutability": "view",
      "type": "function",
      "constant": true
    },
    {
      "inputs": [
        {
          "internalType": "string",
          "name": "name",
          "type": "string"
        }
      ],
      "name": "verifyRegion",
      "outputs": [
        {
          "internalType": "bool",
          "name": "",
          "type": "bool"
        }
      ],
      "stateMutability": "view",
      "type": "function",
      "constant": true
    }
  ],
  "bytecode": "0x608060405234801561001057600080fd5b50612884806100206000396000f3fe608060405234801561001057600080fd5b50600436106100a95760003560e01c806391548ace1161007157806391548ace1461018a578063c9b8e74b146101ba578063de1d0397146101ea578063dfcc443d1461021a578063ee9125bc1461024f578063ff24b5d51461027f576100a9565b80630a7fac44146100ae5780633cb37b48146100ca578063473e8106146100fa578063517ceb061461012a5780635c2949f11461015a575b600080fd5b6100c860048036038101906100c39190611b41565b61029d565b005b6100e460048036038101906100df9190611c48565b6105c1565b6040516100f19190611ef0565b60405180910390f35b610114600480360381019061010f9190611f48565b61098b565b6040516101219190611fee565b60405180910390f35b610144600480360381019061013f9190612010565b610a5a565b6040516101519190611fee565b60405180910390f35b610174600480360381019061016f919061203d565b610b06565b60405161018191906120ff565b60405180910390f35b6101a4600480360381019061019f9190611c48565b610b84565b6040516101b191906121bf565b60405180910390f35b6101d460048036038101906101cf91906121e1565b610fbc565b6040516101e19190612239565b60405180910390f35b61020460048036038101906101ff91906121e1565b611005565b60405161021191906120ff565b60405180910390f35b610234600480360381019061022f9190612254565b6110bd565b604051610246969594939291906122df565b60405180910390f35b610269600480360381019061026491906121e1565b611417565b60405161027691906124ef565b60405180910390f35b610287611699565b604051610294919061269d565b60405180910390f35b6102a56118c4565b6102ae85611005565b156105b957858160000181905250848160200181905250828160600181905250818160800181905250838160400181905250338160a0019073ffffffffffffffffffffffffffffffffffffffff16908173ffffffffffffffffffffffffffffffffffffffff16815250503360028660405161032991906126fb565b908152602001604051809103902060006101000a81548173ffffffffffffffffffffffffffffffffffffffff021916908373ffffffffffffffffffffffffffffffffffffffff160217905550600060018660405161038791906126fb565b90815260200160405180910390208054905014156103dc576003859080600181540180825580915050600190039060005260206000200160009091909190915090805190602001906103da929190611910565b505b600080866040516103ed91906126fb565b90815260200160405180910390208760405161040991906126fb565b908152602001604051809103902080549050141561047a5760018560405161043191906126fb565b908152602001604051809103902086908060018154018082558091505060019003906000526020600020016000909190919091509080519060200190610478929190611910565b505b60008560405161048a91906126fb565b9081526020016040518091039020866040516104a691906126fb565b908152602001604051809103902081908060018154018082558091505060019003906000526020600020906006020160009091909190915060008201518160000190805190602001906104fa929190611910565b506020820151816001019080519060200190610517929190611910565b506040820151816002019080519060200190610534929190611910565b506060820151816003019080519060200190610551929190611910565b50608082015181600401908051906020019061056e929190611910565b5060a08201518160050160006101000a81548173ffffffffffffffffffffffffffffffffffffffff021916908373ffffffffffffffffffffffffffffffffffffffff16021790555050505b505050505050565b60606000836040516105d391906126fb565b9081526020016040518091039020826040516105ef91906126fb565b9081526020016040518091039020805480602002602001604051908101604052809291908181526020016000905b8282101561097f57838290600052602060002090600602016040518060c001604052908160008201805461065090612741565b80601f016020809104026020016040519081016040528092919081815260200182805461067c90612741565b80156106c95780601f1061069e576101008083540402835291602001916106c9565b820191906000526020600020905b8154815290600101906020018083116106ac57829003601f168201915b505050505081526020016001820180546106e290612741565b80601f016020809104026020016040519081016040528092919081815260200182805461070e90612741565b801561075b5780601f106107305761010080835404028352916020019161075b565b820191906000526020600020905b81548152906001019060200180831161073e57829003601f168201915b5050505050815260200160028201805461077490612741565b80601f01602080910402602001604051908101604052809291908181526020018280546107a090612741565b80156107ed5780601f106107c2576101008083540402835291602001916107ed565b820191906000526020600020905b8154815290600101906020018083116107d057829003601f168201915b5050505050815260200160038201805461080690612741565b80601f016020809104026020016040519081016040528092919081815260200182805461083290612741565b801561087f5780601f106108545761010080835404028352916020019161087f565b820191906000526020600020905b81548152906001019060200180831161086257829003601f168201915b5050505050815260200160048201805461089890612741565b80601f01602080910402602001604051908101604052809291908181526020018280546108c490612741565b80156109115780601f106108e657610100808354040283529160200191610911565b820191906000526020600020905b8154815290600101906020018083116108f457829003601f168201915b505050505081526020016005820160009054906101000a900473ffffffffffffffffffffffffffffffffffffffff1673ffffffffffffffffffffffffffffffffffffffff1673ffffffffffffffffffffffffffffffffffffffff16815250508152602001906001019061061d565b50505050905092915050565b60018280516020810182018051848252602083016020850120818352809550505050505081815481106109bd57600080fd5b906000526020600020016000915091505080546109d990612741565b80601f0160208091040260200160405190810160405280929190818152602001828054610a0590612741565b8015610a525780601f10610a2757610100808354040283529160200191610a52565b820191906000526020600020905b815481529060010190602001808311610a3557829003601f168201915b505050505081565b60038181548110610a6a57600080fd5b906000526020600020016000915090508054610a8590612741565b80601f0160208091040260200160405190810160405280929190818152602001828054610ab190612741565b8015610afe5780601f10610ad357610100808354040283529160200191610afe565b820191906000526020600020905b815481529060010190602001808311610ae157829003601f168201915b505050505081565b600080610b138585610b84565b905082604051602001610b2691906126fb565b604051602081830303815290604052805190602001208160400151604051602001610b5191906126fb565b604051602081830303815290604052805190602001201415610b77576001915050610b7d565b60009150505b9392505050565b610b8c6118c4565b60008084604051610b9d91906126fb565b908152602001604051809103902083604051610bb991906126fb565b90815260200160405180910390208054905014610fb557600083604051610be091906126fb565b908152602001604051809103902082604051610bfc91906126fb565b90815260200160405180910390206001600085604051610c1c91906126fb565b908152602001604051809103902084604051610c3891906126fb565b908152602001604051809103902080549050610c5491906127a2565b81548110610c6557610c646127d6565b5b90600052602060002090600602016040518060c0016040529081600082018054610c8e90612741565b80601f0160208091040260200160405190810160405280929190818152602001828054610cba90612741565b8015610d075780601f10610cdc57610100808354040283529160200191610d07565b820191906000526020600020905b815481529060010190602001808311610cea57829003601f168201915b50505050508152602001600182018054610d2090612741565b80601f0160208091040260200160405190810160405280929190818152602001828054610d4c90612741565b8015610d995780601f10610d6e57610100808354040283529160200191610d99565b820191906000526020600020905b815481529060010190602001808311610d7c57829003601f168201915b50505050508152602001600282018054610db290612741565b80601f0160208091040260200160405190810160405280929190818152602001828054610dde90612741565b8015610e2b5780601f10610e0057610100808354040283529160200191610e2b565b820191906000526020600020905b815481529060010190602001808311610e0e57829003601f168201915b50505050508152602001600382018054610e4490612741565b80601f0160208091040260200160405190810160405280929190818152602001828054610e7090612741565b8015610ebd5780601f10610e9257610100808354040283529160200191610ebd565b820191906000526020600020905b815481529060010190602001808311610ea057829003601f168201915b50505050508152602001600482018054610ed690612741565b80601f0160208091040260200160405190810160405280929190818152602001828054610f0290612741565b8015610f4f5780601f10610f2457610100808354040283529160200191610f4f565b820191906000526020600020905b815481529060010190602001808311610f3257829003601f168201915b505050505081526020016005820160009054906101000a900473ffffffffffffffffffffffffffffffffffffffff1673ffffffffffffffffffffffffffffffffffffffff1673ffffffffffffffffffffffffffffffffffffffff16815250509050610fb6565b5b92915050565b6002818051602081018201805184825260208301602085012081835280955050505050506000915054906101000a900473ffffffffffffffffffffffffffffffffffffffff1681565b60008060018360405161101891906126fb565b908152602001604051809103902080549050146110b3573373ffffffffffffffffffffffffffffffffffffffff1660028360405161105691906126fb565b908152602001604051809103902060009054906101000a900473ffffffffffffffffffffffffffffffffffffffff1673ffffffffffffffffffffffffffffffffffffffff1614156110aa57600190506110b8565b600090506110b8565b600190505b919050565b60008380516020810182018051848252602083016020850120818352809550505050505082805160208101820180518482526020830160208501208183528095505050505050818154811061111157600080fd5b9060005260206000209060060201600092509250505080600001805461113690612741565b80601f016020809104026020016040519081016040528092919081815260200182805461116290612741565b80156111af5780601f10611184576101008083540402835291602001916111af565b820191906000526020600020905b81548152906001019060200180831161119257829003601f168201915b5050505050908060010180546111c490612741565b80601f01602080910402602001604051908101604052809291908181526020018280546111f090612741565b801561123d5780601f106112125761010080835404028352916020019161123d565b820191906000526020600020905b81548152906001019060200180831161122057829003601f168201915b50505050509080600201805461125290612741565b80601f016020809104026020016040519081016040528092919081815260200182805461127e90612741565b80156112cb5780601f106112a0576101008083540402835291602001916112cb565b820191906000526020600020905b8154815290600101906020018083116112ae57829003601f168201915b5050505050908060030180546112e090612741565b80601f016020809104026020016040519081016040528092919081815260200182805461130c90612741565b80156113595780601f1061132e57610100808354040283529160200191611359565b820191906000526020600020905b81548152906001019060200180831161133c57829003601f168201915b50505050509080600401805461136e90612741565b80601f016020809104026020016040519081016040528092919081815260200182805461139a90612741565b80156113e75780601f106113bc576101008083540402835291602001916113e7565b820191906000526020600020905b8154815290600101906020018083116113ca57829003601f168201915b5050505050908060050160009054906101000a900473ffffffffffffffffffffffffffffffffffffffff16905086565b6060600060018360405161142b91906126fb565b908152602001604051809103902080549050905060008167ffffffffffffffff81111561145b5761145a611a16565b5b60405190808252806020026020018201604052801561149457816020015b611481611996565b8152602001906001900390816114795790505b50905060005b8281101561168e576000611570866001886040516114b891906126fb565b908152602001604051809103902084815481106114d8576114d76127d6565b5b9060005260206000200180546114ed90612741565b80601f016020809104026020016040519081016040528092919081815260200182805461151990612741565b80156115665780601f1061153b57610100808354040283529160200191611566565b820191906000526020600020905b81548152906001019060200180831161154957829003601f168201915b50505050506105c1565b905080838381518110611586576115856127d6565b5b6020026020010151602001819052506001866040516115a591906126fb565b908152602001604051809103902082815481106115c5576115c46127d6565b5b9060005260206000200180546115da90612741565b80601f016020809104026020016040519081016040528092919081815260200182805461160690612741565b80156116535780601f1061162857610100808354040283529160200191611653565b820191906000526020600020905b81548152906001019060200180831161163657829003601f168201915b505050505083838151811061166b5761166a6127d6565b5b60200260200101516000018190525050808061168690612805565b91505061149a565b508092505050919050565b60606000600380549050905060008167ffffffffffffffff8111156116c1576116c0611a16565b5b6040519080825280602002602001820160405280156116fa57816020015b6116e76119b0565b8152602001906001900390816116df5790505b50905060005b828110156118bb5760006117b960038381548110611721576117206127d6565b5b90600052602060002001805461173690612741565b80601f016020809104026020016040519081016040528092919081815260200182805461176290612741565b80156117af5780601f10611784576101008083540402835291602001916117af565b820191906000526020600020905b81548152906001019060200180831161179257829003601f168201915b5050505050611417565b9050808383815181106117cf576117ce6127d6565b5b602002602001015160200181905250600382815481106117f2576117f16127d6565b5b90600052602060002001805461180790612741565b80601f016020809104026020016040519081016040528092919081815260200182805461183390612741565b80156118805780601f1061185557610100808354040283529160200191611880565b820191906000526020600020905b81548152906001019060200180831161186357829003601f168201915b5050505050838381518110611898576118976127d6565b5b6020026020010151600001819052505080806118b390612805565b915050611700565b50809250505090565b6040518060c001604052806060815260200160608152602001606081526020016060815260200160608152602001600073ffffffffffffffffffffffffffffffffffffffff1681525090565b82805461191c90612741565b90600052602060002090601f01602090048101928261193e5760008555611985565b82601f1061195757805160ff1916838001178555611985565b82800160010185558215611985579182015b82811115611984578251825591602001919060010190611969565b5b50905061199291906119ca565b5090565b604051806040016040528060608152602001606081525090565b604051806040016040528060608152602001606081525090565b5b808211156119e35760008160009055506001016119cb565b5090565b6000604051905090565b600080fd5b600080fd5b600080fd5b600080fd5b6000601f19601f8301169050919050565b7f4e487b7100000000000000000000000000000000000000000000000000000000600052604160045260246000fd5b611a4e82611a05565b810181811067ffffffffffffffff82111715611a6d57611a6c611a16565b5b80604052505050565b6000611a806119e7565b9050611a8c8282611a45565b919050565b600067ffffffffffffffff821115611aac57611aab611a16565b5b611ab582611a05565b9050602081019050919050565b82818337600083830152505050565b6000611ae4611adf84611a91565b611a76565b905082815260208101848484011115611b0057611aff611a00565b5b611b0b848285611ac2565b509392505050565b600082601f830112611b2857611b276119fb565b5b8135611b38848260208601611ad1565b91505092915050565b600080600080600060a08688031215611b5d57611b5c6119f1565b5b600086013567ffffffffffffffff811115611b7b57611b7a6119f6565b5b611b8788828901611b13565b955050602086013567ffffffffffffffff811115611ba857611ba76119f6565b5b611bb488828901611b13565b945050604086013567ffffffffffffffff811115611bd557611bd46119f6565b5b611be188828901611b13565b935050606086013567ffffffffffffffff811115611c0257611c016119f6565b5b611c0e88828901611b13565b925050608086013567ffffffffffffffff811115611c2f57611c2e6119f6565b5b611c3b88828901611b13565b9150509295509295909350565b60008060408385031215611c5f57611c5e6119f1565b5b600083013567ffffffffffffffff811115611c7d57611c7c6119f6565b5b611c8985828601611b13565b925050602083013567ffffffffffffffff811115611caa57611ca96119f6565b5b611cb685828601611b13565b9150509250929050565b600081519050919050565b600082825260208201905092915050565b6000819050602082019050919050565b600081519050919050565b600082825260208201905092915050565b60005b83811015611d26578082015181840152602081019050611d0b565b83811115611d35576000848401525b50505050565b6000611d4682611cec565b611d508185611cf7565b9350611d60818560208601611d08565b611d6981611a05565b840191505092915050565b600073ffffffffffffffffffffffffffffffffffffffff82169050919050565b6000611d9f82611d74565b9050919050565b611daf81611d94565b82525050565b600060c0830160008301518482036000860152611dd28282611d3b565b91505060208301518482036020860152611dec8282611d3b565b91505060408301518482036040860152611e068282611d3b565b91505060608301518482036060860152611e208282611d3b565b91505060808301518482036080860152611e3a8282611d3b565b91505060a0830151611e4f60a0860182611da6565b508091505092915050565b6000611e668383611db5565b905092915050565b6000602082019050919050565b6000611e8682611cc0565b611e908185611ccb565b935083602082028501611ea285611cdc565b8060005b85811015611ede5784840389528151611ebf8582611e5a565b9450611eca83611e6e565b925060208a01995050600181019050611ea6565b50829750879550505050505092915050565b60006020820190508181036000830152611f0a8184611e7b565b905092915050565b6000819050919050565b611f2581611f12565b8114611f3057600080fd5b50565b600081359050611f4281611f1c565b92915050565b60008060408385031215611f5f57611f5e6119f1565b5b600083013567ffffffffffffffff811115611f7d57611f7c6119f6565b5b611f8985828601611b13565b9250506020611f9a85828601611f33565b9150509250929050565b600082825260208201905092915050565b6000611fc082611cec565b611fca8185611fa4565b9350611fda818560208601611d08565b611fe381611a05565b840191505092915050565b600060208201905081810360008301526120088184611fb5565b905092915050565b600060208284031215612026576120256119f1565b5b600061203484828501611f33565b91505092915050565b600080600060608486031215612056576120556119f1565b5b600084013567ffffffffffffffff811115612074576120736119f6565b5b61208086828701611b13565b935050602084013567ffffffffffffffff8111156120a1576120a06119f6565b5b6120ad86828701611b13565b925050604084013567ffffffffffffffff8111156120ce576120cd6119f6565b5b6120da86828701611b13565b9150509250925092565b60008115159050919050565b6120f9816120e4565b82525050565b600060208201905061211460008301846120f0565b92915050565b600060c08301600083015184820360008601526121378282611d3b565b915050602083015184820360208601526121518282611d3b565b9150506040830151848203604086015261216b8282611d3b565b915050606083015184820360608601526121858282611d3b565b9150506080830151848203608086015261219f8282611d3b565b91505060a08301516121b460a0860182611da6565b508091505092915050565b600060208201905081810360008301526121d9818461211a565b905092915050565b6000602082840312156121f7576121f66119f1565b5b600082013567ffffffffffffffff811115612215576122146119f6565b5b61222184828501611b13565b91505092915050565b61223381611d94565b82525050565b600060208201905061224e600083018461222a565b92915050565b60008060006060848603121561226d5761226c6119f1565b5b600084013567ffffffffffffffff81111561228b5761228a6119f6565b5b61229786828701611b13565b935050602084013567ffffffffffffffff8111156122b8576122b76119f6565b5b6122c486828701611b13565b92505060406122d586828701611f33565b9150509250925092565b600060c08201905081810360008301526122f98189611fb5565b9050818103602083015261230d8188611fb5565b905081810360408301526123218187611fb5565b905081810360608301526123358186611fb5565b905081810360808301526123498185611fb5565b905061235860a083018461222a565b979650505050505050565b600081519050919050565b600082825260208201905092915050565b6000819050602082019050919050565b600082825260208201905092915050565b60006123ab82611cc0565b6123b5818561238f565b9350836020820285016123c785611cdc565b8060005b8581101561240357848403895281516123e48582611e5a565b94506123ef83611e6e565b925060208a019950506001810190506123cb565b50829750879550505050505092915050565b600060408301600083015184820360008601526124328282611d3b565b9150506020830151848203602086015261244c82826123a0565b9150508091505092915050565b60006124658383612415565b905092915050565b6000602082019050919050565b600061248582612363565b61248f818561236e565b9350836020820285016124a18561237f565b8060005b858110156124dd57848403895281516124be8582612459565b94506124c98361246d565b925060208a019950506001810190506124a5565b50829750879550505050505092915050565b60006020820190508181036000830152612509818461247a565b905092915050565b600081519050919050565b600082825260208201905092915050565b6000819050602082019050919050565b600082825260208201905092915050565b600061255982612363565b612563818561253d565b9350836020820285016125758561237f565b8060005b858110156125b157848403895281516125928582612459565b945061259d8361246d565b925060208a01995050600181019050612579565b50829750879550505050505092915050565b600060408301600083015184820360008601526125e08282611d3b565b915050602083015184820360208601526125fa828261254e565b9150508091505092915050565b600061261383836125c3565b905092915050565b6000602082019050919050565b600061263382612511565b61263d818561251c565b93508360208202850161264f8561252d565b8060005b8581101561268b578484038952815161266c8582612607565b94506126778361261b565b925060208a01995050600181019050612653565b50829750879550505050505092915050565b600060208201905081810360008301526126b78184612628565b905092915050565b600081905092915050565b60006126d582611cec565b6126df81856126bf565b93506126ef818560208601611d08565b80840191505092915050565b600061270782846126ca565b915081905092915050565b7f4e487b7100000000000000000000000000000000000000000000000000000000600052602260045260246000fd5b6000600282049050600182168061275957607f821691505b6020821081141561276d5761276c612712565b5b50919050565b7f4e487b7100000000000000000000000000000000000000000000000000000000600052601160045260246000fd5b60006127ad82611f12565b91506127b883611f12565b9250828210156127cb576127ca612773565b5b828203905092915050565b7f4e487b7100000000000000000000000000000000000000000000000000000000600052603260045260246000fd5b600061281082611f12565b91507fffffffffffffffffffffffffffffffffffffffffffffffffffffffffffffffff82141561284357612842612773565b5b60018201905091905056fea2646970667358221220abf50d8b644fe003ec159ecae838f1b77f07c536c362ee0fa97667062426639a64736f6c634300080c0033",
  "immutableReferences": {},
  "source": "// SPDX-License-Identifier: MIT\npragma solidity >=0.4.22 <0.9.0;\n\ncontract Meteosc {\n\n    struct File {\n        string _fullName;\n        string _name;\n        string _hash;\n        string _firstMesure;\n        string _lastMesure;\n        address _address;\n    }\n\n    struct Days {\n        string _fullName;\n        File[] _days;\n    }\n\n    struct Global {\n        string _name;\n        Days[] _stations;\n    }\n\n    //kathe name ASIGONIA_20221010 antistixoi se allo struct file\n    mapping(string => mapping(string => File[])) public file;\n    mapping(string => string[]) public info;\n    mapping(string => address) public station_address;\n    string[] public stationNames;\n\n    // constructor () {\n    //     addFile(\"ASI_1\", \"ASI\", \"fisrt_hash\", \"2022/11/10\", \"2022/12/10\");\n    //     addFile(\"ASI_1\", \"ASI\", \"second_hash\", \"2022/11/10\", \"2022/12/10\");\n    //     addFile(\"ASI_1\", \"ASI\", \"third_hash\", \"2022/11/10\", \"2022/12/10\");\n    //     addFile(\"ASI_2\", \"ASI\", \"fisrt_hash\", \"2022/20/11\", \"2022/25/11\");\n    //     addFile(\"ASI_2\", \"ASI\", \"second_hash\", \"2022/20/11\", \"2022/25/11\");\n    //     addFile(\"ASI_3\", \"ASI\", \"fisrt_hash\", \"2022/25/11\", \"2022/05/12\");\n    //     addFile(\"ASI_4\", \"ASI\", \"fisrt_hash\", \"2022/05/12\", \"2022/15/12\");\n    //     addFile(\"ASI_5\", \"ASI\", \"fisrt_hash\", \"2022/15/12\", \"2023/10/01\");\n    //     addFile(\"MEN_1\", \"MEN\", \"fisrt_hash\", \"2021/11/10\", \"2021/12/10\");\n    //     addFile(\"MEN_2\", \"MEN\", \"fisrt_hash\", \"2021/12/10\", \"2021/14/10\");\n    //     addFile(\"AXA_1\", \"AXA\", \"fisrt_hash\", \"2021/12/10\", \"2021/14/10\");\n    //     addFile(\"AXA_1\", \"AXA\", \"second_hash\", \"2021/12/10\", \"2021/14/10\");\n    //     addFile(\"AXA_2\", \"AXA\", \"fisrt_hash\", \"2021/14/10\", \"2022/14/01\");\n    // }\n\n    function addFile(\n        string memory fullName, \n        string memory name, \n        string memory hashV, \n        string memory firstMesure, \n        string memory lastMesure\n    )public {\n        File memory curfile;\n\n        if (verifyRegion(name)) {\n            curfile._fullName = fullName;\n            curfile._name = name;\n            curfile._firstMesure = firstMesure;\n            curfile._lastMesure = lastMesure;\n            curfile._hash = hashV;\n            curfile._address = msg.sender;\n            station_address[name] = msg.sender;\n\n            if (info[name].length == 0) {\n                stationNames.push(name);\n            }\n            \n            if (file[name][fullName].length == 0) {\n                info[name].push(fullName);\n            }\n\n            file[name][fullName].push(curfile);   \n        }\n    }\n\n    function getFile(\n        string memory name,\n        string memory fullName\n    )public view returns (File memory) {\n        if (file[name][fullName].length != 0) \n            return file[name][fullName][file[name][fullName].length - 1];\n    }\n\n    function getFileVertions(\n        string memory name,\n        string memory fullName\n    )public view returns (File[] memory) {\n        return file[name][fullName];\n    }\n\n    function getFileHistory(\n        string memory name\n    )public view returns (Days[] memory) {\n        uint lenInfo = info[name].length;\n        Days[] memory curD = new Days[](lenInfo);\n        for (uint i=0; i<lenInfo; i++) {\n            File[] memory curFile = getFileVertions(name, info[name][i]);\n            curD[i]._days = curFile;\n            curD[i]._fullName = info[name][i];\n        }\n        return curD;\n    }\n\n    function getAllFiles(\n    )public view returns (Global[] memory) {\n        uint lenSt = stationNames.length;\n        Global[] memory curS = new Global[](lenSt);\n        for (uint i=0; i<lenSt; i++) {\n            Days[] memory curFile = getFileHistory(stationNames[i]);\n            curS[i]._stations = curFile;\n            curS[i]._name = stationNames[i];\n        }\n        return curS;\n    }\n\n    function verifyHash(\n        string memory name,\n        string memory fullName,\n        string memory hashV\n    )public view returns (bool) {\n        File memory selectedFile = getFile(name, fullName);\n        if (keccak256(abi.encodePacked(selectedFile._hash)) == keccak256(abi.encodePacked(hashV))) {\n            return true;\n        }else {\n            return false;\n        }\n    }\n\n    function verifyRegion(\n        string memory name\n    )public view returns (bool) {\n        if (info[name].length != 0) {\n            if (station_address[name] == msg.sender) {\n                return true;\n            }\n            else {\n                return false;\n            }\n        }else {\n            return true;\n        }        \n    }\n\n}\n",
  "sourcePath": "/home/gio/blockchain/firstdapp/contracts/Meteosc.sol",
  "compiler": {
    "name": "solc",
    "version": "0.8.12+commit.f00d7308.Emscripten.clang"
  },
  "schemaVersion": "3.4.6",
  "updatedAt": "2022-05-18T09:17:29.893Z",
  "networkType": "ethereum",
  "devdoc": {
    "kind": "dev",
    "methods": {},
    "version": 1
  },
  "userdoc": {
    "kind": "user",
    "methods": {},
    "version": 1
  }
}