{
  "contractName": "Meteosc",
  "abi": [
    {
      "inputs": [],
      "stateMutability": "nonpayable",
      "type": "constructor"
    },
    {
      "inputs": [
        {
          "internalType": "string",
          "name": "",
          "type": "string"
        },
        {
          "internalType": "string",
          "name": "",
          "type": "string"
        },
        {
          "internalType": "uint256",
          "name": "",
          "type": "uint256"
        }
      ],
      "name": "file",
      "outputs": [
        {
          "internalType": "string",
          "name": "_name",
          "type": "string"
        },
        {
          "internalType": "string",
          "name": "_fullName",
          "type": "string"
        },
        {
          "internalType": "string",
          "name": "_firstMesure",
          "type": "string"
        },
        {
          "internalType": "string",
          "name": "_lastMesure",
          "type": "string"
        },
        {
          "internalType": "string",
          "name": "_data",
          "type": "string"
        }
      ],
      "stateMutability": "view",
      "type": "function",
      "constant": true
    },
    {
      "inputs": [
        {
          "internalType": "string",
          "name": "",
          "type": "string"
        },
        {
          "internalType": "uint256",
          "name": "",
          "type": "uint256"
        }
      ],
      "name": "info",
      "outputs": [
        {
          "internalType": "string",
          "name": "",
          "type": "string"
        }
      ],
      "stateMutability": "view",
      "type": "function",
      "constant": true
    },
    {
      "inputs": [
        {
          "internalType": "uint256",
          "name": "",
          "type": "uint256"
        }
      ],
      "name": "stationNames",
      "outputs": [
        {
          "internalType": "string",
          "name": "",
          "type": "string"
        }
      ],
      "stateMutability": "view",
      "type": "function",
      "constant": true
    },
    {
      "inputs": [
        {
          "internalType": "string",
          "name": "fullName",
          "type": "string"
        },
        {
          "internalType": "string",
          "name": "name",
          "type": "string"
        },
        {
          "internalType": "string",
          "name": "data",
          "type": "string"
        },
        {
          "internalType": "string",
          "name": "firstMesure",
          "type": "string"
        },
        {
          "internalType": "string",
          "name": "lastMesure",
          "type": "string"
        }
      ],
      "name": "addFile",
      "outputs": [],
      "stateMutability": "nonpayable",
      "type": "function"
    },
    {
      "inputs": [
        {
          "internalType": "string",
          "name": "name",
          "type": "string"
        },
        {
          "internalType": "string",
          "name": "fullName",
          "type": "string"
        }
      ],
      "name": "getFile",
      "outputs": [
        {
          "components": [
            {
              "internalType": "string",
              "name": "_name",
              "type": "string"
            },
            {
              "internalType": "string",
              "name": "_fullName",
              "type": "string"
            },
            {
              "internalType": "string",
              "name": "_firstMesure",
              "type": "string"
            },
            {
              "internalType": "string",
              "name": "_lastMesure",
              "type": "string"
            },
            {
              "internalType": "string",
              "name": "_data",
              "type": "string"
            }
          ],
          "internalType": "struct Meteosc.File",
          "name": "",
          "type": "tuple"
        }
      ],
      "stateMutability": "view",
      "type": "function",
      "constant": true
    },
    {
      "inputs": [
        {
          "internalType": "string",
          "name": "name",
          "type": "string"
        },
        {
          "internalType": "string",
          "name": "fullName",
          "type": "string"
        }
      ],
      "name": "getFileVertions",
      "outputs": [
        {
          "components": [
            {
              "internalType": "string",
              "name": "_name",
              "type": "string"
            },
            {
              "internalType": "string",
              "name": "_fullName",
              "type": "string"
            },
            {
              "internalType": "string",
              "name": "_firstMesure",
              "type": "string"
            },
            {
              "internalType": "string",
              "name": "_lastMesure",
              "type": "string"
            },
            {
              "internalType": "string",
              "name": "_data",
              "type": "string"
            }
          ],
          "internalType": "struct Meteosc.File[]",
          "name": "",
          "type": "tuple[]"
        }
      ],
      "stateMutability": "view",
      "type": "function",
      "constant": true
    },
    {
      "inputs": [
        {
          "internalType": "string",
          "name": "name",
          "type": "string"
        }
      ],
      "name": "getFileHistory",
      "outputs": [
        {
          "components": [
            {
              "internalType": "string",
              "name": "_fullName",
              "type": "string"
            },
            {
              "components": [
                {
                  "internalType": "string",
                  "name": "_name",
                  "type": "string"
                },
                {
                  "internalType": "string",
                  "name": "_fullName",
                  "type": "string"
                },
                {
                  "internalType": "string",
                  "name": "_firstMesure",
                  "type": "string"
                },
                {
                  "internalType": "string",
                  "name": "_lastMesure",
                  "type": "string"
                },
                {
                  "internalType": "string",
                  "name": "_data",
                  "type": "string"
                }
              ],
              "internalType": "struct Meteosc.File[]",
              "name": "_days",
              "type": "tuple[]"
            }
          ],
          "internalType": "struct Meteosc.Days[]",
          "name": "",
          "type": "tuple[]"
        }
      ],
      "stateMutability": "view",
      "type": "function",
      "constant": true
    },
    {
      "inputs": [],
      "name": "getAllFiles",
      "outputs": [
        {
          "components": [
            {
              "internalType": "string",
              "name": "_name",
              "type": "string"
            },
            {
              "components": [
                {
                  "internalType": "string",
                  "name": "_fullName",
                  "type": "string"
                },
                {
                  "components": [
                    {
                      "internalType": "string",
                      "name": "_name",
                      "type": "string"
                    },
                    {
                      "internalType": "string",
                      "name": "_fullName",
                      "type": "string"
                    },
                    {
                      "internalType": "string",
                      "name": "_firstMesure",
                      "type": "string"
                    },
                    {
                      "internalType": "string",
                      "name": "_lastMesure",
                      "type": "string"
                    },
                    {
                      "internalType": "string",
                      "name": "_data",
                      "type": "string"
                    }
                  ],
                  "internalType": "struct Meteosc.File[]",
                  "name": "_days",
                  "type": "tuple[]"
                }
              ],
              "internalType": "struct Meteosc.Days[]",
              "name": "_stations",
              "type": "tuple[]"
            }
          ],
          "internalType": "struct Meteosc.Global[]",
          "name": "",
          "type": "tuple[]"
        }
      ],
      "stateMutability": "view",
      "type": "function",
      "constant": true
    }
  ],
  "bytecode": "0x60806040523480156200001157600080fd5b50620001306040518060400160405280600581526020017f4153495f310000000000000000000000000000000000000000000000000000008152506040518060400160405280600381526020017f41534900000000000000000000000000000000000000000000000000000000008152506040518060400160405280600a81526020017f323032322f31312f3130000000000000000000000000000000000000000000008152506040518060400160405280600a81526020017f323032322f31322f3130000000000000000000000000000000000000000000008152506040518060400160405280600a81526020017f66697372745f6461746100000000000000000000000000000000000000000000815250620010da60201b60201c565b6200024e6040518060400160405280600581526020017f4153495f310000000000000000000000000000000000000000000000000000008152506040518060400160405280600381526020017f41534900000000000000000000000000000000000000000000000000000000008152506040518060400160405280600a81526020017f323032322f31312f3130000000000000000000000000000000000000000000008152506040518060400160405280600a81526020017f323032322f31322f3130000000000000000000000000000000000000000000008152506040518060400160405280600b81526020017f7365636f6e645f64617461000000000000000000000000000000000000000000815250620010da60201b60201c565b6200036c6040518060400160405280600581526020017f4153495f310000000000000000000000000000000000000000000000000000008152506040518060400160405280600381526020017f41534900000000000000000000000000000000000000000000000000000000008152506040518060400160405280600a81526020017f323032322f31312f3130000000000000000000000000000000000000000000008152506040518060400160405280600a81526020017f323032322f31322f3130000000000000000000000000000000000000000000008152506040518060400160405280600a81526020017f74686972645f6461746100000000000000000000000000000000000000000000815250620010da60201b60201c565b6200048a6040518060400160405280600581526020017f4153495f320000000000000000000000000000000000000000000000000000008152506040518060400160405280600381526020017f41534900000000000000000000000000000000000000000000000000000000008152506040518060400160405280600a81526020017f323032322f32302f3131000000000000000000000000000000000000000000008152506040518060400160405280600a81526020017f323032322f32352f3131000000000000000000000000000000000000000000008152506040518060400160405280600a81526020017f66697273745f6461746100000000000000000000000000000000000000000000815250620010da60201b60201c565b620005a86040518060400160405280600581526020017f4153495f320000000000000000000000000000000000000000000000000000008152506040518060400160405280600381526020017f41534900000000000000000000000000000000000000000000000000000000008152506040518060400160405280600a81526020017f323032322f32302f3131000000000000000000000000000000000000000000008152506040518060400160405280600a81526020017f323032322f32352f3131000000000000000000000000000000000000000000008152506040518060400160405280600b81526020017f7365636f6e645f64617461000000000000000000000000000000000000000000815250620010da60201b60201c565b620006c66040518060400160405280600581526020017f4153495f330000000000000000000000000000000000000000000000000000008152506040518060400160405280600381526020017f41534900000000000000000000000000000000000000000000000000000000008152506040518060400160405280600a81526020017f323032322f32352f3131000000000000000000000000000000000000000000008152506040518060400160405280600a81526020017f323032322f30352f3132000000000000000000000000000000000000000000008152506040518060400160405280600a81526020017f66697273745f6461746100000000000000000000000000000000000000000000815250620010da60201b60201c565b620007e46040518060400160405280600581526020017f4153495f340000000000000000000000000000000000000000000000000000008152506040518060400160405280600381526020017f41534900000000000000000000000000000000000000000000000000000000008152506040518060400160405280600a81526020017f323032322f30352f3132000000000000000000000000000000000000000000008152506040518060400160405280600a81526020017f323032322f31352f3132000000000000000000000000000000000000000000008152506040518060400160405280600a81526020017f66697273745f6461746100000000000000000000000000000000000000000000815250620010da60201b60201c565b620009026040518060400160405280600581526020017f4153495f350000000000000000000000000000000000000000000000000000008152506040518060400160405280600381526020017f41534900000000000000000000000000000000000000000000000000000000008152506040518060400160405280600a81526020017f323032322f31352f3132000000000000000000000000000000000000000000008152506040518060400160405280600a81526020017f323032332f31302f3031000000000000000000000000000000000000000000008152506040518060400160405280600a81526020017f66697273745f6461746100000000000000000000000000000000000000000000815250620010da60201b60201c565b62000a206040518060400160405280600581526020017f4d454e5f310000000000000000000000000000000000000000000000000000008152506040518060400160405280600381526020017f4d454e00000000000000000000000000000000000000000000000000000000008152506040518060400160405280600a81526020017f323032312f31312f3130000000000000000000000000000000000000000000008152506040518060400160405280600a81526020017f323032312f31322f3130000000000000000000000000000000000000000000008152506040518060400160405280600a81526020017f66697372745f6461746100000000000000000000000000000000000000000000815250620010da60201b60201c565b62000b3e6040518060400160405280600581526020017f4d454e5f320000000000000000000000000000000000000000000000000000008152506040518060400160405280600381526020017f4d454e00000000000000000000000000000000000000000000000000000000008152506040518060400160405280600a81526020017f323032312f31322f3130000000000000000000000000000000000000000000008152506040518060400160405280600a81526020017f323032312f31342f3130000000000000000000000000000000000000000000008152506040518060400160405280600a81526020017f66697273745f6461746100000000000000000000000000000000000000000000815250620010da60201b60201c565b62000c5c6040518060400160405280600581526020017f4158415f310000000000000000000000000000000000000000000000000000008152506040518060400160405280600381526020017f41584100000000000000000000000000000000000000000000000000000000008152506040518060400160405280600a81526020017f323032312f31322f3130000000000000000000000000000000000000000000008152506040518060400160405280600a81526020017f323032312f31342f3130000000000000000000000000000000000000000000008152506040518060400160405280600a81526020017f66697273745f6461746100000000000000000000000000000000000000000000815250620010da60201b60201c565b62000d7a6040518060400160405280600581526020017f4158415f310000000000000000000000000000000000000000000000000000008152506040518060400160405280600381526020017f41584100000000000000000000000000000000000000000000000000000000008152506040518060400160405280600a81526020017f323032312f31322f3130000000000000000000000000000000000000000000008152506040518060400160405280600a81526020017f323032312f31342f3130000000000000000000000000000000000000000000008152506040518060400160405280600b81526020017f7365636f6e645f64617461000000000000000000000000000000000000000000815250620010da60201b60201c565b62000e986040518060400160405280600581526020017f4158415f320000000000000000000000000000000000000000000000000000008152506040518060400160405280600381526020017f41584100000000000000000000000000000000000000000000000000000000008152506040518060400160405280600a81526020017f323032312f31342f3130000000000000000000000000000000000000000000008152506040518060400160405280600a81526020017f323032322f31342f3031000000000000000000000000000000000000000000008152506040518060400160405280600a81526020017f66697273745f6461746100000000000000000000000000000000000000000000815250620010da60201b60201c565b62000fb66040518060400160405280600581526020017f4158415f320000000000000000000000000000000000000000000000000000008152506040518060400160405280600381526020017f41584100000000000000000000000000000000000000000000000000000000008152506040518060400160405280600a81526020017f323032312f31342f3130000000000000000000000000000000000000000000008152506040518060400160405280600a81526020017f323032322f31342f3031000000000000000000000000000000000000000000008152506040518060400160405280600b81526020017f7365636f6e645f64617461000000000000000000000000000000000000000000815250620010da60201b60201c565b620010d46040518060400160405280600581526020017f4158415f320000000000000000000000000000000000000000000000000000008152506040518060400160405280600381526020017f41584100000000000000000000000000000000000000000000000000000000008152506040518060400160405280600a81526020017f323032312f31342f3130000000000000000000000000000000000000000000008152506040518060400160405280600a81526020017f323032322f31342f3031000000000000000000000000000000000000000000008152506040518060400160405280600a81526020017f74686972645f6461746100000000000000000000000000000000000000000000815250620010da60201b60201c565b62001511565b620010e462001331565b858160200181905250848160000181905250828160400181905250818160600181905250838160800181905250600060018660405162001125919062001493565b90815260200160405180910390208054905014156200117d576002859080600181540180825580915050600190039060005260206000200160009091909190915090805190602001906200117b92919062001360565b505b6000808660405162001190919062001493565b908152602001604051809103902087604051620011ae919062001493565b90815260200160405180910390208054905014156200122457600185604051620011d9919062001493565b9081526020016040518091039020869080600181540180825580915050600190039060005260206000200160009091909190915090805190602001906200122292919062001360565b505b60008560405162001236919062001493565b90815260200160405180910390208660405162001254919062001493565b90815260200160405180910390208190806001815401808255809150506001900390600052602060002090600502016000909190919091506000820151816000019080519060200190620012aa92919062001360565b506020820151816001019080519060200190620012c992919062001360565b506040820151816002019080519060200190620012e892919062001360565b5060608201518160030190805190602001906200130792919062001360565b5060808201518160040190805190602001906200132692919062001360565b505050505050505050565b6040518060a0016040528060608152602001606081526020016060815260200160608152602001606081525090565b8280546200136e90620014db565b90600052602060002090601f016020900481019282620013925760008555620013de565b82601f10620013ad57805160ff1916838001178555620013de565b82800160010185558215620013de579182015b82811115620013dd578251825591602001919060010190620013c0565b5b509050620013ed9190620013f1565b5090565b5b808211156200140c576000816000905550600101620013f2565b5090565b600081519050919050565b600081905092915050565b60005b838110156200144657808201518184015260208101905062001429565b8381111562001456576000848401525b50505050565b6000620014698262001410565b6200147581856200141b565b93506200148781856020860162001426565b80840191505092915050565b6000620014a182846200145c565b915081905092915050565b7f4e487b7100000000000000000000000000000000000000000000000000000000600052602260045260246000fd5b60006002820490506001821680620014f457607f821691505b602082108114156200150b576200150a620014ac565b5b50919050565b6122b380620015216000396000f3fe608060405234801561001057600080fd5b50600436106100885760003560e01c806391548ace1161005b57806391548ace14610139578063dfcc443d14610169578063ee9125bc1461019d578063ff24b5d5146101cd57610088565b80630a7fac441461008d5780633cb37b48146100a9578063473e8106146100d9578063517ceb0614610109575b600080fd5b6100a760048036038101906100a291906116ec565b6101eb565b005b6100c360048036038101906100be91906117f3565b610424565b6040516100d09190611a47565b60405180910390f35b6100f360048036038101906100ee9190611a9f565b610798565b6040516101009190611b45565b60405180910390f35b610123600480360381019061011e9190611b67565b610867565b6040516101309190611b45565b60405180910390f35b610153600480360381019061014e91906117f3565b610913565b6040516101609190611c26565b60405180910390f35b610183600480360381019061017e9190611c48565b610cab565b604051610194959493929190611cd3565b60405180910390f35b6101b760048036038101906101b29190611d49565b610fdf565b6040516101c49190611f1e565b60405180910390f35b6101d5611261565b6040516101e291906120cc565b60405180910390f35b6101f361148c565b8581602001819052508481600001819052508281604001819052508181606001819052508381608001819052506000600186604051610232919061212a565b9081526020016040518091039020805490501415610287576002859080600181540180825580915050600190039060005260206000200160009091909190915090805190602001906102859291906114bb565b505b60008086604051610298919061212a565b9081526020016040518091039020876040516102b4919061212a565b9081526020016040518091039020805490501415610325576001856040516102dc919061212a565b9081526020016040518091039020869080600181540180825580915050600190039060005260206000200160009091909190915090805190602001906103239291906114bb565b505b600085604051610335919061212a565b908152602001604051809103902086604051610351919061212a565b908152602001604051809103902081908060018154018082558091505060019003906000526020600020906005020160009091909190915060008201518160000190805190602001906103a59291906114bb565b5060208201518160010190805190602001906103c29291906114bb565b5060408201518160020190805190602001906103df9291906114bb565b5060608201518160030190805190602001906103fc9291906114bb565b5060808201518160040190805190602001906104199291906114bb565b505050505050505050565b6060600083604051610436919061212a565b908152602001604051809103902082604051610452919061212a565b9081526020016040518091039020805480602002602001604051908101604052809291908181526020016000905b8282101561078c57838290600052602060002090600502016040518060a00160405290816000820180546104b390612170565b80601f01602080910402602001604051908101604052809291908181526020018280546104df90612170565b801561052c5780601f106105015761010080835404028352916020019161052c565b820191906000526020600020905b81548152906001019060200180831161050f57829003601f168201915b5050505050815260200160018201805461054590612170565b80601f016020809104026020016040519081016040528092919081815260200182805461057190612170565b80156105be5780601f10610593576101008083540402835291602001916105be565b820191906000526020600020905b8154815290600101906020018083116105a157829003601f168201915b505050505081526020016002820180546105d790612170565b80601f016020809104026020016040519081016040528092919081815260200182805461060390612170565b80156106505780601f1061062557610100808354040283529160200191610650565b820191906000526020600020905b81548152906001019060200180831161063357829003601f168201915b5050505050815260200160038201805461066990612170565b80601f016020809104026020016040519081016040528092919081815260200182805461069590612170565b80156106e25780601f106106b7576101008083540402835291602001916106e2565b820191906000526020600020905b8154815290600101906020018083116106c557829003601f168201915b505050505081526020016004820180546106fb90612170565b80601f016020809104026020016040519081016040528092919081815260200182805461072790612170565b80156107745780601f1061074957610100808354040283529160200191610774565b820191906000526020600020905b81548152906001019060200180831161075757829003601f168201915b50505050508152505081526020019060010190610480565b50505050905092915050565b60018280516020810182018051848252602083016020850120818352809550505050505081815481106107ca57600080fd5b906000526020600020016000915091505080546107e690612170565b80601f016020809104026020016040519081016040528092919081815260200182805461081290612170565b801561085f5780601f106108345761010080835404028352916020019161085f565b820191906000526020600020905b81548152906001019060200180831161084257829003601f168201915b505050505081565b6002818154811061087757600080fd5b90600052602060002001600091509050805461089290612170565b80601f01602080910402602001604051908101604052809291908181526020018280546108be90612170565b801561090b5780601f106108e05761010080835404028352916020019161090b565b820191906000526020600020905b8154815290600101906020018083116108ee57829003601f168201915b505050505081565b61091b61148c565b60008360405161092b919061212a565b908152602001604051809103902082604051610947919061212a565b90815260200160405180910390206001600085604051610967919061212a565b908152602001604051809103902084604051610983919061212a565b90815260200160405180910390208054905061099f91906121d1565b815481106109b0576109af612205565b5b90600052602060002090600502016040518060a00160405290816000820180546109d990612170565b80601f0160208091040260200160405190810160405280929190818152602001828054610a0590612170565b8015610a525780601f10610a2757610100808354040283529160200191610a52565b820191906000526020600020905b815481529060010190602001808311610a3557829003601f168201915b50505050508152602001600182018054610a6b90612170565b80601f0160208091040260200160405190810160405280929190818152602001828054610a9790612170565b8015610ae45780601f10610ab957610100808354040283529160200191610ae4565b820191906000526020600020905b815481529060010190602001808311610ac757829003601f168201915b50505050508152602001600282018054610afd90612170565b80601f0160208091040260200160405190810160405280929190818152602001828054610b2990612170565b8015610b765780601f10610b4b57610100808354040283529160200191610b76565b820191906000526020600020905b815481529060010190602001808311610b5957829003601f168201915b50505050508152602001600382018054610b8f90612170565b80601f0160208091040260200160405190810160405280929190818152602001828054610bbb90612170565b8015610c085780601f10610bdd57610100808354040283529160200191610c08565b820191906000526020600020905b815481529060010190602001808311610beb57829003601f168201915b50505050508152602001600482018054610c2190612170565b80601f0160208091040260200160405190810160405280929190818152602001828054610c4d90612170565b8015610c9a5780601f10610c6f57610100808354040283529160200191610c9a565b820191906000526020600020905b815481529060010190602001808311610c7d57829003601f168201915b505050505081525050905092915050565b600083805160208101820180518482526020830160208501208183528095505050505050828051602081018201805184825260208301602085012081835280955050505050508181548110610cff57600080fd5b90600052602060002090600502016000925092505050806000018054610d2490612170565b80601f0160208091040260200160405190810160405280929190818152602001828054610d5090612170565b8015610d9d5780601f10610d7257610100808354040283529160200191610d9d565b820191906000526020600020905b815481529060010190602001808311610d8057829003601f168201915b505050505090806001018054610db290612170565b80601f0160208091040260200160405190810160405280929190818152602001828054610dde90612170565b8015610e2b5780601f10610e0057610100808354040283529160200191610e2b565b820191906000526020600020905b815481529060010190602001808311610e0e57829003601f168201915b505050505090806002018054610e4090612170565b80601f0160208091040260200160405190810160405280929190818152602001828054610e6c90612170565b8015610eb95780601f10610e8e57610100808354040283529160200191610eb9565b820191906000526020600020905b815481529060010190602001808311610e9c57829003601f168201915b505050505090806003018054610ece90612170565b80601f0160208091040260200160405190810160405280929190818152602001828054610efa90612170565b8015610f475780601f10610f1c57610100808354040283529160200191610f47565b820191906000526020600020905b815481529060010190602001808311610f2a57829003601f168201915b505050505090806004018054610f5c90612170565b80601f0160208091040260200160405190810160405280929190818152602001828054610f8890612170565b8015610fd55780601f10610faa57610100808354040283529160200191610fd5565b820191906000526020600020905b815481529060010190602001808311610fb857829003601f168201915b5050505050905085565b60606000600183604051610ff3919061212a565b908152602001604051809103902080549050905060008167ffffffffffffffff811115611023576110226115c1565b5b60405190808252806020026020018201604052801561105c57816020015b611049611541565b8152602001906001900390816110415790505b50905060005b8281101561125657600061113886600188604051611080919061212a565b908152602001604051809103902084815481106110a05761109f612205565b5b9060005260206000200180546110b590612170565b80601f01602080910402602001604051908101604052809291908181526020018280546110e190612170565b801561112e5780601f106111035761010080835404028352916020019161112e565b820191906000526020600020905b81548152906001019060200180831161111157829003601f168201915b5050505050610424565b90508083838151811061114e5761114d612205565b5b60200260200101516020018190525060018660405161116d919061212a565b9081526020016040518091039020828154811061118d5761118c612205565b5b9060005260206000200180546111a290612170565b80601f01602080910402602001604051908101604052809291908181526020018280546111ce90612170565b801561121b5780601f106111f05761010080835404028352916020019161121b565b820191906000526020600020905b8154815290600101906020018083116111fe57829003601f168201915b505050505083838151811061123357611232612205565b5b60200260200101516000018190525050808061124e90612234565b915050611062565b508092505050919050565b60606000600280549050905060008167ffffffffffffffff811115611289576112886115c1565b5b6040519080825280602002602001820160405280156112c257816020015b6112af61155b565b8152602001906001900390816112a75790505b50905060005b82811015611483576000611381600283815481106112e9576112e8612205565b5b9060005260206000200180546112fe90612170565b80601f016020809104026020016040519081016040528092919081815260200182805461132a90612170565b80156113775780601f1061134c57610100808354040283529160200191611377565b820191906000526020600020905b81548152906001019060200180831161135a57829003601f168201915b5050505050610fdf565b90508083838151811061139757611396612205565b5b602002602001015160200181905250600282815481106113ba576113b9612205565b5b9060005260206000200180546113cf90612170565b80601f01602080910402602001604051908101604052809291908181526020018280546113fb90612170565b80156114485780601f1061141d57610100808354040283529160200191611448565b820191906000526020600020905b81548152906001019060200180831161142b57829003601f168201915b50505050508383815181106114605761145f612205565b5b60200260200101516000018190525050808061147b90612234565b9150506112c8565b50809250505090565b6040518060a0016040528060608152602001606081526020016060815260200160608152602001606081525090565b8280546114c790612170565b90600052602060002090601f0160209004810192826114e95760008555611530565b82601f1061150257805160ff1916838001178555611530565b82800160010185558215611530579182015b8281111561152f578251825591602001919060010190611514565b5b50905061153d9190611575565b5090565b604051806040016040528060608152602001606081525090565b604051806040016040528060608152602001606081525090565b5b8082111561158e576000816000905550600101611576565b5090565b6000604051905090565b600080fd5b600080fd5b600080fd5b600080fd5b6000601f19601f8301169050919050565b7f4e487b7100000000000000000000000000000000000000000000000000000000600052604160045260246000fd5b6115f9826115b0565b810181811067ffffffffffffffff82111715611618576116176115c1565b5b80604052505050565b600061162b611592565b905061163782826115f0565b919050565b600067ffffffffffffffff821115611657576116566115c1565b5b611660826115b0565b9050602081019050919050565b82818337600083830152505050565b600061168f61168a8461163c565b611621565b9050828152602081018484840111156116ab576116aa6115ab565b5b6116b684828561166d565b509392505050565b600082601f8301126116d3576116d26115a6565b5b81356116e384826020860161167c565b91505092915050565b600080600080600060a086880312156117085761170761159c565b5b600086013567ffffffffffffffff811115611726576117256115a1565b5b611732888289016116be565b955050602086013567ffffffffffffffff811115611753576117526115a1565b5b61175f888289016116be565b945050604086013567ffffffffffffffff8111156117805761177f6115a1565b5b61178c888289016116be565b935050606086013567ffffffffffffffff8111156117ad576117ac6115a1565b5b6117b9888289016116be565b925050608086013567ffffffffffffffff8111156117da576117d96115a1565b5b6117e6888289016116be565b9150509295509295909350565b6000806040838503121561180a5761180961159c565b5b600083013567ffffffffffffffff811115611828576118276115a1565b5b611834858286016116be565b925050602083013567ffffffffffffffff811115611855576118546115a1565b5b611861858286016116be565b9150509250929050565b600081519050919050565b600082825260208201905092915050565b6000819050602082019050919050565b600081519050919050565b600082825260208201905092915050565b60005b838110156118d15780820151818401526020810190506118b6565b838111156118e0576000848401525b50505050565b60006118f182611897565b6118fb81856118a2565b935061190b8185602086016118b3565b611914816115b0565b840191505092915050565b600060a083016000830151848203600086015261193c82826118e6565b9150506020830151848203602086015261195682826118e6565b9150506040830151848203604086015261197082826118e6565b9150506060830151848203606086015261198a82826118e6565b915050608083015184820360808601526119a482826118e6565b9150508091505092915050565b60006119bd838361191f565b905092915050565b6000602082019050919050565b60006119dd8261186b565b6119e78185611876565b9350836020820285016119f985611887565b8060005b85811015611a355784840389528151611a1685826119b1565b9450611a21836119c5565b925060208a019950506001810190506119fd565b50829750879550505050505092915050565b60006020820190508181036000830152611a6181846119d2565b905092915050565b6000819050919050565b611a7c81611a69565b8114611a8757600080fd5b50565b600081359050611a9981611a73565b92915050565b60008060408385031215611ab657611ab561159c565b5b600083013567ffffffffffffffff811115611ad457611ad36115a1565b5b611ae0858286016116be565b9250506020611af185828601611a8a565b9150509250929050565b600082825260208201905092915050565b6000611b1782611897565b611b218185611afb565b9350611b318185602086016118b3565b611b3a816115b0565b840191505092915050565b60006020820190508181036000830152611b5f8184611b0c565b905092915050565b600060208284031215611b7d57611b7c61159c565b5b6000611b8b84828501611a8a565b91505092915050565b600060a0830160008301518482036000860152611bb182826118e6565b91505060208301518482036020860152611bcb82826118e6565b91505060408301518482036040860152611be582826118e6565b91505060608301518482036060860152611bff82826118e6565b91505060808301518482036080860152611c1982826118e6565b9150508091505092915050565b60006020820190508181036000830152611c408184611b94565b905092915050565b600080600060608486031215611c6157611c6061159c565b5b600084013567ffffffffffffffff811115611c7f57611c7e6115a1565b5b611c8b868287016116be565b935050602084013567ffffffffffffffff811115611cac57611cab6115a1565b5b611cb8868287016116be565b9250506040611cc986828701611a8a565b9150509250925092565b600060a0820190508181036000830152611ced8188611b0c565b90508181036020830152611d018187611b0c565b90508181036040830152611d158186611b0c565b90508181036060830152611d298185611b0c565b90508181036080830152611d3d8184611b0c565b90509695505050505050565b600060208284031215611d5f57611d5e61159c565b5b600082013567ffffffffffffffff811115611d7d57611d7c6115a1565b5b611d89848285016116be565b91505092915050565b600081519050919050565b600082825260208201905092915050565b6000819050602082019050919050565b600082825260208201905092915050565b6000611dda8261186b565b611de48185611dbe565b935083602082028501611df685611887565b8060005b85811015611e325784840389528151611e1385826119b1565b9450611e1e836119c5565b925060208a01995050600181019050611dfa565b50829750879550505050505092915050565b60006040830160008301518482036000860152611e6182826118e6565b91505060208301518482036020860152611e7b8282611dcf565b9150508091505092915050565b6000611e948383611e44565b905092915050565b6000602082019050919050565b6000611eb482611d92565b611ebe8185611d9d565b935083602082028501611ed085611dae565b8060005b85811015611f0c5784840389528151611eed8582611e88565b9450611ef883611e9c565b925060208a01995050600181019050611ed4565b50829750879550505050505092915050565b60006020820190508181036000830152611f388184611ea9565b905092915050565b600081519050919050565b600082825260208201905092915050565b6000819050602082019050919050565b600082825260208201905092915050565b6000611f8882611d92565b611f928185611f6c565b935083602082028501611fa485611dae565b8060005b85811015611fe05784840389528151611fc18582611e88565b9450611fcc83611e9c565b925060208a01995050600181019050611fa8565b50829750879550505050505092915050565b6000604083016000830151848203600086015261200f82826118e6565b915050602083015184820360208601526120298282611f7d565b9150508091505092915050565b60006120428383611ff2565b905092915050565b6000602082019050919050565b600061206282611f40565b61206c8185611f4b565b93508360208202850161207e85611f5c565b8060005b858110156120ba578484038952815161209b8582612036565b94506120a68361204a565b925060208a01995050600181019050612082565b50829750879550505050505092915050565b600060208201905081810360008301526120e68184612057565b905092915050565b600081905092915050565b600061210482611897565b61210e81856120ee565b935061211e8185602086016118b3565b80840191505092915050565b600061213682846120f9565b915081905092915050565b7f4e487b7100000000000000000000000000000000000000000000000000000000600052602260045260246000fd5b6000600282049050600182168061218857607f821691505b6020821081141561219c5761219b612141565b5b50919050565b7f4e487b7100000000000000000000000000000000000000000000000000000000600052601160045260246000fd5b60006121dc82611a69565b91506121e783611a69565b9250828210156121fa576121f96121a2565b5b828203905092915050565b7f4e487b7100000000000000000000000000000000000000000000000000000000600052603260045260246000fd5b600061223f82611a69565b91507fffffffffffffffffffffffffffffffffffffffffffffffffffffffffffffffff821415612272576122716121a2565b5b60018201905091905056fea26469706673582212208624b0964c378721a4cab1f572f2e05f1a5de51a11fd81ae5f52c3fa3ff6fe2a64736f6c634300080c0033",
  "immutableReferences": {},
  "source": "// SPDX-License-Identifier: MIT\npragma solidity >=0.4.22 <0.9.0;\n\ncontract Meteosc {\n\n    struct File {\n        string _name;\n        string _fullName;\n        string _firstMesure;\n        string _lastMesure;\n        string _data;\n    }\n\n    struct Days {\n        string _fullName;\n        File[] _days;\n    }\n\n    struct Global {\n        string _name;\n        Days[] _stations;\n    }\n\n    //kathe name ASIGONIA_20221010 antistixoi se allo struct file\n    mapping(string => mapping(string => File[])) public file;\n    mapping(string => string[]) public info;\n    string[] public stationNames;\n\n    constructor () {\n        addFile(\"ASI_1\", \"ASI\", \"2022/11/10\", \"2022/12/10\", \"fisrt_data\");\n        addFile(\"ASI_1\", \"ASI\", \"2022/11/10\", \"2022/12/10\", \"second_data\");\n        addFile(\"ASI_1\", \"ASI\", \"2022/11/10\", \"2022/12/10\", \"third_data\");\n        addFile(\"ASI_2\", \"ASI\", \"2022/20/11\", \"2022/25/11\", \"first_data\");\n        addFile(\"ASI_2\", \"ASI\", \"2022/20/11\", \"2022/25/11\", \"second_data\");\n        addFile(\"ASI_3\", \"ASI\", \"2022/25/11\", \"2022/05/12\", \"first_data\");\n        addFile(\"ASI_4\", \"ASI\", \"2022/05/12\", \"2022/15/12\", \"first_data\");\n        addFile(\"ASI_5\", \"ASI\", \"2022/15/12\", \"2023/10/01\", \"first_data\");\n        addFile(\"MEN_1\", \"MEN\", \"2021/11/10\", \"2021/12/10\", \"fisrt_data\");\n        addFile(\"MEN_2\", \"MEN\", \"2021/12/10\", \"2021/14/10\", \"first_data\");\n        addFile(\"AXA_1\", \"AXA\", \"2021/12/10\", \"2021/14/10\", \"first_data\");\n        addFile(\"AXA_1\", \"AXA\", \"2021/12/10\", \"2021/14/10\", \"second_data\");\n        addFile(\"AXA_2\", \"AXA\", \"2021/14/10\", \"2022/14/01\", \"first_data\");\n        addFile(\"AXA_2\", \"AXA\", \"2021/14/10\", \"2022/14/01\", \"second_data\");\n        addFile(\"AXA_2\", \"AXA\", \"2021/14/10\", \"2022/14/01\", \"third_data\");\n    }\n\n    function addFile(\n        string memory fullName, \n        string memory name, \n        string memory data, \n        string memory firstMesure, \n        string memory lastMesure\n    )public {\n        File memory curfile;\n\n        curfile._fullName = fullName;\n        curfile._name = name;\n        curfile._firstMesure = firstMesure;\n        curfile._lastMesure = lastMesure;\n        curfile._data = data;\n\n        if (info[name].length == 0) {\n            stationNames.push(name);\n        }\n        \n        if (file[name][fullName].length == 0) {\n            info[name].push(fullName);\n        }\n\n        file[name][fullName].push(curfile);\n    }\n\n    function getFile(\n        string memory name,\n        string memory fullName\n    )public view returns (File memory) {\n        return file[name][fullName][file[name][fullName].length - 1];\n    }\n\n    function getFileVertions(\n        string memory name,\n        string memory fullName\n    )public view returns (File[] memory) {\n        return file[name][fullName];\n    }\n\n    function getFileHistory(\n        string memory name\n    )public view returns (Days[] memory) {\n        uint lenInfo = info[name].length;\n        Days[] memory curD = new Days[](lenInfo);\n        for (uint i=0; i<lenInfo; i++) {\n            File[] memory curFile = getFileVertions(name, info[name][i]);\n            curD[i]._days = curFile;\n            curD[i]._fullName = info[name][i];\n        }\n        return curD;\n    }\n\n    function getAllFiles(\n    )public view returns (Global[] memory) {\n        uint lenSt = stationNames.length;\n        Global[] memory curS = new Global[](lenSt);\n        for (uint i=0; i<lenSt; i++) {\n            Days[] memory curFile = getFileHistory(stationNames[i]);\n            curS[i]._stations = curFile;\n            curS[i]._name = stationNames[i];\n        }\n        return curS;\n    }\n\n}\n",
  "sourcePath": "/home/gio/blockchain/firstdapp/contracts/Meteosc.sol",
  "compiler": {
    "name": "solc",
    "version": "0.8.12+commit.f00d7308.Emscripten.clang"
  },
  "schemaVersion": "3.4.6",
  "updatedAt": "2022-04-11T08:20:50.559Z",
  "networkType": "ethereum",
  "devdoc": {
    "kind": "dev",
    "methods": {},
    "version": 1
  },
  "userdoc": {
    "kind": "user",
    "methods": {},
    "version": 1
  }
}