{
  "contractName": "Meteosc",
  "abi": [
    {
      "inputs": [
        {
          "internalType": "string",
          "name": "",
          "type": "string"
        },
        {
          "internalType": "string",
          "name": "",
          "type": "string"
        },
        {
          "internalType": "uint256",
          "name": "",
          "type": "uint256"
        }
      ],
      "name": "file",
      "outputs": [
        {
          "internalType": "string",
          "name": "_fullName",
          "type": "string"
        },
        {
          "internalType": "string",
          "name": "_name",
          "type": "string"
        },
        {
          "internalType": "string",
          "name": "_hash",
          "type": "string"
        },
        {
          "internalType": "string",
          "name": "_firstMesure",
          "type": "string"
        },
        {
          "internalType": "string",
          "name": "_lastMesure",
          "type": "string"
        },
        {
          "internalType": "address",
          "name": "_address",
          "type": "address"
        }
      ],
      "stateMutability": "view",
      "type": "function",
      "constant": true
    },
    {
      "inputs": [
        {
          "internalType": "string",
          "name": "",
          "type": "string"
        },
        {
          "internalType": "uint256",
          "name": "",
          "type": "uint256"
        }
      ],
      "name": "info",
      "outputs": [
        {
          "internalType": "string",
          "name": "",
          "type": "string"
        }
      ],
      "stateMutability": "view",
      "type": "function",
      "constant": true
    },
    {
      "inputs": [
        {
          "internalType": "uint256",
          "name": "",
          "type": "uint256"
        }
      ],
      "name": "stationNames",
      "outputs": [
        {
          "internalType": "string",
          "name": "",
          "type": "string"
        }
      ],
      "stateMutability": "view",
      "type": "function",
      "constant": true
    },
    {
      "inputs": [
        {
          "internalType": "string",
          "name": "fullName",
          "type": "string"
        },
        {
          "internalType": "string",
          "name": "name",
          "type": "string"
        },
        {
          "internalType": "string",
          "name": "hashV",
          "type": "string"
        },
        {
          "internalType": "string",
          "name": "firstMesure",
          "type": "string"
        },
        {
          "internalType": "string",
          "name": "lastMesure",
          "type": "string"
        }
      ],
      "name": "addFile",
      "outputs": [],
      "stateMutability": "nonpayable",
      "type": "function"
    },
    {
      "inputs": [
        {
          "internalType": "string",
          "name": "name",
          "type": "string"
        },
        {
          "internalType": "string",
          "name": "fullName",
          "type": "string"
        }
      ],
      "name": "getFile",
      "outputs": [
        {
          "components": [
            {
              "internalType": "string",
              "name": "_fullName",
              "type": "string"
            },
            {
              "internalType": "string",
              "name": "_name",
              "type": "string"
            },
            {
              "internalType": "string",
              "name": "_hash",
              "type": "string"
            },
            {
              "internalType": "string",
              "name": "_firstMesure",
              "type": "string"
            },
            {
              "internalType": "string",
              "name": "_lastMesure",
              "type": "string"
            },
            {
              "internalType": "address",
              "name": "_address",
              "type": "address"
            }
          ],
          "internalType": "struct Meteosc.File",
          "name": "",
          "type": "tuple"
        }
      ],
      "stateMutability": "view",
      "type": "function",
      "constant": true
    },
    {
      "inputs": [
        {
          "internalType": "string",
          "name": "name",
          "type": "string"
        },
        {
          "internalType": "string",
          "name": "fullName",
          "type": "string"
        }
      ],
      "name": "getFileVertions",
      "outputs": [
        {
          "components": [
            {
              "internalType": "string",
              "name": "_fullName",
              "type": "string"
            },
            {
              "internalType": "string",
              "name": "_name",
              "type": "string"
            },
            {
              "internalType": "string",
              "name": "_hash",
              "type": "string"
            },
            {
              "internalType": "string",
              "name": "_firstMesure",
              "type": "string"
            },
            {
              "internalType": "string",
              "name": "_lastMesure",
              "type": "string"
            },
            {
              "internalType": "address",
              "name": "_address",
              "type": "address"
            }
          ],
          "internalType": "struct Meteosc.File[]",
          "name": "",
          "type": "tuple[]"
        }
      ],
      "stateMutability": "view",
      "type": "function",
      "constant": true
    },
    {
      "inputs": [
        {
          "internalType": "string",
          "name": "name",
          "type": "string"
        }
      ],
      "name": "getFileHistory",
      "outputs": [
        {
          "components": [
            {
              "internalType": "string",
              "name": "_fullName",
              "type": "string"
            },
            {
              "components": [
                {
                  "internalType": "string",
                  "name": "_fullName",
                  "type": "string"
                },
                {
                  "internalType": "string",
                  "name": "_name",
                  "type": "string"
                },
                {
                  "internalType": "string",
                  "name": "_hash",
                  "type": "string"
                },
                {
                  "internalType": "string",
                  "name": "_firstMesure",
                  "type": "string"
                },
                {
                  "internalType": "string",
                  "name": "_lastMesure",
                  "type": "string"
                },
                {
                  "internalType": "address",
                  "name": "_address",
                  "type": "address"
                }
              ],
              "internalType": "struct Meteosc.File[]",
              "name": "_days",
              "type": "tuple[]"
            }
          ],
          "internalType": "struct Meteosc.Days[]",
          "name": "",
          "type": "tuple[]"
        }
      ],
      "stateMutability": "view",
      "type": "function",
      "constant": true
    },
    {
      "inputs": [],
      "name": "getAllFiles",
      "outputs": [
        {
          "components": [
            {
              "internalType": "string",
              "name": "_name",
              "type": "string"
            },
            {
              "components": [
                {
                  "internalType": "string",
                  "name": "_fullName",
                  "type": "string"
                },
                {
                  "components": [
                    {
                      "internalType": "string",
                      "name": "_fullName",
                      "type": "string"
                    },
                    {
                      "internalType": "string",
                      "name": "_name",
                      "type": "string"
                    },
                    {
                      "internalType": "string",
                      "name": "_hash",
                      "type": "string"
                    },
                    {
                      "internalType": "string",
                      "name": "_firstMesure",
                      "type": "string"
                    },
                    {
                      "internalType": "string",
                      "name": "_lastMesure",
                      "type": "string"
                    },
                    {
                      "internalType": "address",
                      "name": "_address",
                      "type": "address"
                    }
                  ],
                  "internalType": "struct Meteosc.File[]",
                  "name": "_days",
                  "type": "tuple[]"
                }
              ],
              "internalType": "struct Meteosc.Days[]",
              "name": "_stations",
              "type": "tuple[]"
            }
          ],
          "internalType": "struct Meteosc.Global[]",
          "name": "",
          "type": "tuple[]"
        }
      ],
      "stateMutability": "view",
      "type": "function",
      "constant": true
    },
    {
      "inputs": [
        {
          "internalType": "string",
          "name": "name",
          "type": "string"
        },
        {
          "internalType": "string",
          "name": "fullName",
          "type": "string"
        },
        {
          "internalType": "string",
          "name": "hashV",
          "type": "string"
        }
      ],
      "name": "verifyHash",
      "outputs": [
        {
          "internalType": "bool",
          "name": "",
          "type": "bool"
        }
      ],
      "stateMutability": "view",
      "type": "function",
      "constant": true
    }
  ],
  "bytecode": "0x608060405234801561001057600080fd5b50612686806100206000396000f3fe608060405234801561001057600080fd5b50600436106100935760003560e01c80635c2949f1116100665780635c2949f11461014457806391548ace14610174578063dfcc443d146101a4578063ee9125bc146101d9578063ff24b5d51461020957610093565b80630a7fac44146100985780633cb37b48146100b4578063473e8106146100e4578063517ceb0614610114575b600080fd5b6100b260048036038101906100ad919061195e565b610227565b005b6100ce60048036038101906100c99190611a65565b6104df565b6040516100db9190611d0d565b60405180910390f35b6100fe60048036038101906100f99190611d65565b6108a9565b60405161010b9190611e0b565b60405180910390f35b61012e60048036038101906101299190611e2d565b610978565b60405161013b9190611e0b565b60405180910390f35b61015e60048036038101906101599190611e5a565b610a24565b60405161016b9190611f1c565b60405180910390f35b61018e60048036038101906101899190611a65565b610aa2565b60405161019b9190611fdc565b60405180910390f35b6101be60048036038101906101b99190611ffe565b610eda565b6040516101d096959493929190612098565b60405180910390f35b6101f360048036038101906101ee919061211c565b611234565b60405161020091906122f1565b60405180910390f35b6102116114b6565b60405161021e919061249f565b60405180910390f35b61022f6116e1565b858160000181905250848160200181905250828160600181905250818160800181905250838160400181905250338160a0019073ffffffffffffffffffffffffffffffffffffffff16908173ffffffffffffffffffffffffffffffffffffffff168152505060006001866040516102a691906124fd565b90815260200160405180910390208054905014156102fb576002859080600181540180825580915050600190039060005260206000200160009091909190915090805190602001906102f992919061172d565b505b6000808660405161030c91906124fd565b90815260200160405180910390208760405161032891906124fd565b90815260200160405180910390208054905014156103995760018560405161035091906124fd565b90815260200160405180910390208690806001815401808255809150506001900390600052602060002001600090919091909150908051906020019061039792919061172d565b505b6000856040516103a991906124fd565b9081526020016040518091039020866040516103c591906124fd565b9081526020016040518091039020819080600181540180825580915050600190039060005260206000209060060201600090919091909150600082015181600001908051906020019061041992919061172d565b50602082015181600101908051906020019061043692919061172d565b50604082015181600201908051906020019061045392919061172d565b50606082015181600301908051906020019061047092919061172d565b50608082015181600401908051906020019061048d92919061172d565b5060a08201518160050160006101000a81548173ffffffffffffffffffffffffffffffffffffffff021916908373ffffffffffffffffffffffffffffffffffffffff1602179055505050505050505050565b60606000836040516104f191906124fd565b90815260200160405180910390208260405161050d91906124fd565b9081526020016040518091039020805480602002602001604051908101604052809291908181526020016000905b8282101561089d57838290600052602060002090600602016040518060c001604052908160008201805461056e90612543565b80601f016020809104026020016040519081016040528092919081815260200182805461059a90612543565b80156105e75780601f106105bc576101008083540402835291602001916105e7565b820191906000526020600020905b8154815290600101906020018083116105ca57829003601f168201915b5050505050815260200160018201805461060090612543565b80601f016020809104026020016040519081016040528092919081815260200182805461062c90612543565b80156106795780601f1061064e57610100808354040283529160200191610679565b820191906000526020600020905b81548152906001019060200180831161065c57829003601f168201915b5050505050815260200160028201805461069290612543565b80601f01602080910402602001604051908101604052809291908181526020018280546106be90612543565b801561070b5780601f106106e05761010080835404028352916020019161070b565b820191906000526020600020905b8154815290600101906020018083116106ee57829003601f168201915b5050505050815260200160038201805461072490612543565b80601f016020809104026020016040519081016040528092919081815260200182805461075090612543565b801561079d5780601f106107725761010080835404028352916020019161079d565b820191906000526020600020905b81548152906001019060200180831161078057829003601f168201915b505050505081526020016004820180546107b690612543565b80601f01602080910402602001604051908101604052809291908181526020018280546107e290612543565b801561082f5780601f106108045761010080835404028352916020019161082f565b820191906000526020600020905b81548152906001019060200180831161081257829003601f168201915b505050505081526020016005820160009054906101000a900473ffffffffffffffffffffffffffffffffffffffff1673ffffffffffffffffffffffffffffffffffffffff1673ffffffffffffffffffffffffffffffffffffffff16815250508152602001906001019061053b565b50505050905092915050565b60018280516020810182018051848252602083016020850120818352809550505050505081815481106108db57600080fd5b906000526020600020016000915091505080546108f790612543565b80601f016020809104026020016040519081016040528092919081815260200182805461092390612543565b80156109705780601f1061094557610100808354040283529160200191610970565b820191906000526020600020905b81548152906001019060200180831161095357829003601f168201915b505050505081565b6002818154811061098857600080fd5b9060005260206000200160009150905080546109a390612543565b80601f01602080910402602001604051908101604052809291908181526020018280546109cf90612543565b8015610a1c5780601f106109f157610100808354040283529160200191610a1c565b820191906000526020600020905b8154815290600101906020018083116109ff57829003601f168201915b505050505081565b600080610a318585610aa2565b905082604051602001610a4491906124fd565b604051602081830303815290604052805190602001208160400151604051602001610a6f91906124fd565b604051602081830303815290604052805190602001201415610a95576001915050610a9b565b60009150505b9392505050565b610aaa6116e1565b60008084604051610abb91906124fd565b908152602001604051809103902083604051610ad791906124fd565b90815260200160405180910390208054905014610ed357600083604051610afe91906124fd565b908152602001604051809103902082604051610b1a91906124fd565b90815260200160405180910390206001600085604051610b3a91906124fd565b908152602001604051809103902084604051610b5691906124fd565b908152602001604051809103902080549050610b7291906125a4565b81548110610b8357610b826125d8565b5b90600052602060002090600602016040518060c0016040529081600082018054610bac90612543565b80601f0160208091040260200160405190810160405280929190818152602001828054610bd890612543565b8015610c255780601f10610bfa57610100808354040283529160200191610c25565b820191906000526020600020905b815481529060010190602001808311610c0857829003601f168201915b50505050508152602001600182018054610c3e90612543565b80601f0160208091040260200160405190810160405280929190818152602001828054610c6a90612543565b8015610cb75780601f10610c8c57610100808354040283529160200191610cb7565b820191906000526020600020905b815481529060010190602001808311610c9a57829003601f168201915b50505050508152602001600282018054610cd090612543565b80601f0160208091040260200160405190810160405280929190818152602001828054610cfc90612543565b8015610d495780601f10610d1e57610100808354040283529160200191610d49565b820191906000526020600020905b815481529060010190602001808311610d2c57829003601f168201915b50505050508152602001600382018054610d6290612543565b80601f0160208091040260200160405190810160405280929190818152602001828054610d8e90612543565b8015610ddb5780601f10610db057610100808354040283529160200191610ddb565b820191906000526020600020905b815481529060010190602001808311610dbe57829003601f168201915b50505050508152602001600482018054610df490612543565b80601f0160208091040260200160405190810160405280929190818152602001828054610e2090612543565b8015610e6d5780601f10610e4257610100808354040283529160200191610e6d565b820191906000526020600020905b815481529060010190602001808311610e5057829003601f168201915b505050505081526020016005820160009054906101000a900473ffffffffffffffffffffffffffffffffffffffff1673ffffffffffffffffffffffffffffffffffffffff1673ffffffffffffffffffffffffffffffffffffffff16815250509050610ed4565b5b92915050565b600083805160208101820180518482526020830160208501208183528095505050505050828051602081018201805184825260208301602085012081835280955050505050508181548110610f2e57600080fd5b90600052602060002090600602016000925092505050806000018054610f5390612543565b80601f0160208091040260200160405190810160405280929190818152602001828054610f7f90612543565b8015610fcc5780601f10610fa157610100808354040283529160200191610fcc565b820191906000526020600020905b815481529060010190602001808311610faf57829003601f168201915b505050505090806001018054610fe190612543565b80601f016020809104026020016040519081016040528092919081815260200182805461100d90612543565b801561105a5780601f1061102f5761010080835404028352916020019161105a565b820191906000526020600020905b81548152906001019060200180831161103d57829003601f168201915b50505050509080600201805461106f90612543565b80601f016020809104026020016040519081016040528092919081815260200182805461109b90612543565b80156110e85780601f106110bd576101008083540402835291602001916110e8565b820191906000526020600020905b8154815290600101906020018083116110cb57829003601f168201915b5050505050908060030180546110fd90612543565b80601f016020809104026020016040519081016040528092919081815260200182805461112990612543565b80156111765780601f1061114b57610100808354040283529160200191611176565b820191906000526020600020905b81548152906001019060200180831161115957829003601f168201915b50505050509080600401805461118b90612543565b80601f01602080910402602001604051908101604052809291908181526020018280546111b790612543565b80156112045780601f106111d957610100808354040283529160200191611204565b820191906000526020600020905b8154815290600101906020018083116111e757829003601f168201915b5050505050908060050160009054906101000a900473ffffffffffffffffffffffffffffffffffffffff16905086565b6060600060018360405161124891906124fd565b908152602001604051809103902080549050905060008167ffffffffffffffff81111561127857611277611833565b5b6040519080825280602002602001820160405280156112b157816020015b61129e6117b3565b8152602001906001900390816112965790505b50905060005b828110156114ab57600061138d866001886040516112d591906124fd565b908152602001604051809103902084815481106112f5576112f46125d8565b5b90600052602060002001805461130a90612543565b80601f016020809104026020016040519081016040528092919081815260200182805461133690612543565b80156113835780601f1061135857610100808354040283529160200191611383565b820191906000526020600020905b81548152906001019060200180831161136657829003601f168201915b50505050506104df565b9050808383815181106113a3576113a26125d8565b5b6020026020010151602001819052506001866040516113c291906124fd565b908152602001604051809103902082815481106113e2576113e16125d8565b5b9060005260206000200180546113f790612543565b80601f016020809104026020016040519081016040528092919081815260200182805461142390612543565b80156114705780601f1061144557610100808354040283529160200191611470565b820191906000526020600020905b81548152906001019060200180831161145357829003601f168201915b5050505050838381518110611488576114876125d8565b5b6020026020010151600001819052505080806114a390612607565b9150506112b7565b508092505050919050565b60606000600280549050905060008167ffffffffffffffff8111156114de576114dd611833565b5b60405190808252806020026020018201604052801561151757816020015b6115046117cd565b8152602001906001900390816114fc5790505b50905060005b828110156116d85760006115d66002838154811061153e5761153d6125d8565b5b90600052602060002001805461155390612543565b80601f016020809104026020016040519081016040528092919081815260200182805461157f90612543565b80156115cc5780601f106115a1576101008083540402835291602001916115cc565b820191906000526020600020905b8154815290600101906020018083116115af57829003601f168201915b5050505050611234565b9050808383815181106115ec576115eb6125d8565b5b6020026020010151602001819052506002828154811061160f5761160e6125d8565b5b90600052602060002001805461162490612543565b80601f016020809104026020016040519081016040528092919081815260200182805461165090612543565b801561169d5780601f106116725761010080835404028352916020019161169d565b820191906000526020600020905b81548152906001019060200180831161168057829003601f168201915b50505050508383815181106116b5576116b46125d8565b5b6020026020010151600001819052505080806116d090612607565b91505061151d565b50809250505090565b6040518060c001604052806060815260200160608152602001606081526020016060815260200160608152602001600073ffffffffffffffffffffffffffffffffffffffff1681525090565b82805461173990612543565b90600052602060002090601f01602090048101928261175b57600085556117a2565b82601f1061177457805160ff19168380011785556117a2565b828001600101855582156117a2579182015b828111156117a1578251825591602001919060010190611786565b5b5090506117af91906117e7565b5090565b604051806040016040528060608152602001606081525090565b604051806040016040528060608152602001606081525090565b5b808211156118005760008160009055506001016117e8565b5090565b6000604051905090565b600080fd5b600080fd5b600080fd5b600080fd5b6000601f19601f8301169050919050565b7f4e487b7100000000000000000000000000000000000000000000000000000000600052604160045260246000fd5b61186b82611822565b810181811067ffffffffffffffff8211171561188a57611889611833565b5b80604052505050565b600061189d611804565b90506118a98282611862565b919050565b600067ffffffffffffffff8211156118c9576118c8611833565b5b6118d282611822565b9050602081019050919050565b82818337600083830152505050565b60006119016118fc846118ae565b611893565b90508281526020810184848401111561191d5761191c61181d565b5b6119288482856118df565b509392505050565b600082601f83011261194557611944611818565b5b81356119558482602086016118ee565b91505092915050565b600080600080600060a0868803121561197a5761197961180e565b5b600086013567ffffffffffffffff81111561199857611997611813565b5b6119a488828901611930565b955050602086013567ffffffffffffffff8111156119c5576119c4611813565b5b6119d188828901611930565b945050604086013567ffffffffffffffff8111156119f2576119f1611813565b5b6119fe88828901611930565b935050606086013567ffffffffffffffff811115611a1f57611a1e611813565b5b611a2b88828901611930565b925050608086013567ffffffffffffffff811115611a4c57611a4b611813565b5b611a5888828901611930565b9150509295509295909350565b60008060408385031215611a7c57611a7b61180e565b5b600083013567ffffffffffffffff811115611a9a57611a99611813565b5b611aa685828601611930565b925050602083013567ffffffffffffffff811115611ac757611ac6611813565b5b611ad385828601611930565b9150509250929050565b600081519050919050565b600082825260208201905092915050565b6000819050602082019050919050565b600081519050919050565b600082825260208201905092915050565b60005b83811015611b43578082015181840152602081019050611b28565b83811115611b52576000848401525b50505050565b6000611b6382611b09565b611b6d8185611b14565b9350611b7d818560208601611b25565b611b8681611822565b840191505092915050565b600073ffffffffffffffffffffffffffffffffffffffff82169050919050565b6000611bbc82611b91565b9050919050565b611bcc81611bb1565b82525050565b600060c0830160008301518482036000860152611bef8282611b58565b91505060208301518482036020860152611c098282611b58565b91505060408301518482036040860152611c238282611b58565b91505060608301518482036060860152611c3d8282611b58565b91505060808301518482036080860152611c578282611b58565b91505060a0830151611c6c60a0860182611bc3565b508091505092915050565b6000611c838383611bd2565b905092915050565b6000602082019050919050565b6000611ca382611add565b611cad8185611ae8565b935083602082028501611cbf85611af9565b8060005b85811015611cfb5784840389528151611cdc8582611c77565b9450611ce783611c8b565b925060208a01995050600181019050611cc3565b50829750879550505050505092915050565b60006020820190508181036000830152611d278184611c98565b905092915050565b6000819050919050565b611d4281611d2f565b8114611d4d57600080fd5b50565b600081359050611d5f81611d39565b92915050565b60008060408385031215611d7c57611d7b61180e565b5b600083013567ffffffffffffffff811115611d9a57611d99611813565b5b611da685828601611930565b9250506020611db785828601611d50565b9150509250929050565b600082825260208201905092915050565b6000611ddd82611b09565b611de78185611dc1565b9350611df7818560208601611b25565b611e0081611822565b840191505092915050565b60006020820190508181036000830152611e258184611dd2565b905092915050565b600060208284031215611e4357611e4261180e565b5b6000611e5184828501611d50565b91505092915050565b600080600060608486031215611e7357611e7261180e565b5b600084013567ffffffffffffffff811115611e9157611e90611813565b5b611e9d86828701611930565b935050602084013567ffffffffffffffff811115611ebe57611ebd611813565b5b611eca86828701611930565b925050604084013567ffffffffffffffff811115611eeb57611eea611813565b5b611ef786828701611930565b9150509250925092565b60008115159050919050565b611f1681611f01565b82525050565b6000602082019050611f316000830184611f0d565b92915050565b600060c0830160008301518482036000860152611f548282611b58565b91505060208301518482036020860152611f6e8282611b58565b91505060408301518482036040860152611f888282611b58565b91505060608301518482036060860152611fa28282611b58565b91505060808301518482036080860152611fbc8282611b58565b91505060a0830151611fd160a0860182611bc3565b508091505092915050565b60006020820190508181036000830152611ff68184611f37565b905092915050565b6000806000606084860312156120175761201661180e565b5b600084013567ffffffffffffffff81111561203557612034611813565b5b61204186828701611930565b935050602084013567ffffffffffffffff81111561206257612061611813565b5b61206e86828701611930565b925050604061207f86828701611d50565b9150509250925092565b61209281611bb1565b82525050565b600060c08201905081810360008301526120b28189611dd2565b905081810360208301526120c68188611dd2565b905081810360408301526120da8187611dd2565b905081810360608301526120ee8186611dd2565b905081810360808301526121028185611dd2565b905061211160a0830184612089565b979650505050505050565b6000602082840312156121325761213161180e565b5b600082013567ffffffffffffffff8111156121505761214f611813565b5b61215c84828501611930565b91505092915050565b600081519050919050565b600082825260208201905092915050565b6000819050602082019050919050565b600082825260208201905092915050565b60006121ad82611add565b6121b78185612191565b9350836020820285016121c985611af9565b8060005b8581101561220557848403895281516121e68582611c77565b94506121f183611c8b565b925060208a019950506001810190506121cd565b50829750879550505050505092915050565b600060408301600083015184820360008601526122348282611b58565b9150506020830151848203602086015261224e82826121a2565b9150508091505092915050565b60006122678383612217565b905092915050565b6000602082019050919050565b600061228782612165565b6122918185612170565b9350836020820285016122a385612181565b8060005b858110156122df57848403895281516122c0858261225b565b94506122cb8361226f565b925060208a019950506001810190506122a7565b50829750879550505050505092915050565b6000602082019050818103600083015261230b818461227c565b905092915050565b600081519050919050565b600082825260208201905092915050565b6000819050602082019050919050565b600082825260208201905092915050565b600061235b82612165565b612365818561233f565b93508360208202850161237785612181565b8060005b858110156123b35784840389528151612394858261225b565b945061239f8361226f565b925060208a0199505060018101905061237b565b50829750879550505050505092915050565b600060408301600083015184820360008601526123e28282611b58565b915050602083015184820360208601526123fc8282612350565b9150508091505092915050565b600061241583836123c5565b905092915050565b6000602082019050919050565b600061243582612313565b61243f818561231e565b9350836020820285016124518561232f565b8060005b8581101561248d578484038952815161246e8582612409565b94506124798361241d565b925060208a01995050600181019050612455565b50829750879550505050505092915050565b600060208201905081810360008301526124b9818461242a565b905092915050565b600081905092915050565b60006124d782611b09565b6124e181856124c1565b93506124f1818560208601611b25565b80840191505092915050565b600061250982846124cc565b915081905092915050565b7f4e487b7100000000000000000000000000000000000000000000000000000000600052602260045260246000fd5b6000600282049050600182168061255b57607f821691505b6020821081141561256f5761256e612514565b5b50919050565b7f4e487b7100000000000000000000000000000000000000000000000000000000600052601160045260246000fd5b60006125af82611d2f565b91506125ba83611d2f565b9250828210156125cd576125cc612575565b5b828203905092915050565b7f4e487b7100000000000000000000000000000000000000000000000000000000600052603260045260246000fd5b600061261282611d2f565b91507fffffffffffffffffffffffffffffffffffffffffffffffffffffffffffffffff82141561264557612644612575565b5b60018201905091905056fea2646970667358221220c0a15ad952a2a15c0390f2518c1549422e3b236825efd6a63552fd68a7b1777a64736f6c634300080c0033",
  "immutableReferences": {},
  "source": "// SPDX-License-Identifier: MIT\npragma solidity >=0.4.22 <0.9.0;\n\ncontract Meteosc {\n\n    struct File {\n        string _fullName;\n        string _name;\n        string _hash;\n        string _firstMesure;\n        string _lastMesure;\n        address _address;\n    }\n\n    struct Days {\n        string _fullName;\n        File[] _days;\n    }\n\n    struct Global {\n        string _name;\n        Days[] _stations;\n    }\n\n    //kathe name ASIGONIA_20221010 antistixoi se allo struct file\n    mapping(string => mapping(string => File[])) public file;\n    mapping(string => string[]) public info;\n    string[] public stationNames;\n\n    // constructor () {\n    //     addFile(\"ASI_1\", \"ASI\", \"fisrt_hash\", \"2022/11/10\", \"2022/12/10\");\n    //     addFile(\"ASI_1\", \"ASI\", \"second_hash\", \"2022/11/10\", \"2022/12/10\");\n    //     addFile(\"ASI_1\", \"ASI\", \"third_hash\", \"2022/11/10\", \"2022/12/10\");\n    //     addFile(\"ASI_2\", \"ASI\", \"fisrt_hash\", \"2022/20/11\", \"2022/25/11\");\n    //     addFile(\"ASI_2\", \"ASI\", \"second_hash\", \"2022/20/11\", \"2022/25/11\");\n    //     addFile(\"ASI_3\", \"ASI\", \"fisrt_hash\", \"2022/25/11\", \"2022/05/12\");\n    //     addFile(\"ASI_4\", \"ASI\", \"fisrt_hash\", \"2022/05/12\", \"2022/15/12\");\n    //     addFile(\"ASI_5\", \"ASI\", \"fisrt_hash\", \"2022/15/12\", \"2023/10/01\");\n    //     addFile(\"MEN_1\", \"MEN\", \"fisrt_hash\", \"2021/11/10\", \"2021/12/10\");\n    //     addFile(\"MEN_2\", \"MEN\", \"fisrt_hash\", \"2021/12/10\", \"2021/14/10\");\n    //     addFile(\"AXA_1\", \"AXA\", \"fisrt_hash\", \"2021/12/10\", \"2021/14/10\");\n    //     addFile(\"AXA_1\", \"AXA\", \"second_hash\", \"2021/12/10\", \"2021/14/10\");\n    //     addFile(\"AXA_2\", \"AXA\", \"fisrt_hash\", \"2021/14/10\", \"2022/14/01\");\n    // }\n\n    function addFile(\n        string memory fullName, \n        string memory name, \n        string memory hashV, \n        string memory firstMesure, \n        string memory lastMesure\n    )public {\n        File memory curfile;\n\n        curfile._fullName = fullName;\n        curfile._name = name;\n        curfile._firstMesure = firstMesure;\n        curfile._lastMesure = lastMesure;\n        curfile._hash = hashV;\n        curfile._address = msg.sender;\n\n        if (info[name].length == 0) {\n            stationNames.push(name);\n        }\n        \n        if (file[name][fullName].length == 0) {\n            info[name].push(fullName);\n        }\n\n        file[name][fullName].push(curfile);\n    }\n\n    function getFile(\n        string memory name,\n        string memory fullName\n    )public view returns (File memory) {\n        if (file[name][fullName].length != 0) \n            return file[name][fullName][file[name][fullName].length - 1];\n    }\n\n    function getFileVertions(\n        string memory name,\n        string memory fullName\n    )public view returns (File[] memory) {\n        return file[name][fullName];\n    }\n\n    function getFileHistory(\n        string memory name\n    )public view returns (Days[] memory) {\n        uint lenInfo = info[name].length;\n        Days[] memory curD = new Days[](lenInfo);\n        for (uint i=0; i<lenInfo; i++) {\n            File[] memory curFile = getFileVertions(name, info[name][i]);\n            curD[i]._days = curFile;\n            curD[i]._fullName = info[name][i];\n        }\n        return curD;\n    }\n\n    function getAllFiles(\n    )public view returns (Global[] memory) {\n        uint lenSt = stationNames.length;\n        Global[] memory curS = new Global[](lenSt);\n        for (uint i=0; i<lenSt; i++) {\n            Days[] memory curFile = getFileHistory(stationNames[i]);\n            curS[i]._stations = curFile;\n            curS[i]._name = stationNames[i];\n        }\n        return curS;\n    }\n\n    function verifyHash(\n        string memory name,\n        string memory fullName,\n        string memory hashV\n    )public view returns (bool) {\n        File memory selectedFile = getFile(name, fullName);\n        if (keccak256(abi.encodePacked(selectedFile._hash)) == keccak256(abi.encodePacked(hashV))) {\n            return true;\n        }else {\n            return false;\n        }\n    }\n\n}\n",
  "sourcePath": "/home/gio/blockchain/firstdapp/contracts/Meteosc.sol",
  "compiler": {
    "name": "solc",
    "version": "0.8.12+commit.f00d7308.Emscripten.clang"
  },
  "schemaVersion": "3.4.6",
  "updatedAt": "2022-05-03T12:12:23.156Z",
  "networkType": "ethereum",
  "devdoc": {
    "kind": "dev",
    "methods": {},
    "version": 1
  },
  "userdoc": {
    "kind": "user",
    "methods": {},
    "version": 1
  }
}