{
  "contractName": "Meteosc",
  "abi": [
    {
      "inputs": [],
      "stateMutability": "nonpayable",
      "type": "constructor"
    },
    {
      "inputs": [
        {
          "internalType": "string",
          "name": "",
          "type": "string"
        },
        {
          "internalType": "uint256",
          "name": "",
          "type": "uint256"
        }
      ],
      "name": "file",
      "outputs": [
        {
          "internalType": "string",
          "name": "_fullName",
          "type": "string"
        },
        {
          "internalType": "string",
          "name": "_name",
          "type": "string"
        },
        {
          "internalType": "string",
          "name": "_firstMesure",
          "type": "string"
        },
        {
          "internalType": "string",
          "name": "_lastMesure",
          "type": "string"
        },
        {
          "internalType": "string",
          "name": "_data",
          "type": "string"
        }
      ],
      "stateMutability": "view",
      "type": "function",
      "constant": true
    },
    {
      "inputs": [
        {
          "internalType": "string",
          "name": "fullName",
          "type": "string"
        },
        {
          "internalType": "string",
          "name": "name",
          "type": "string"
        },
        {
          "internalType": "string",
          "name": "data",
          "type": "string"
        },
        {
          "internalType": "string",
          "name": "firstMesure",
          "type": "string"
        },
        {
          "internalType": "string",
          "name": "lastMesure",
          "type": "string"
        }
      ],
      "name": "addFile",
      "outputs": [],
      "stateMutability": "nonpayable",
      "type": "function"
    },
    {
      "inputs": [
        {
          "internalType": "string",
          "name": "fullName",
          "type": "string"
        }
      ],
      "name": "getFile",
      "outputs": [
        {
          "internalType": "string",
          "name": "",
          "type": "string"
        },
        {
          "internalType": "string",
          "name": "",
          "type": "string"
        },
        {
          "internalType": "string",
          "name": "",
          "type": "string"
        },
        {
          "internalType": "string",
          "name": "",
          "type": "string"
        },
        {
          "internalType": "string",
          "name": "",
          "type": "string"
        }
      ],
      "stateMutability": "view",
      "type": "function",
      "constant": true
    },
    {
      "inputs": [
        {
          "internalType": "string",
          "name": "fullName",
          "type": "string"
        }
      ],
      "name": "getFileHistory",
      "outputs": [
        {
          "components": [
            {
              "internalType": "string",
              "name": "_fullName",
              "type": "string"
            },
            {
              "internalType": "string",
              "name": "_name",
              "type": "string"
            },
            {
              "internalType": "string",
              "name": "_firstMesure",
              "type": "string"
            },
            {
              "internalType": "string",
              "name": "_lastMesure",
              "type": "string"
            },
            {
              "internalType": "string",
              "name": "_data",
              "type": "string"
            }
          ],
          "internalType": "struct Meteosc.File[]",
          "name": "",
          "type": "tuple[]"
        }
      ],
      "stateMutability": "view",
      "type": "function",
      "constant": true
    }
  ],
  "bytecode": "0x60806040523480156200001157600080fd5b50620001306040518060400160405280600a81526020017f415349474f4e49415f31000000000000000000000000000000000000000000008152506040518060400160405280600881526020017f415349474f4e49410000000000000000000000000000000000000000000000008152506040518060400160405280600a81526020017f323032322f31312f3130000000000000000000000000000000000000000000008152506040518060400160405280600a81526020017f323032322f31322f3130000000000000000000000000000000000000000000008152506040518060400160405280600a81526020017f66697372745f6461746100000000000000000000000000000000000000000000815250620005ae60201b60201c565b6200024e6040518060400160405280600881526020017f4d454e4944495f310000000000000000000000000000000000000000000000008152506040518060400160405280600681526020017f4d454e49444900000000000000000000000000000000000000000000000000008152506040518060400160405280600a81526020017f323032312f31312f3130000000000000000000000000000000000000000000008152506040518060400160405280600a81526020017f323032312f31322f3130000000000000000000000000000000000000000000008152506040518060400160405280600a81526020017f66697372745f6461746100000000000000000000000000000000000000000000815250620005ae60201b60201c565b6200036c6040518060400160405280600a81526020017f415349474f4e49415f31000000000000000000000000000000000000000000008152506040518060400160405280600881526020017f415349474f4e49410000000000000000000000000000000000000000000000008152506040518060400160405280600a81526020017f323032322f31312f3130000000000000000000000000000000000000000000008152506040518060400160405280600a81526020017f323032322f31322f3130000000000000000000000000000000000000000000008152506040518060400160405280600b81526020017f7365636f6e645f64617461000000000000000000000000000000000000000000815250620005ae60201b60201c565b6200048a6040518060400160405280600a81526020017f415349474f4e49415f31000000000000000000000000000000000000000000008152506040518060400160405280600881526020017f415349474f4e49410000000000000000000000000000000000000000000000008152506040518060400160405280600a81526020017f323032322f32302f3130000000000000000000000000000000000000000000008152506040518060400160405280600a81526020017f323032322f31322f3130000000000000000000000000000000000000000000008152506040518060400160405280600a81526020017f74686972645f6461746100000000000000000000000000000000000000000000815250620005ae60201b60201c565b620005a86040518060400160405280600881526020017f4d454e4944495f320000000000000000000000000000000000000000000000008152506040518060400160405280600681526020017f4d454e49444900000000000000000000000000000000000000000000000000008152506040518060400160405280600a81526020017f323032312f31332f3130000000000000000000000000000000000000000000008152506040518060400160405280600a81526020017f323032312f31342f3130000000000000000000000000000000000000000000008152506040518060400160405280600a81526020017f66697273745f6461746100000000000000000000000000000000000000000000815250620005ae60201b60201c565b620008b4565b620005b8620006d4565b858160000181905250848160200181905250828160400181905250818160600181905250838160800181905250600086604051620005f7919062000836565b908152602001604051809103902081908060018154018082558091505060019003906000526020600020906005020160009091909190915060008201518160000190805190602001906200064d92919062000703565b5060208201518160010190805190602001906200066c92919062000703565b5060408201518160020190805190602001906200068b92919062000703565b506060820151816003019080519060200190620006aa92919062000703565b506080820151816004019080519060200190620006c992919062000703565b505050505050505050565b6040518060a0016040528060608152602001606081526020016060815260200160608152602001606081525090565b82805462000711906200087e565b90600052602060002090601f01602090048101928262000735576000855562000781565b82601f106200075057805160ff191683800117855562000781565b8280016001018555821562000781579182015b828111156200078057825182559160200191906001019062000763565b5b50905062000790919062000794565b5090565b5b80821115620007af57600081600090555060010162000795565b5090565b600081519050919050565b600081905092915050565b60005b83811015620007e9578082015181840152602081019050620007cc565b83811115620007f9576000848401525b50505050565b60006200080c82620007b3565b620008188185620007be565b93506200082a818560208601620007c9565b80840191505092915050565b6000620008448284620007ff565b915081905092915050565b7f4e487b7100000000000000000000000000000000000000000000000000000000600052602260045260246000fd5b600060028204905060018216806200089757607f821691505b60208210811415620008ae57620008ad6200084f565b5b50919050565b61145580620008c46000396000f3fe608060405234801561001057600080fd5b506004361061004c5760003560e01c80630a7fac4414610051578063d4a60d1f1461006d578063e0876aa8146100a1578063ee9125bc146100d5575b600080fd5b61006b60048036038101906100669190610e39565b610105565b005b61008760048036038101906100829190610f76565b61021d565b60405161009895949392919061105a565b60405180910390f35b6100bb60048036038101906100b691906110d0565b61052e565b6040516100cc95949392919061105a565b60405180910390f35b6100ef60048036038101906100ea91906110d0565b6108b6565b6040516100fc91906112b7565b60405180910390f35b61010d610c0d565b85816000018190525084816020018190525082816040018190525081816060018190525083816080018190525060008660405161014a9190611315565b9081526020016040518091039020819080600181540180825580915050600190039060005260206000209060050201600090919091909150600082015181600001908051906020019061019e929190610c3c565b5060208201518160010190805190602001906101bb929190610c3c565b5060408201518160020190805190602001906101d8929190610c3c565b5060608201518160030190805190602001906101f5929190610c3c565b506080820151816004019080519060200190610212929190610c3c565b505050505050505050565b600082805160208101820180518482526020830160208501208183528095505050505050818154811061024f57600080fd5b9060005260206000209060050201600091509150508060000180546102739061135b565b80601f016020809104026020016040519081016040528092919081815260200182805461029f9061135b565b80156102ec5780601f106102c1576101008083540402835291602001916102ec565b820191906000526020600020905b8154815290600101906020018083116102cf57829003601f168201915b5050505050908060010180546103019061135b565b80601f016020809104026020016040519081016040528092919081815260200182805461032d9061135b565b801561037a5780601f1061034f5761010080835404028352916020019161037a565b820191906000526020600020905b81548152906001019060200180831161035d57829003601f168201915b50505050509080600201805461038f9061135b565b80601f01602080910402602001604051908101604052809291908181526020018280546103bb9061135b565b80156104085780601f106103dd57610100808354040283529160200191610408565b820191906000526020600020905b8154815290600101906020018083116103eb57829003601f168201915b50505050509080600301805461041d9061135b565b80601f01602080910402602001604051908101604052809291908181526020018280546104499061135b565b80156104965780601f1061046b57610100808354040283529160200191610496565b820191906000526020600020905b81548152906001019060200180831161047957829003601f168201915b5050505050908060040180546104ab9061135b565b80601f01602080910402602001604051908101604052809291908181526020018280546104d79061135b565b80156105245780601f106104f957610100808354040283529160200191610524565b820191906000526020600020905b81548152906001019060200180831161050757829003601f168201915b5050505050905085565b6060806060806060600080876040516105479190611315565b908152602001604051809103902060016000896040516105679190611315565b90815260200160405180910390208054905061058391906113bc565b81548110610594576105936113f0565b5b90600052602060002090600502016040518060a00160405290816000820180546105bd9061135b565b80601f01602080910402602001604051908101604052809291908181526020018280546105e99061135b565b80156106365780601f1061060b57610100808354040283529160200191610636565b820191906000526020600020905b81548152906001019060200180831161061957829003601f168201915b5050505050815260200160018201805461064f9061135b565b80601f016020809104026020016040519081016040528092919081815260200182805461067b9061135b565b80156106c85780601f1061069d576101008083540402835291602001916106c8565b820191906000526020600020905b8154815290600101906020018083116106ab57829003601f168201915b505050505081526020016002820180546106e19061135b565b80601f016020809104026020016040519081016040528092919081815260200182805461070d9061135b565b801561075a5780601f1061072f5761010080835404028352916020019161075a565b820191906000526020600020905b81548152906001019060200180831161073d57829003601f168201915b505050505081526020016003820180546107739061135b565b80601f016020809104026020016040519081016040528092919081815260200182805461079f9061135b565b80156107ec5780601f106107c1576101008083540402835291602001916107ec565b820191906000526020600020905b8154815290600101906020018083116107cf57829003601f168201915b505050505081526020016004820180546108059061135b565b80601f01602080910402602001604051908101604052809291908181526020018280546108319061135b565b801561087e5780601f106108535761010080835404028352916020019161087e565b820191906000526020600020905b81548152906001019060200180831161086157829003601f168201915b505050505081525050905080600001518160200151826080015183604001518460600151955095509550955095505091939590929450565b60606000826040516108c89190611315565b9081526020016040518091039020805480602002602001604051908101604052809291908181526020016000905b82821015610c0257838290600052602060002090600502016040518060a00160405290816000820180546109299061135b565b80601f01602080910402602001604051908101604052809291908181526020018280546109559061135b565b80156109a25780601f10610977576101008083540402835291602001916109a2565b820191906000526020600020905b81548152906001019060200180831161098557829003601f168201915b505050505081526020016001820180546109bb9061135b565b80601f01602080910402602001604051908101604052809291908181526020018280546109e79061135b565b8015610a345780601f10610a0957610100808354040283529160200191610a34565b820191906000526020600020905b815481529060010190602001808311610a1757829003601f168201915b50505050508152602001600282018054610a4d9061135b565b80601f0160208091040260200160405190810160405280929190818152602001828054610a799061135b565b8015610ac65780601f10610a9b57610100808354040283529160200191610ac6565b820191906000526020600020905b815481529060010190602001808311610aa957829003601f168201915b50505050508152602001600382018054610adf9061135b565b80601f0160208091040260200160405190810160405280929190818152602001828054610b0b9061135b565b8015610b585780601f10610b2d57610100808354040283529160200191610b58565b820191906000526020600020905b815481529060010190602001808311610b3b57829003601f168201915b50505050508152602001600482018054610b719061135b565b80601f0160208091040260200160405190810160405280929190818152602001828054610b9d9061135b565b8015610bea5780601f10610bbf57610100808354040283529160200191610bea565b820191906000526020600020905b815481529060010190602001808311610bcd57829003601f168201915b505050505081525050815260200190600101906108f6565b505050509050919050565b6040518060a0016040528060608152602001606081526020016060815260200160608152602001606081525090565b828054610c489061135b565b90600052602060002090601f016020900481019282610c6a5760008555610cb1565b82601f10610c8357805160ff1916838001178555610cb1565b82800160010185558215610cb1579182015b82811115610cb0578251825591602001919060010190610c95565b5b509050610cbe9190610cc2565b5090565b5b80821115610cdb576000816000905550600101610cc3565b5090565b6000604051905090565b600080fd5b600080fd5b600080fd5b600080fd5b6000601f19601f8301169050919050565b7f4e487b7100000000000000000000000000000000000000000000000000000000600052604160045260246000fd5b610d4682610cfd565b810181811067ffffffffffffffff82111715610d6557610d64610d0e565b5b80604052505050565b6000610d78610cdf565b9050610d848282610d3d565b919050565b600067ffffffffffffffff821115610da457610da3610d0e565b5b610dad82610cfd565b9050602081019050919050565b82818337600083830152505050565b6000610ddc610dd784610d89565b610d6e565b905082815260208101848484011115610df857610df7610cf8565b5b610e03848285610dba565b509392505050565b600082601f830112610e2057610e1f610cf3565b5b8135610e30848260208601610dc9565b91505092915050565b600080600080600060a08688031215610e5557610e54610ce9565b5b600086013567ffffffffffffffff811115610e7357610e72610cee565b5b610e7f88828901610e0b565b955050602086013567ffffffffffffffff811115610ea057610e9f610cee565b5b610eac88828901610e0b565b945050604086013567ffffffffffffffff811115610ecd57610ecc610cee565b5b610ed988828901610e0b565b935050606086013567ffffffffffffffff811115610efa57610ef9610cee565b5b610f0688828901610e0b565b925050608086013567ffffffffffffffff811115610f2757610f26610cee565b5b610f3388828901610e0b565b9150509295509295909350565b6000819050919050565b610f5381610f40565b8114610f5e57600080fd5b50565b600081359050610f7081610f4a565b92915050565b60008060408385031215610f8d57610f8c610ce9565b5b600083013567ffffffffffffffff811115610fab57610faa610cee565b5b610fb785828601610e0b565b9250506020610fc885828601610f61565b9150509250929050565b600081519050919050565b600082825260208201905092915050565b60005b8381101561100c578082015181840152602081019050610ff1565b8381111561101b576000848401525b50505050565b600061102c82610fd2565b6110368185610fdd565b9350611046818560208601610fee565b61104f81610cfd565b840191505092915050565b600060a08201905081810360008301526110748188611021565b905081810360208301526110888187611021565b9050818103604083015261109c8186611021565b905081810360608301526110b08185611021565b905081810360808301526110c48184611021565b90509695505050505050565b6000602082840312156110e6576110e5610ce9565b5b600082013567ffffffffffffffff81111561110457611103610cee565b5b61111084828501610e0b565b91505092915050565b600081519050919050565b600082825260208201905092915050565b6000819050602082019050919050565b600082825260208201905092915050565b600061116182610fd2565b61116b8185611145565b935061117b818560208601610fee565b61118481610cfd565b840191505092915050565b600060a08301600083015184820360008601526111ac8282611156565b915050602083015184820360208601526111c68282611156565b915050604083015184820360408601526111e08282611156565b915050606083015184820360608601526111fa8282611156565b915050608083015184820360808601526112148282611156565b9150508091505092915050565b600061122d838361118f565b905092915050565b6000602082019050919050565b600061124d82611119565b6112578185611124565b93508360208202850161126985611135565b8060005b858110156112a557848403895281516112868582611221565b945061129183611235565b925060208a0199505060018101905061126d565b50829750879550505050505092915050565b600060208201905081810360008301526112d18184611242565b905092915050565b600081905092915050565b60006112ef82610fd2565b6112f981856112d9565b9350611309818560208601610fee565b80840191505092915050565b600061132182846112e4565b915081905092915050565b7f4e487b7100000000000000000000000000000000000000000000000000000000600052602260045260246000fd5b6000600282049050600182168061137357607f821691505b602082108114156113875761138661132c565b5b50919050565b7f4e487b7100000000000000000000000000000000000000000000000000000000600052601160045260246000fd5b60006113c782610f40565b91506113d283610f40565b9250828210156113e5576113e461138d565b5b828203905092915050565b7f4e487b7100000000000000000000000000000000000000000000000000000000600052603260045260246000fdfea2646970667358221220e3f318569c7e7a76a02d0ffa2f789b5c28bcec7d1aad8b45bf2e2d4b2d8323e464736f6c634300080c0033",
  "immutableReferences": {},
  "source": "// SPDX-License-Identifier: MIT\npragma solidity >=0.4.22 <0.9.0;\n\ncontract Meteosc {\n\n    struct File {\n        string _fullName;\n        string _name;\n        string _firstMesure;\n        string _lastMesure;\n        string _data;\n    }\n\n    //kathe name ASIGONIA_20221010 antistixoi se allo struct file\n    mapping(string => File[]) public file; \n\n    constructor () public {\n        addFile(\"ASIGONIA_1\", \"ASIGONIA\", \"2022/11/10\", \"2022/12/10\", \"fisrt_data\");\n        addFile(\"MENIDI_1\", \"MENIDI\", \"2021/11/10\", \"2021/12/10\", \"fisrt_data\");\n        addFile(\"ASIGONIA_1\", \"ASIGONIA\", \"2022/11/10\", \"2022/12/10\", \"second_data\");\n        addFile(\"ASIGONIA_1\", \"ASIGONIA\", \"2022/20/10\", \"2022/12/10\", \"third_data\");\n        addFile(\"MENIDI_2\", \"MENIDI\", \"2021/13/10\", \"2021/14/10\", \"first_data\");\n    }\n\n    // new file simply name = [full name, first mesure, last mesure]\n    // initial name = ASIGONIA\n    // newFile = [ASIGONIA_20221010, 202202021030, 202210101030]\n    function addFile(\n        string memory fullName, \n        string memory name, \n        string memory data, \n        string memory firstMesure, \n        string memory lastMesure\n    )public {\n        File memory curfile;\n\n        curfile._fullName = fullName;\n        curfile._name = name;\n        curfile._firstMesure = firstMesure;\n        curfile._lastMesure = lastMesure;\n        curfile._data = data;\n\n        file[fullName].push(curfile);\n    }\n\n    function getFile(\n        string memory fullName\n    )public view returns (string memory, string memory, string memory, string memory, string memory) {\n        File memory cur = file[fullName][file[fullName].length - 1];\n        return (cur._fullName, cur._name, cur._data, cur._firstMesure, cur._lastMesure);\n    }\n\n    function getFileHistory(\n        string memory fullName\n    )public view returns (File[] memory) {\n\n        return file[fullName];\n    }\n\n}\n",
  "sourcePath": "/home/gio/blockchain/bnet/contracts/Meteosc.sol",
  "compiler": {
    "name": "solc",
    "version": "0.8.12+commit.f00d7308.Emscripten.clang"
  },
  "schemaVersion": "3.4.6",
  "updatedAt": "2022-04-07T09:04:29.474Z",
  "networkType": "ethereum",
  "devdoc": {
    "kind": "dev",
    "methods": {},
    "version": 1
  },
  "userdoc": {
    "kind": "user",
    "methods": {},
    "version": 1
  }
}