{
  "contractName": "meteosc",
  "abi": [
    {
      "anonymous": false,
      "inputs": [
        {
          "indexed": false,
          "internalType": "string",
          "name": "_name",
          "type": "string"
        },
        {
          "indexed": false,
          "internalType": "string",
          "name": "_fullname",
          "type": "string"
        },
        {
          "indexed": false,
          "internalType": "string",
          "name": "_firstMesure",
          "type": "string"
        },
        {
          "indexed": false,
          "internalType": "string",
          "name": "_lastMesure",
          "type": "string"
        },
        {
          "indexed": false,
          "internalType": "string",
          "name": "_data",
          "type": "string"
        }
      ],
      "name": "FileAccess",
      "type": "event"
    },
    {
      "inputs": [
        {
          "internalType": "string",
          "name": "",
          "type": "string"
        }
      ],
      "name": "file",
      "outputs": [
        {
          "internalType": "string",
          "name": "_fullname",
          "type": "string"
        },
        {
          "internalType": "string",
          "name": "_name",
          "type": "string"
        },
        {
          "internalType": "string",
          "name": "_firstMesure",
          "type": "string"
        },
        {
          "internalType": "string",
          "name": "_lastMesure",
          "type": "string"
        },
        {
          "internalType": "string",
          "name": "_data",
          "type": "string"
        }
      ],
      "stateMutability": "view",
      "type": "function"
    },
    {
      "inputs": [
        {
          "internalType": "string",
          "name": "fullName",
          "type": "string"
        },
        {
          "internalType": "string",
          "name": "name",
          "type": "string"
        },
        {
          "internalType": "string",
          "name": "data",
          "type": "string"
        },
        {
          "internalType": "string",
          "name": "firstMesure",
          "type": "string"
        },
        {
          "internalType": "string",
          "name": "lastMesure",
          "type": "string"
        }
      ],
      "name": "addFile",
      "outputs": [],
      "stateMutability": "nonpayable",
      "type": "function"
    }
  ],
  "bytecode": "0x608060405234801561001057600080fd5b50610a08806100206000396000f3fe608060405234801561001057600080fd5b50600436106100365760003560e01c80630a7fac441461003b57806369930d0614610057575b600080fd5b610055600480360381019061005091906106d0565b61008b565b005b610071600480360381019061006c91906107d7565b6101df565b6040516100829594939291906108a8565b60405180910390f35b8460008660405161009c919061095a565b908152602001604051809103902060000190805190602001906100c09291906104d3565b50836000866040516100d2919061095a565b908152602001604051809103902060010190805190602001906100f69291906104d3565b5081600086604051610108919061095a565b9081526020016040518091039020600201908051906020019061012c9291906104d3565b508060008660405161013e919061095a565b908152602001604051809103902060030190805190602001906101629291906104d3565b5082600086604051610174919061095a565b908152602001604051809103902060040190805190602001906101989291906104d3565b507fe7216a36e7fc2e2c873e5cfc81d98b10cfd8d9dea7774978d592397ea2904a4e84868484876040516101d09594939291906108a8565b60405180910390a15050505050565b600081805160208101820180518482526020830160208501208183528095505050505050600091509050806000018054610218906109a0565b80601f0160208091040260200160405190810160405280929190818152602001828054610244906109a0565b80156102915780601f1061026657610100808354040283529160200191610291565b820191906000526020600020905b81548152906001019060200180831161027457829003601f168201915b5050505050908060010180546102a6906109a0565b80601f01602080910402602001604051908101604052809291908181526020018280546102d2906109a0565b801561031f5780601f106102f45761010080835404028352916020019161031f565b820191906000526020600020905b81548152906001019060200180831161030257829003601f168201915b505050505090806002018054610334906109a0565b80601f0160208091040260200160405190810160405280929190818152602001828054610360906109a0565b80156103ad5780601f10610382576101008083540402835291602001916103ad565b820191906000526020600020905b81548152906001019060200180831161039057829003601f168201915b5050505050908060030180546103c2906109a0565b80601f01602080910402602001604051908101604052809291908181526020018280546103ee906109a0565b801561043b5780601f106104105761010080835404028352916020019161043b565b820191906000526020600020905b81548152906001019060200180831161041e57829003601f168201915b505050505090806004018054610450906109a0565b80601f016020809104026020016040519081016040528092919081815260200182805461047c906109a0565b80156104c95780601f1061049e576101008083540402835291602001916104c9565b820191906000526020600020905b8154815290600101906020018083116104ac57829003601f168201915b5050505050905085565b8280546104df906109a0565b90600052602060002090601f0160209004810192826105015760008555610548565b82601f1061051a57805160ff1916838001178555610548565b82800160010185558215610548579182015b8281111561054757825182559160200191906001019061052c565b5b5090506105559190610559565b5090565b5b8082111561057257600081600090555060010161055a565b5090565b6000604051905090565b600080fd5b600080fd5b600080fd5b600080fd5b6000601f19601f8301169050919050565b7f4e487b7100000000000000000000000000000000000000000000000000000000600052604160045260246000fd5b6105dd82610594565b810181811067ffffffffffffffff821117156105fc576105fb6105a5565b5b80604052505050565b600061060f610576565b905061061b82826105d4565b919050565b600067ffffffffffffffff82111561063b5761063a6105a5565b5b61064482610594565b9050602081019050919050565b82818337600083830152505050565b600061067361066e84610620565b610605565b90508281526020810184848401111561068f5761068e61058f565b5b61069a848285610651565b509392505050565b600082601f8301126106b7576106b661058a565b5b81356106c7848260208601610660565b91505092915050565b600080600080600060a086880312156106ec576106eb610580565b5b600086013567ffffffffffffffff81111561070a57610709610585565b5b610716888289016106a2565b955050602086013567ffffffffffffffff81111561073757610736610585565b5b610743888289016106a2565b945050604086013567ffffffffffffffff81111561076457610763610585565b5b610770888289016106a2565b935050606086013567ffffffffffffffff81111561079157610790610585565b5b61079d888289016106a2565b925050608086013567ffffffffffffffff8111156107be576107bd610585565b5b6107ca888289016106a2565b9150509295509295909350565b6000602082840312156107ed576107ec610580565b5b600082013567ffffffffffffffff81111561080b5761080a610585565b5b610817848285016106a2565b91505092915050565b600081519050919050565b600082825260208201905092915050565b60005b8381101561085a57808201518184015260208101905061083f565b83811115610869576000848401525b50505050565b600061087a82610820565b610884818561082b565b935061089481856020860161083c565b61089d81610594565b840191505092915050565b600060a08201905081810360008301526108c2818861086f565b905081810360208301526108d6818761086f565b905081810360408301526108ea818661086f565b905081810360608301526108fe818561086f565b90508181036080830152610912818461086f565b90509695505050505050565b600081905092915050565b600061093482610820565b61093e818561091e565b935061094e81856020860161083c565b80840191505092915050565b60006109668284610929565b915081905092915050565b7f4e487b7100000000000000000000000000000000000000000000000000000000600052602260045260246000fd5b600060028204905060018216806109b857607f821691505b602082108114156109cc576109cb610971565b5b5091905056fea2646970667358221220189e93570ef59207466d182c8b559c6902e8205e1ed6f38255897013541ba8c164736f6c634300080c0033",
  "immutableReferences": {},
  "source": "// SPDX-License-Identifier: MIT\npragma solidity >=0.4.22 <0.9.0;\n\ncontract meteosc {\n\n    struct File {\n        string _fullname;\n        string _name;\n        string _firstMesure;\n        string _lastMesure;\n        string _data;\n    }\n\n    //kathe name ASIGONIA_20221010 antistixoi se allo struct file\n    mapping(string => File) public file; \n\n    event FileAccess(\n        string _name,\n        string _fullname,\n        string _firstMesure,\n        string _lastMesure,\n        string _data\n    );\n\n    // new file simply name = [full name, first mesure, last mesure]\n    // initial name = ASIGONIA\n    // newFile = [ASIGONIA_20221010, 202202021030, 202210101030]\n    function addFile(string memory fullName, string memory name, string memory data, \n            string memory firstMesure, string memory lastMesure) public {\n        file[fullName]._fullname = fullName;\n        file[fullName]._name = name;\n        file[fullName]._firstMesure = firstMesure;\n        file[fullName]._lastMesure = lastMesure;\n        file[fullName]._data = data;\n        emit FileAccess(name, fullName, firstMesure, lastMesure, data);\n    }\n\n\n\n    // function getFile(string memory selectedName) public view returns (string memory) { \n    //     return curFile[selectedName].name;\n    // }\n\n}\n",
  "sourcePath": "/home/gio/blockchain/bnet/contracts/Meteosc.sol",
  "compiler": {
    "name": "solc",
    "version": "0.8.12+commit.f00d7308.Emscripten.clang"
  },
  "schemaVersion": "3.4.6",
  "updatedAt": "2022-04-06T11:26:56.399Z",
  "devdoc": {
    "kind": "dev",
    "methods": {},
    "version": 1
  },
  "userdoc": {
    "kind": "user",
    "methods": {},
    "version": 1
  }
}